:020000040800F2
:1000000000000220252C0408B5080008B7080008E5
:10001000B9080008BB080008BD080008000000007F
:10002000000000000000000000000000BF08000801
:10003000C108000800000000C3080008C508000847
:10004000792C0408792C0408792C0408792C0408EC
:10005000792C0408792C0408792C0408792C0408DC
:10006000792C0408792C0408792C0408792C0408CC
:10007000792C0408792C0408792C0408792C0408BC
:10008000792C0408792C0408792C0408792C0408AC
:10009000792C0408792C0408792C0408792C04089C
:1000A000792C0408792C0408792C0408792C04088C
:1000B000792C0408792C0408792C0408792C04087C
:1000C000792C0408792C0408792C0408792C04086C
:1000D000792C0408792C0408792C0408792C04085C
:1000E000CD080008792C040800000000792C0408D1
:1000F000792C0408792C0408792C0408792C04083C
:10010000792C0408792C0408792C0408792C04082B
:10011000792C0408792C0408792C0408792C04081B
:10012000792C0408792C0408792C0408792C04080B
:10013000792C0408792C0408792C0408792C0408FB
:1001400000000000000000000000000000000000AF
:10015000792C0408792C0408792C0408792C0408DB
:10016000792C0408792C0408792C0408792C0408CB
:10017000792C0408792C0408792C0408792C0408BB
:10018000792C0408792C0408792C0408792C0408AB
:10019000792C0408792C0408792C0408792C04089B
:1001A000792C0408792C0408792C0408792C04088B
:1001B000792C0408792C0408792C0408792C04087B
:1001C000792C0408792C0408792C0408792C04086B
:1001D000792C0408792C0408792C0408792C04085B
:1001E000792C0408792C0408792C0408792C04084B
:1001F000792C0408792C0408792C0408792C04083B
:10020000792C0408792C0408792C0408792C04082A
:10021000792C0408792C0408792C0408792C04081A
:10022000792C0408792C0408792C040800000000BB
:10023000792C0408792C040800000000792C0408AB
:10024000792C0408792C0408792C0408792C0408EA
:10025000792C0408792C0408792C0408792C0408DA
:10026000792C0408792C0408792C0408792C0408CA
:10027000792C0408792C0408792C0408000000006B
:10028000792C0408792C0408792C0408000000005B
:0802900000000000792C0408B5
:1002A00001F0FF01102A2BDB10F0070F08D010F827
:1002B000013B013A8B422DD010F0070F42B3F6D12B
:1002C000F0B441EA012141EA014122F007047FF044
:1002D00000070023F0E80256083C85EA010586EA9B
:1002E000010685FA47F5A3FA87F586FA47F6A5FAD7
:1002F00087F68EB9EED1F0BC01F0FF0102F00702E3
:1003000032B110F8013B013A83EA010313B1F8D18D
:100310000020704701387047002D06BF354603386E
:10032000073815F0010F07D1013015F4807F02BFA7
:10033000013015F4C03F0130F0BC0138704700BFF8
:10034000034613F8012B002AFBD1181A0138704715
:100350007BB972B90029BEBF00204FF0004106E012
:1003600008BF00281CBF6FF000414FF0FF3000F0C5
:1003700057B8ADF1080C6DE904CE002909DB002B5C
:100380001ADB45F075F8DDF804E0DDE9022304B07E
:100390007047404261EB4101002B1BDB45F068F8E0
:1003A000DDF804E0DDE9022304B0404261EB4101E5
:1003B000524263EB43037047524263EB430345F001
:1003C00057F8DDF804E0DDE9022304B0404261EBB8
:1003D00041017047524263EB430345F049F8DDF8B1
:1003E00004E0DDE9022304B0524263EB43037047AB
:1003F00053B94AB9002908BF00281CBF4FF0FF318C
:100400004FF0FF3000F00CB8ADF1080C6DE904CEF0
:1004100045F02EF8DDF804E0DDE9022304B0704772
:10042000704700BF10B5054C237833B9044B13B1A6
:100430000448AFF300800123237010BD2C0200207C
:10044000000000002C57040808B5034B1BB10349FA
:100450000348AFF3008008BD000000003002002018
:100460002C5704082DE9F0438DB007AD0024079404
:10047000089409940A940B943E4BD3F8E02042F080
:100480000402C3F8E020D3F8E02002F00402019255
:10049000019AD3F8E02042F02002C3F8E020D3F81C
:1004A000E02002F020020292029AD3F8E02042F00B
:1004B0008002C3F8E020D3F8E02002F0800203922B
:1004C000039AD3F8E02042F00102C3F8E020D3F809
:1004D000E02002F001020492049AD3F8E02042F0F6
:1004E0000802C3F8E020D3F8E02002F008020592E9
:1004F000059AD3F8E02042F00202C3F8E020D3F8D6
:10050000E03003F002030693069BDFF8709022466A
:100510000621484603F0BCFCDFF8648022464FF415
:100520007071404603F0B4FC134F2246FF21384659
:1005300003F0AEFC062307930126089609940A945B
:100540002946484603F08EFB4FF4707307930896D4
:1005500009940A942946404603F084FBFF2307933D
:10056000089609940A942946384603F07BFB0DB09F
:10057000BDE8F08300440258000C025800140258F1
:100580000008025872B6FEE700B58BB0002307934F
:1005900008930993009301930293039304930593A3
:1005A00006931E481E4A02604FF400224260836098
:1005B000C3600422026103754375012282610377DF
:1005C00043628362C3620363436380F83830C2636B
:1005D00000F0AEFEE0B90023079307A90F4800F032
:1005E000D1FFB8B90F4B0093062301930023029368
:1005F00040F2FF7203920422049205938DF81930A1
:100600006946064800F0B0FB30B90BB05DF804FB5A
:10061000FFF7B8FFFFF7B6FFFFF7B4FFE8020020CF
:10062000002002400800900C08B51348134B0360EB
:10063000A3F13E53A3F57D23A3F565634360002337
:1006400083600122C260036143618361C36103620D
:1006500003F01EFF50B90021074804F029F938B90A
:100660000021054804F051F920B908BDFFF78AFFC1
:10067000FFF788FFFFF786FF940200200054004038
:1006800000B589B000230493059306930793019363
:100690000293039313484FF0804202607722426036
:1006A00083604FF0FF32C2600361836104F0B2FAED
:1006B00090B94FF48053049304A90A4804F0E8FA6F
:1006C00060B900230193039301A9064804F07CFB61
:1006D00030B909B05DF804FBFFF754FFFFF752FF94
:1006E000FFF750FF4802002000B59DB04C220021CA
:1006F00009A843F013F82022002101A843F00EF8C6
:10070000022003F0CBFB00230093254BDA6A22F092
:100710000102DA62DB6A03F001030093214A936964
:1007200023F4404343F400439361936903F440434B
:100730000093009B1B4B9B6913F4005FFAD00223CC
:10074000099301220C9240220D92129300221392DF
:10075000042114910F2015901693179118930C23D0
:1007600019931A921B9209A800F0B4FF98B93F237D
:1007700001930323029300230393049305934022E0
:10078000069207930893022101A801F0F7FB20B914
:100790001DB05DF804FBFFF7F5FEFFF7F3FE00BFA9
:1007A000000400580048025880B590B003F042FCA5
:1007B000FFF79AFFFFF756FEFFF7E6FEFFF734FF5D
:1007C000FFF75EFF00230F930E930CAF00240C94F1
:1007D0000D940AAE0A940B94324D022229463846F3
:1007E00005F079F904222946304605F074F905A888
:1007F000059444608460C460046100940194029490
:100800000394049440F2EE2397E8060005F06BF998
:1008100040F2EE2396E80600684605F064F92046AB
:1008200000F06CF9012000F069F9022000F066F98F
:100830000121204600F0B4F91B494FF4E1330B606D
:100840004C600C814C818C81204600F017FA08B175
:10085000FFF798FE05F0E2FB05F02CFC12E00EA974
:10086000684605F059FA40B1DDED0E7AB7EEE77A49
:1008700053EC172B0D4842F0FBFE23F059FA0220EF
:1008800003F018FC0FA905A805F046FA0028E6D0E9
:10089000DDED0F7AB7EEE77A53EC172B044842F000
:1008A000E7FEDCE7001402584C03002084570408DC
:1008B00070570408FEE7FEE7FEE7FEE7FEE7704735
:1008C0007047704708B503F0E3FB08BD08B500208A
:1008D00000F0ACF908BD000082B0074BD3F8F4205B
:1008E00042F00202C3F8F420D3F8F43003F002031C
:1008F0000193019B02B070470044025810B5B8B094
:100900000446002133913491359136913791C022BC
:1009100002A842F003FF2268204B9A4201D038B06F
:1009200010BD4FF400220023CDE9022304230493D9
:100930000A2305930223069307930893C023099380
:1009400020230A9302A801F0B1FD18BB144BD3F881
:10095000D82042F02002C3F8D820D3F8D82002F0E3
:1009600020020092009AD3F8E02042F00102C3F87E
:10097000E020D3F8E03003F001030193019B402312
:100980003393032334930023359333A9054803F0AD
:1009900069F9C4E7FFF7F6FDD8E700BF0020024081
:1009A000004402580000025810B5B8B004460021B7
:1009B00033913491359136913791C02202A842F09B
:1009C000ADFE22681B4B9A4201D038B010BD082200
:1009D0000023CDE9022302A801F068FD38BB164CC4
:1009E000D4F8E03043F00203C4F8E030D4F8E0304B
:1009F00003F002030093009B4FF4407333931223E0
:100A000034930023359336930423379333A90B484B
:100A100003F028F9D4F8E83043F40013C4F8E830C0
:100A2000D4F8E83003F400130193019BCDE7FFF7FE
:100A3000A9FDD4E7005400400044025800040258C5
:100A40000368B3F1804F00D0704782B0074BD3F8F2
:100A5000E82042F00102C3F8E820D3F8E83003F0C0
:100A600001030193019B02B0704700BF004402588C
:100A7000F0B589B01F4BD3F8E02042F00802C3F86C
:100A8000E020D3F8E02002F008020092009AD3F8A8
:100A9000E02042F00802C3F8E020D3F8E02002F0A2
:100AA00008020192019AD3F8E82042F48022C3F8A8
:100AB000E820D3F8E83003F480230293029B4FF43C
:100AC000807303930224049406940123059307275B
:100AD000079703AE084D3146284603F0C3F84FF49C
:100AE00000730393049407973146284603F0BAF83D
:100AF00009B0F0BD00440258000C0258022846D844
:100B000070B588B028BB234BD3F8E02042F0020236
:100B1000C3F8E020D3F8E03003F002030093009B19
:100B20001D4B33F8106003960123049300240594B1
:100B300003230693194B53F8205003A9284603F0CA
:100B400091F822463146284603F0A2F9204608B023
:100B500070BD01280DD00F4BD3F8E02042F0020207
:100B6000C3F8E020D3F8E03003F002030293029BC5
:100B7000D6E7084BD3F8E02042F01002C3F8E0209B
:100B8000D3F8E03003F010030193019BC8E76FF046
:100B900001007047004402581C60040824600408E7
:100BA00010B586B01C4BD3F8E02042F00402C3F825
:100BB000E020D3F8E03003F004030093009B4FF4EF
:100BC0000053019302230393049341B9002302933A
:100BD00001A9124803F046F8002006B010BD0446F3
:100BE0004FF48813029301A90C4803F03BF80C4B17
:100BF00003EBC4040B49204603F0BBFE0A4A002164
:100C0000204603F0ADFE00220F21282003F0C2F998
:100C1000282003F0CFF9DFE700440258000802580B
:100C2000F40300200D003016430C000808B5034BF8
:100C300003EBC00003F0A4FE08BD00BFF4030020D6
:100C4000704708B50020FFF7FBFF08BD08B50A4A4A
:100C5000126802600A6842600C2242614A8902619D
:100C60004A6882600A89C2608A8982614FF40042C0
:100C7000C26104F0AEFD08BD0000002070B938B5B7
:100C80000D469422084C02FB00442046FFF7F0FE7C
:100C900029462046FFF7DAFF18B938BD6FF001008A
:100CA00070476FF00300F8E76003002010B582B0D2
:100CB0000190084B18784FF47A73012201A94FF084
:100CC000940C054C0CFB004004F0AEFC019802B003
:100CD00010BD00BF5C0300206003002010B4303062
:100CE0000B0A9B0003F00C03C45801F01F014FF0E6
:100CF0001F0C0CFA01FC24EA0C0CC2F384628A403B
:100D00004CEA0202C2505DF8044B704710B4143034
:100D10004B0E9B0003F00403C458C1F304514FF081
:100D2000070C0CFA01FC24EA0C0C8A404CEA020283
:100D3000C2505DF8044B7047C1F313033BB9C1F3D4
:100D4000846101228A40C3691343C361704791FAE9
:100D5000A1F131B1B1FA81F101F01F0101228A4004
:100D6000F1E72021F8E7000070B582B0002301937D
:100D700090F85030012B00F0148204460D460123F8
:100D800080F850300268936813F0040F09D0436D67
:100D900043F0200343650120002384F8503002B063
:100DA00070BD0B68002B0ADBC3F3130100293AD195
:100DB000C3F3846301219940D3690B43D3612A684B
:100DC00069682068FFF78AFF2068866816F00406C5
:100DD00000D00126836813F0080F00D17EB320688D
:100DE000816811F0010140F0D8812B68EE68D0F8DD
:100DF000C020C3F3130C22EA0C0206F0180C954E27
:100E000026FA0CF63340C3F313031343C0F8C03083
:100E1000EA68914B9A4200F0A1802B68002BC0F247
:100E200043810020B8E793FAA3F333B1B3FA83F315
:100E300003F01F0301219940BEE72023F8E7AA68C9
:100E40002968FFF763FF854B1B6803F07043B3F11C
:100E5000805F0BD02268D36813F0100F3BD16B6911
:100E6000D268C2F382025200934006E06B692268A6
:100E7000D268C2F38202520093402969042938D013
:100E80002268286802F1600C5CF8212002F0004220
:100E900000F0F840034313434CF8213023682869DD
:100EA0006A7E012A1FD03246603353F8201021F0A9
:100EB00000410A4343F82020206829692B7E012B3A
:100EC00014D0026922F4F04201F01F0306FA03F382
:100ED0001343036183E76B69D268920802F004024E
:100EE00052009340C9E74FF00042DDE74FF400663F
:100EF000E7E72268136E03F0F8432968B3EB816FCC
:100F00001DD02268536E03F0F8432968B3EB816F5C
:100F10001AD02268936E03F0F8432968B3EB816F0F
:100F200017D02268D36E03F0F8432968B3EB816FC2
:100F30007FF455AFD36E23F00043D3664FE7136EB3
:100F400023F000431366DCE7536E23F0004353663F
:100F5000DFE7936E23F000439366E2E72068404B9F
:100F6000984205D03F4B98422BD0FFF7E5FE54E75F
:100F70002B683D4A93424AD03C4A934249D03C4A6E
:100F8000934248D03B4A934247D002F186621032E6
:100F9000934244D0384A934243D002F1042202F5EE
:100FA000401293423FD002F1866202F50062934202
:100FB0003BD0324A93423AD0314A9342D5D131495B
:100FC000D3E72B68284A934233D0284A934232D041
:100FD000274A934231D0274A934230D002F18662A9
:100FE000103293422DD0244A93422CD002F1042295
:100FF00002F54012934228D002F1866202F50062A7
:10100000934224D01E4A9342AFD11E49ADE701213D
:10101000ABE71D49A9E71D49A7E71D49A5E71D49FC
:10102000A3E71D49A1E71D499FE71D499DE71D490C
:101030009BE7012199E7144997E7144995E714497B
:1010400093E7144991E714498FE714498DE7144950
:101050008BE700BFFFFF0F000000FF470010005CA0
:101060000020024000210240020030040400600819
:101070000800900C1000C0100004002A000021435A
:101080000000844B0000B84F400020198000501D24
:10109000000180210002B0250008302E00106032CF
:1010A000002090360000524722683F493F48824264
:1010B00018BF8A420CBF0121002118D13C4EB568EF
:1010C00005F0E07CA9B13849886810F0010000D033
:1010D00001203649896811F0010100D00121014346
:1010E0000CD0636D43F020036365012054E6314E5C
:1010F000E5E73149896811F0010FF2D12F498B42A0
:1011000007D02F498B4226D02E498B4234D0002065
:1011100042E615F4000FF4D1274B9A4201D000208B
:101120003AE64CF40003B26822F0E0721343B36075
:10113000254B1B689B09254AA2FB03239B0901330E
:101140005B00019302E0019B013B0193019B002B9B
:10115000F9D1002020E615F0807FD5D1164B9A42B8
:1011600001D0002018E64CF08073B26822F0E072E3
:101170001343B36000200FE615F4800F0FD10E4B20
:101180009A4201D0002007E64CF48003B26822F0B6
:10119000E0721343B3600020FEE50020FCE5002070
:1011A000FAE50220FBE500BF0020024000210240DA
:1011B000002302400063025800600258000084CB04
:1011C000000052C70000B8CF10000020632D3E057C
:1011D00038B5044603684E494E4A934218BF8B42C5
:1011E00026D14D4B9B6803F44033003B18BF0123CD
:1011F00043B301F00DF805466368B3F5003F05D031
:10120000B3F5403F1CD0B3F5803F02D11B0CB5FBBA
:10121000F3F502F063FF41F20303984253D83F4BCA
:101220009D424AD92268936843F48073936038BD25
:101230003B4B9B6803F44033003B18BF0123D7E7C7
:101240008508E6E74FF40020002102F09DF90546ED
:101250006368B3F5101F2CD021D8B3F5E01F26D05A
:1012600004D9B3F5001FD4D14509D2E7B3F5801FE7
:1012700010D009D8B3F5002F0CD0B3F5402F09D00A
:10128000B3F5802F06D0C4E7B3F5A01F02D0B3F5A5
:10129000C01FBED19B0C5B00B5FBF3F5B9E7B3F5FE
:1012A000201F08D0B3F5301FB3D1050AB1E70509F7
:1012B000AFE78509ADE7C509ABE72268936823F47A
:1012C00080739360B3E7174B9D4205D822689368FB
:1012D00023F440739360AAE7134B9D4207D822681A
:1012E000936823F4407343F4807393609FE70F4B3C
:1012F0009D4207D82268936823F4407343F4007337
:10130000936094E72268936843F4407393608EE798
:10131000002002400021024000230240002D310144
:101320000063025821BCBE0041787D0181F0FA02C1
:1013300030B583B000230193002800F008810446F3
:10134000436DEBB123689A6812F0005F03D099688F
:10135000804A0A409A6023689A6812F0805F1CD124
:1013600099687D4A0A4042F080529A607B4B1B6824
:101370009B097B4AA2FB03239B090133019309E0EC
:10138000FFF7BCFA0023A36584F85030DAE7019B2D
:10139000013B0193019B002BF9D12268936813F064
:1013A000805F40F09780636D43F010036365A36D29
:1013B00043F00103A3650125936813F0040300D0F3
:1013C0000123616D11F0100F40F0B980002B40F047
:1013D000B680636D23F4817343F002036365936801
:1013E00013F0010F1ED15F495F4B9A4218BF8A422A
:1013F0000CBF012200226FD1896811F0010100D0D9
:101400000121594B9B6813F0010300D001230B43CA
:1014100008D1002A66D0554963688A6822F47C1294
:1014200013438B6002F05AFE41F20303984202D943
:10143000A368102B58D0627D236B43EA4233A26825
:101440001343227F43EA0243227F012A57D0626A74
:1014500022B102F47872A16A0A4313432168C86872
:10146000434A02401A43CA602268936813F0040397
:1014700000D00123916811F0080F1CD1DBB9217D48
:10148000E36A43EA8131D0683A4B03400B43D360AF
:1014900094F83830012B37D02268136923F0010308
:1014A00013612268136923F07043616B0B4313616E
:1014B0002046FFF78DFEE368012B37D02268136BBF
:1014C00023F00F031363636D23F0030343F0010361
:1014D000636539E000256FE7274B9B6813F0010F28
:1014E000A0D196E7254997E7617D226B42EA413218
:1014F0001343227F43EA024343F00C03A4E7226A2A
:10150000013A43EA4243A2E7206802691C4B1340B8
:10151000E26B511E226C42EA0142616C0A43A16CEB
:101520000A43134343F001030361BAE721680B6BDD
:1015300023F00F03A269013A13430B63C3E7636D02
:1015400043F0100363650125284603B030BD012533
:10155000FAE700BFC0FFFF5FC0FFFF6F1000002071
:10156000632D3E050020024000210240002302407E
:1015700003C0F0FFFCBFFFFF006002580063025889
:101580001EF800FC90F85020012A00F0968030B43C
:101590009AB00346012280F850200022169217923A
:1015A0000068474A904236D000220192019A002AF0
:1015B00035D0926812F0040200D00122846814F041
:1015C000040F6BD1002A69D13D4C3E4A904218BFAE
:1015D000A0422DD102F500720868002839D0906829
:1015E00020F440404C68204390601868344D354CDE
:1015F000A04218BFA8421DD1AC6814F0010400D06D
:1016000001243048806810F0010000D00120204300
:1016100015D0002047E002F580720192C6E75A6DAE
:1016200042F020025A65002283F8502001203DE05C
:10163000254AD1E72548806810F0010F39D1946818
:10164000234820400C6889682143084390600020AB
:1016500029E0916821F4404191601968184C1948BB
:10166000814218BFA1420ED1A06810F0010000D045
:1016700001201449896811F0010100D001210143C2
:1016800006D000200FE01149896811F0010F12D136
:1016900090680F4901409160002004E05A6D42F0CB
:1016A00020025A650120002283F850201AB030BC75
:1016B00070470020F7E70020F5E70220704700BFE1
:1016C00000200240002102400063025800600258DE
:1016D000E0F0FFFF002800F0398338B504460368C6
:1016E00013F0010F25D0944A136903F03803926A6E
:1016F000102B15D0182B0FD06368B3F5803F3FD067
:10170000002B53D18C4B1A6822F480321A601A686D
:1017100022F480221A6038E002F00302022AEBD1A0
:10172000854B1B6813F4003F03D06368002B00F067
:101730000F83236813F0020F00F0A1807E4A136923
:10174000926A13F038035AD0182B55D0E368002B57
:1017500000F0DE8078490A6822F0190213430B601A
:1017600002F0A2FC0546744B1B6813F0040F40F016
:10177000AD8002F099FC401B0228F4D90320EEE270
:101780006D4A136843F48033136063682BB302F02F
:101790008BFC0546684B1B6813F4003FC9D102F06F
:1017A00083FC401B6428F5D90320D8E2B3F5A02FB1
:1017B00009D0614B1A6822F480321A601A6822F448
:1017C00080221A60E1E75C4B1A6842F480221A60BA
:1017D0001A6842F480321A60D7E702F065FC0546C9
:1017E000554B1B6813F4003FA3D002F05DFC401B77
:1017F0006428F5D90320B2E212F0030FA6D14E4BB4
:101800001B6813F0040F03D0E368002B00F0A282E2
:10181000494A136823F01903E1680B43136002F08F
:1018200043FC0546444B1B6813F0040F06D102F03D
:101830003BFC401B0228F5D9032090E202F04EFC4D
:1018400041F20303984212D82269402A07D03A494C
:101850004B6823F47C3343EA02334B600FE0364A93
:10186000536823F47C3343F40033536007E0324A77
:10187000536823F0FE43216943EA01635360236800
:1018800013F0100F00F088802B4A136903F038031F
:10189000926A082B56D0182B50D0E369002B00F029
:1018A000B880254A136843F08003136002F0FCFB04
:1018B0000546214B1B6813F4807F40F0888002F0BE
:1018C000F3FB401B0228F4D9032048E202F006FC97
:1018D00041F20303984212D82269402A07D01649E0
:1018E0004B6823F47C3343EA02334B60C7E7124A68
:1018F000536823F47C3343F400335360BFE70E4A4C
:10190000536823F0FE43216943EA01635360B6E75D
:10191000094A136823F00103136002F0C5FB054672
:10192000054B1B6813F0040FA9D002F0BDFB401B50
:101930000228F5D9032012E20044025802F0030203
:10194000012AAAD1A14B1B6813F4807F03D0E3695D
:10195000802B40F0018202F0C1FB41F20303984268
:1019600012D8226A202A07D098494B6823F0F843FE
:1019700043EA82634B600FE0944A536823F0F843D4
:1019800043F08043536007E0904AD36823F07C53D0
:10199000216A43EA0163D360236813F0080F60D023
:1019A0006369002B49D0894A536F43F001035367A1
:1019B00002F07AFB0546854B5B6F13F0020F50D1A6
:1019C00002F072FB401B0228F5D90320C7E102F0A8
:1019D00085FB41F20303984212D8226A202A07D0DD
:1019E0007A494B6823F0F84343EA82634B60D3E7BC
:1019F000764A536823F0F84343F080435360CBE7C3
:101A0000724AD36823F07C53216A43EA0163D360AE
:101A1000C2E76E4A136823F08003136002F044FBB0
:101A200005466A4B1B6813F4807FB5D002F03CFB7F
:101A3000401B0228F5D9032091E1644A536F23F03B
:101A40000103536702F030FB0546604B5B6F13F0F8
:101A5000020F06D002F028FB401B0228F5D9032014
:101A60007DE1236813F0200F29D0A3699BB1574A69
:101A7000136843F48053136002F016FB0546534B82
:101A80001B6813F4005F1AD102F00EFB401B022802
:101A9000F5D9032063E14D4A136823F480531360A2
:101AA00002F002FB0546494B1B6813F4005F06D0A9
:101AB00002F0FAFA401B0228F5D903204FE123680F
:101AC00013F0040F21D1636A002B00F047813F4AD5
:101AD000126902F03802182A00F0EE80022B79D049
:101AE0003A4A136823F08073136002F0DDFA04466B
:101AF000364B1B6813F0007F00F0DC8002F0D4FA54
:101B0000001B0228F4D9032029E1314A136843F469
:101B10008073136002F0C8FA05462D4B1B6813F45E
:101B2000807F06D102F0C0FA401B6428F5D903205B
:101B300015E1A368012B0AD00BBB244B1A6F22F0CE
:101B400001021A671A6F22F004021A6704E01F4AA2
:101B5000136F43F001031367A36833B302F0A4FAD1
:101B600005461A4B1B6F13F0020FACD102F09CFA22
:101B7000401B41F288339842F3D90320EFE0052B54
:101B800009D0124B1A6F22F001021A671A6F22F065
:101B900004021A67E0E70D4B1A6F42F004021A675D
:101BA0001A6F42F001021A67D6E702F07DFA054685
:101BB000064B1B6F13F0020F85D002F075FA401B25
:101BC00041F288339842F3D90320C8E00044025818
:101BD00000480258694A136823F08073136002F0CA
:101BE00063FA0546654B1B6813F0007F06D002F0D0
:101BF0005BFA401B0228F5D90320B0E05F4B996ADD
:101C00005F4A0A40A16AE06A41EA00110A439A6207
:101C1000226B013AC2F30802616B0139490289B2B1
:101C20000A43A16B0139090401F4FE010A43E16B87
:101C30000139090601F0FE410A431A63DA6A22F00B
:101C40000102DA625A6B6FF3CF02A16C42EAC10261
:101C50005A63DA6A22F00C02216C0A43DA62DA6A09
:101C600022F00202616C0A43DA62DA6A42F48032DC
:101C7000DA62DA6A42F40032DA62DA6A42F4802224
:101C8000DA62DA6A42F00102DA621A6842F08072BD
:101C90001A6002F009FA0446384B1B6813F0007F03
:101CA00006D102F001FA001B0228F5D9032056E004
:101CB000002054E0002052E0304A916A106B012B62
:101CC0004ED001F00303A26A93424BD1C1F3051138
:101CD000E36A994248D1C0F30802236B013B9A4260
:101CE00044D1C0F34622636B013B9A4240D1C0F31A
:101CF0000642A36B013B9A423CD1C0F30660E36B02
:101D0000013B984238D11D4B5B6BC3F3CC03A26CF3
:101D10009A4201D1002022E0184AD36A23F001033D
:101D2000D36202F0C1F9054602F0BEF9A842FBD029
:101D3000124A536B6FF3CF03A16C43EAC1035363A1
:101D4000D36A43F00103D362002008E0012070470A
:101D5000012004E0012002E0012000E0002038BD65
:101D60000120FCE70120FAE70120F8E70120F6E76F
:101D70000120F4E70120F2E70120F0E700440258D7
:101D80000CFCFFFF754B1B6903F03803102B00F0B0
:101D9000DE80182B0FD0002B40F0DB806F4B1B68D0
:101DA00013F0200F00F0D7806C4B1B68C3F3C10306
:101DB0006B48D840704710B4684B9A6A02F003022F
:101DC0009C6AC4F30510D96A01F001015B6BC3F38F
:101DD000CC0301FB03F307EE903AF8EE677A14F4B4
:101DE0007C7F77D0012A4AD0022A76D0002A40F0A0
:101DF00091805A4B1B6813F0200F23D057490A6873
:101E0000C2F3C102564BD34007EE103AF8EE476AD0
:101E100007EE100AB8EE476A86EE867A0B6BC3F3BC
:101E2000080306EE903AF8EE666A9FED4E6A67EE9A
:101E3000867A76EEA77AF7EE006A77EEA67A27EE34
:101E4000277A38E007EE100AF8EE476A9FED466AF7
:101E500086EE267A414B1B6BC3F3080306EE903ADD
:101E6000F8EE666A9FED3F6A67EE867A76EEA77AAD
:101E7000F7EE006A77EEA67A27EE277A1BE007EEE8
:101E8000100AF8EE476A9FED396A86EE267A334BE0
:101E90001B6BC3F3080306EE903AF8EE666A9FEDFB
:101EA000316A67EE867A76EEA77AF7EE006A77EE09
:101EB000A67A27EE277A294B1B6BC3F346230133FF
:101EC00007EE903AF8EE677AC7EE276AFCEEE67AFC
:101ED00017EE900A5DF8044B704707EE100AF8EE13
:101EE000476A9FED236A86EE267A1C4B1B6BC3F371
:101EF000080306EE903AF8EE666A9FED1A6A67EEFE
:101F0000867A76EEA77AF7EE006A77EEA67A27EE63
:101F1000277AD0E707EE100AF8EE476A9FED136ABA
:101F200086EE267A0D4B1B6BC3F3080306EE903A40
:101F3000F8EE666A9FED0B6A67EE867A76EEA77A10
:101F4000F7EE006A77EEA67A27EE277AB3E709481C
:101F50007047094870470248704700BF0044025864
:101F60000090D003000000390024744C0024744A0F
:101F70000024F44A00127A0000093D00002800F015
:101F8000328170B50D4604469B4B1B6803F00F036E
:101F90008B420BD2984A136823F00F030B43136054
:101FA000136803F00F038B4240F01F81236813F086
:101FB000040F0CD02269914B9B6903F070039A4285
:101FC00005D98E498B6923F070031A438A6123680F
:101FD00013F0080F0CD06269884BDB6903F07003C3
:101FE0009A4205D98549CB6923F070031A43CA6127
:101FF000236813F0100F0CD0A269804BDB6903F447
:10200000E0639A4205D97D49CB6923F4E0631A4322
:10201000CA61236813F0200F0CD0E269774B1B6A6A
:1020200003F070039A4205D974490B6A23F07003D8
:102030001A430A62236813F0020F0CD0E2686F4B58
:102040009B6903F00F039A4205D96C498B6923F011
:102050000F031A438A61236813F0010F41D0674AC6
:10206000936923F47063A1680B4393616368022B47
:102070000AD0032B27D0012B2CD0604A126812F013
:10208000040F06D10120ADE0126812F4003F00F009
:10209000AE805A490A6922F0070213430B6102F02D
:1020A00003F80646554B1B6903F038036268B3EB2F
:1020B000C20F16D001F0F8FF801B41F2883398421E
:1020C000F0D903208EE04D4A126812F0007FE0D173
:1020D000012087E0494A126812F4807FD9D101209B
:1020E00080E0236813F0020F0CD0E268434B9B6939
:1020F00003F00F039A4205D240498B6923F00F0386
:102100001A438A613C4B1B6803F00F03AB420AD9A8
:10211000394A136823F00F032B431360136803F04D
:102120000F03AB4265D1236813F0040F0CD0226972
:10213000324B9B6903F070039A4205D22F498B6999
:1021400023F070031A438A61236813F0080F0CD040
:1021500062692A4BDB6903F070039A4205D2274972
:10216000CB6923F070031A43CA61236813F0100F80
:102170000CD0A269214BDB6903F4E0639A4205D2DB
:102180001E49CB6923F4E0631A43CA61236813F044
:10219000200F0CD0E269194B1B6A03F070039A42BE
:1021A00005D216490B6A23F070031A430A62FFF73F
:1021B000E9FD12498B69C3F30323114AD35C03F091
:1021C0001F03D8408B6903F00F03D35C03F01F0398
:1021D00020FA03F30B4A13600B4B18600B4B186883
:1021E00001F000FF70BD012070470120FAE70120D7
:1021F000F8E70120F6E700BF002000520044025833
:10220000486004080C000020100000200800002096
:1022100008B5FFF7B7FD0B4A9369C3F303230A49D7
:10222000CB5C03F01F0320FA03F3926902F00F0264
:10223000885C00F01F0023FA00F0044A1060044A92
:10224000136008BD00440258486004080C000020D8
:102250001000002008B5FFF7DBFF054BDB69C3F377
:102260000213044AD35C03F01F03D84008BD00BF2B
:10227000004402584860040808B5FFF7C9FF054B41
:10228000DB69C3F30223044AD35C03F01F03D84085
:1022900008BD00BF0044025848600408404B9B6AD8
:1022A00003F00303032B79D070B505460E463C4A74
:1022B000136823F08063136001F0F6FE0446384B88
:1022C0001B6813F0006F06D001F0EEFE031B022B1B
:1022D000F5D9032070BD324B9A6A22F47C3229680A
:1022E00042EA01329A626A68013AC2F30802A968B6
:1022F0000139490289B20A43E9680139090401F444
:10230000FE010A4329690139090601F0FE410A4329
:102310009A63DA6A22F0C00269690A43DA62DA6A09
:1023200022F02002A9690A43DA62DA6A22F0100276
:10233000DA62DA6B6FF3CF02E96942EAC102DA636B
:10234000DA6A42F01002DA62C6B91A46DB6A43F46E
:102350000023D362124A136843F08063136001F0D4
:10236000A3FE04460E4B1B6813F0006F14D101F05E
:102370009BFE001B0228F5D90320ABE7012E05D0F8
:10238000074AD36A43F40013D362E3E7044AD36AEB
:1023900043F48013D362DDE700209BE70120704700
:1023A00000440258404B9B6A03F00303032B79D08F
:1023B00070B505460E463C4A136823F080531360FF
:1023C00001F072FE0446384B1B6813F0005F06D024
:1023D00001F06AFE031B022BF5D9032070BD324BBE
:1023E0009A6A22F07C72296842EA01529A626A680B
:1023F000013AC2F30802A9680139490289B20A43C5
:10240000E9680139090401F4FE010A432969013927
:10241000090601F0FE410A431A64DA6A22F44062B6
:1024200069690A43DA62DA6A22F40072A9690A4326
:10243000DA62DA6A22F48072DA625A6C6FF3CF02DF
:10244000E96942EAC1025A64DA6A42F48072DA62E5
:10245000C6B91A46DB6A43F48003D362124A136892
:1024600043F08053136001F01FFE04460E4B1B68BF
:1024700013F0005F14D101F017FE001B0228F5D9FC
:102480000320ABE7012E05D0074AD36A43F08073DF
:10249000D362E3E7044AD36A43F40003D362DDE77F
:1024A00000209BE70120704700440258F8B504461D
:1024B000036813F0006F30D0836EB3F5001F26D091
:1024C0000ED8ABB1B3F5801F07D102210830FFF75A
:1024D000E5FE054695B12E4621E0012635461EE073
:1024E000B3F5401F01D1002508E00126354616E06E
:1024F0009A4AD36A43F40033D3620025974A136D96
:1025000023F44013A16E0B431365002607E002215C
:102510002830FFF747FF0546DCE7002635462368ED
:1025200013F4807F14D0A36D042B31D8DFE803F0BF
:10253000032229080800894AD36A43F40033D3628E
:102540004DBB864A136D23F00703A16D0B43136542
:10255000236813F4007F3FD0E36D802B2ED01FD86B
:1025600033B3402B19D1002104F10800FFF796FE88
:10257000054629E0002104F10800FFF78FFE05461B
:10258000DEE7002104F12800FFF70CFF0546D7E73E
:1025900001263546DCE72E46DAE7012635461BE004
:1025A000C02B11D0B3F5807F0ED00126354613E045
:1025B0006A4AD36A43F40033D36205E0002104F190
:1025C0002800FFF7EFFE0546DDB9644A136D23F4DA
:1025D000E073E16D0B431365236813F4806F33D010
:1025E000D4F8A830B3F5800F1FD00FD8BBB1B3F526
:1025F000001F08D1002104F10800FFF74FFE054637
:1026000019E02E46E8E7012635461DE0B3F5C00F78
:1026100011D0B3F5000F0ED00126354614E04F4A15
:10262000D36A43F40033D36205E0002104F12800AB
:10263000FFF7B8FE0546E5B9484A936D23F46003F9
:10264000D4F8A8100B439365236813F4006F34D0BB
:10265000D4F8AC30B3F1007F1FD00FD8BBB1B3F1C9
:10266000807F08D1002104F10800FFF717FE05461E
:1026700019E02E46E8E7012635461EE0B3F1407F1B
:1026800011D0B3F1806F0ED00126354615E0334AE4
:10269000D36A43F40033D36205E0002104F128003B
:1026A000FFF780FE0546002D33D12C4A936D23F0B1
:1026B000E063D4F8AC100B439365236813F0007FFC
:1026C00013D0E36C202B2ED028D833B1102B22D17D
:1026D000224AD36A43F40033D3625DBB1F4AD36CF2
:1026E00023F03003E16C0B43D364236813F4805F61
:1026F00046D0236EB3F5005F32D020D843B3B3F594
:10270000805F19D1002104F10800FFF7C7FD0546DD
:102710002CE02E46D1E701263546E6E7302BDCD00B
:1027200001263546E1E7022104F10800FFF7B6FD76
:102730000546D2E72E46D8E70126354620E0B3F518
:10274000405F13D0B3F5804F10D00126354617E017
:10275000024AD36A43F40033D36207E000440258CC
:10276000002104F12800FFF71DFE05463DB9704A1F
:10277000136D23F4E043216E0B43136500E02E46F6
:10278000236813F4005F17D0636EB3F5003F4FD09A
:1027900042D843B1B3F5803F3BD1012104F1080099
:1027A000FFF77CFD0546002D49D1614A136D23F4E6
:1027B000E023616E0B431365236813F4804F19D037
:1027C000D4F8B030B3F1005F4AD03DD843B1B3F193
:1027D000805F36D1012104F10800FFF75FFD054657
:1027E000002D44D1524A936D23F0E043D4F8B01049
:1027F0000B439365236813F4004F47D0236FB3F165
:10280000805F36D0B3F1005F4BD0BBB301263546B5
:102810003CE001263546CFE7B3F5802FC3D0B3F5B2
:10282000A02FC0D0B3F5403FBDD001263546C3E749
:10283000012104F12800FFF7B5FD0546B3E72E4658
:10284000BAE701263546D5E7B3F1804FC8D0B3F1DA
:10285000A04FC5D0B3F1405FC2D001263546C9E7CD
:10286000012104F12800FFF79DFD0546B8E72E463B
:10287000C0E72F4AD36A43F40033D362C5B92C4A68
:10288000136D23F04053216F0B431365236813F03E
:10289000807F1CD0A36C032B44D8DFE803F0100B1F
:1028A0003C10012104F10800FFF7F8FC0546E5E7BC
:1028B0002E46EBE71E4AD36A43F40033D362A5BB2E
:1028C0001B4AD36C23F00303A16C0B43D36423682E
:1028D00013F4800F2ED1236813F0010F00F0A680AF
:1028E000E36F282B00F2A080DFE803F08E9E9E9E0F
:1028F0009E9E9E9E889E9E9E9E9E9E9E979E9E9E15
:102900009E9E9E9E8E9E9E9E9E9E9E9E8E9E9E9E07
:102910009E9E9E9E8E00022104F10800FFF7BEFCE1
:102920000546CCE701263546D1E72E46CFE700BF66
:10293000004402585A4A136843F48073136001F04C
:10294000B3FB0746564B1B6813F4807F05D101F09B
:10295000ABFBC01B6428F5D90325002D4AD1514B90
:102960001B6FD4F8B420534013F4407F0CD04D4B70
:102970001A6F22F44072196F41F480311967196F90
:1029800021F4803119671A67D4F8B430B3F5807F29
:1029900015D08DBBD4F8B43003F44072B2F5407F4B
:1029A0001ED0404A136923F47C5313613D490B6FD9
:1029B000D4F8B420C2F30B0213430B678BE701F08A
:1029C00073FB0746374B1B6F13F0020FE1D101F089
:1029D0006BFBC01B41F288339842F3D90325D8E73B
:1029E0003048026922F47C522F4901EA1313134341
:1029F0000361DBE72E466EE72E466CE7012104F10A
:102A00000800FFF74BFC0546E5B9264A536D23F055
:102A10003803E16F0B43536508E0012104F12800FE
:102A2000FFF7C0FC0546EFE701263546236813F0A3
:102A3000020F17D0A36F052B2CD8DFE803F00B058E
:102A4000240B0B0B2E46F1E7012104F10800FFF7E0
:102A500025FC05460DBB134A536D23F00703A16FF8
:102A60000B435365236813F0040F30D0D4F894302F
:102A7000052B00F20F81DFE813F01F00190006019B
:102A80001F001F001F00012104F12800FFF78AFC2E
:102A90000546DFE701263546E4E72E46E2E700BFBC
:102AA0000048025800440258CFFFFF00012104F102
:102AB0000800FFF7F3FB0546002D40F0EE80B64A14
:102AC000936D23F00703D4F894100B4393652368A8
:102AD00013F0200F1DD0D4F89030B3F1005F00F058
:102AE000F08000F2DF804BB1B3F1805F40F0D7801F
:102AF000002104F10800FFF7D1FB0546002D40F04E
:102B0000E780A54A536D23F0E043D4F890100B43BF
:102B10005365236813F0400F1DD0D4F89C30B3F5F3
:102B2000006F00F0E98000F2D8804BB1B3F5806F00
:102B300040F0D080002104F10800FFF7AFFB05460C
:102B4000002D40F0E080944A936D23F4E053D4F8D4
:102B50009C100B439365236813F0800F1DD0D4F8AD
:102B6000A030B3F5804F00F0E28000F2D1804BB18D
:102B7000B3F5005F40F0C980002104F10800FFF7C1
:102B80008DFB0546002D40F0D980834A936D23F4D8
:102B90006043D4F8A0100B439365236813F0080F2B
:102BA0000DD0D4F88430B3F5805F00F0C9807A4A44
:102BB000536D23F44053D4F884100B4353652368BA
:102BC00013F0100F0DD0D4F89830B3F5807F00F0DB
:102BD000C180714A936D23F44073D4F898100B436D
:102BE0009365236813F4002F1CD0D4F8A430B3F5F8
:102BF000803F00F0B980B3F5003F08D0002B40F0D3
:102C0000BA80002104F10800FFF748FB0546002DBB
:102C100040F0B480604A936D23F44033D4F8A4109C
:102C20000B439365236813F4802F1CD0D4F88830AD
:102C3000B3F5001F00F0A480B3F5401F08D0B3F532
:102C4000801F40F0A480544AD36A43F40033D36217
:102C5000002D40F09F80504A536D23F44013D4F868
:102C600088100B435365236813F4803F00F0AC8059
:102C7000236D002B00F09280B3F5803F00F09C8024
:102C800001263546A0E0012104F12800FFF78AFB68
:102C9000054611E70126354619E72E4617E70126B6
:102CA000354636E7B3F1804F3FF428AFB3F1A04F7C
:102CB0003FF424AFB3F1405F3FF420AF0126354627
:102CC00027E7022104F12800FFF76CFB054615E712
:102CD0002E461EE7012635463DE7B3F5805F3FF4FB
:102CE0002FAFB3F5A05F3FF42BAFB3F5406F3FF4C8
:102CF00027AF012635462EE7022104F12800FFF711
:102D000051FB05461CE72E4625E70126354644E7DC
:102D1000B3F5004F3FF436AFB3F5204F3FF432AF79
:102D2000B3F5C04F3FF42EAF0126354635E70221FB
:102D300004F12800FFF736FB054623E72E462CE773
:102D4000022104F12800FFF72DFB00283FF42FAFEC
:102D500001262CE7022104F12800FFF723FB0028BD
:102D60003FF437AF012634E7022104F12800FFF7D2
:102D700019FB05464BE70126354653E72E4651E73A
:102D8000012104F12800FFF70DFB054660E701264D
:102D9000354668E72E4666E700440258704AD36A13
:102DA00043F40033D36275B96D4AD36C23F4803396
:102DB000216D0B43D36407E0022104F10800FFF703
:102DC0006DFA0546EFE72E46236813F0005F11D138
:102DD000236813F4003F28D0D4F88030B3F5807F07
:102DE00014D010D9B3F5007F15D0B3F5407F12D0C1
:102DF00001261AE0022104F12800FFF7D3FA002887
:102E0000E6D00126E4E733B101260EE0544AD36A46
:102E100043F40033D362002D69D1514A536D23F43A
:102E20004073D4F880100B435365236813F4801F5C
:102E300006D04B4A136D23F00043616F0B431365BB
:102E4000236813F0805F07D0454A136923F4804359
:102E5000D4F8B8100B431361236813F4001F06D095
:102E60003F4A136D23F08073E16E0B4313652368B3
:102E700013F0804F09D03A4B1A6922F400421A61CC
:102E80001A69D4F8BC100A431A612368002B06DAC9
:102E9000334AD36C23F04053616D0B43D3642368F2
:102EA00013F4000F07D02E4A536D23F44003D4F8D7
:102EB0008C100B435365636813F0010F19D16368DD
:102EC00013F0020F1ED1636813F0040F23D163685F
:102ED00013F0080F28D1636813F0100F2DD1636829
:102EE00013F0200F32D106B101263046F8BD2E4630
:102EF0009BE7002104F10800FFF7D0F90028DED09D
:102F00000646DCE7012104F10800FFF7C7F90028B5
:102F1000D9D00646D7E7022104F10800FFF7BEF931
:102F20000028D4D00646D2E7002104F12800FFF79C
:102F300039FA0028CFD00646CDE7012104F1280058
:102F4000FFF730FA0028CAD00646C8E7022104F18C
:102F50002800FFF727FA0028C5D00126C5E700BFE3
:102F60000044025808B5FFF753F9054B1B6AC3F339
:102F70000213044AD35C03F01F03D84008BD00BF0E
:102F8000004402584860040810B4794B9A6A9C6A5D
:102F9000C4F3053CD96AC1F30011DB6BC3F3CC0366
:102FA00001FB03F314F47C3F00F0DD8002F0030228
:102FB00007EE903AF8EE677A012A4BD0022A00F029
:102FC0009880002A40F0B280694B1B6813F0200FF4
:102FD00023D067490A68C2F3C102664BD34007EEAB
:102FE000103AF8EE476A07EE10CAB8EE476A86EE66
:102FF000867A8B6BC3F3080306EE903AF8EE666AA6
:103000009FED5D6A67EE867A76EEA77AF7EE006A44
:1030100077EEA67A27EE277A38E007EE10CAF8EEA8
:10302000476A9FED566A86EE267A514B9B6BC3F337
:10303000080306EE903AF8EE666A9FED4F6A67EE77
:10304000867A76EEA77AF7EE006A77EEA67A27EE12
:10305000277A1BE007EE10CAF8EE476A9FED486A30
:1030600086EE267A424B9B6BC3F3080306EE903A3A
:10307000F8EE666A9FED406A67EE867A76EEA77A8A
:10308000F7EE006A77EEA67A27EE277A384A936B36
:10309000C3F3462307EE903AF8EE677AF7EE006A3C
:1030A00077EEA67A87EE276ABCEEC66A80ED006AE4
:1030B000936BC3F3064307EE903AF8EE677A77EE28
:1030C000A67A87EE276ABCEEC66A80ED016A936B2A
:1030D000C3F3066307EE903AF8EE677A77EEA67AC6
:1030E000C7EE276AFCEEE66AC0ED026A5DF8044BA3
:1030F000704707EE10CAF8EE476A9FED226A86EE27
:10310000267A1B4B9B6BC3F3080306EE903AF8EE4E
:10311000666A9FED196A67EE867A76EEA77AF7EE11
:10312000006A77EEA67A27EE277AAFE707EE10CA95
:10313000F8EE476A9FED126A86EE267A0C4B9B6B7F
:10314000C3F3080306EE903AF8EE666A9FED0A6A4A
:1031500067EE867A76EEA77AF7EE006A77EEA67AC1
:1031600027EE277A92E70023036043608360BDE780
:10317000004402580090D003000000390024744C31
:103180000024744A0024F44A10B4794B9A6A9C6A69
:10319000C4F3055CD96AC1F300215B6CC3F3CC03B3
:1031A00001FB03F314F07C7F00F0DD8002F00302EA
:1031B00007EE903AF8EE677A012A4BD0022A00F027
:1031C0009880002A40F0B280694B1B6813F0200FF2
:1031D00023D067490A68C2F3C102664BD34007EEA9
:1031E000103AF8EE476A07EE10CAB8EE476A86EE64
:1031F000867A0B6CC3F3080306EE903AF8EE666A23
:103200009FED5D6A67EE867A76EEA77AF7EE006A42
:1032100077EEA67A27EE277A38E007EE10CAF8EEA6
:10322000476A9FED566A86EE267A514B1B6CC3F3B4
:10323000080306EE903AF8EE666A9FED4F6A67EE75
:10324000867A76EEA77AF7EE006A77EEA67A27EE10
:10325000277A1BE007EE10CAF8EE476A9FED486A2E
:1032600086EE267A424B1B6CC3F3080306EE903AB7
:10327000F8EE666A9FED406A67EE867A76EEA77A88
:10328000F7EE006A77EEA67A27EE277A384A136CB3
:10329000C3F3462307EE903AF8EE677AF7EE006A3A
:1032A00077EEA67A87EE276ABCEEC66A80ED006AE2
:1032B000136CC3F3064307EE903AF8EE677A77EEA5
:1032C000A67A87EE276ABCEEC66A80ED016A136CA7
:1032D000C3F3066307EE903AF8EE677A77EEA67AC4
:1032E000C7EE276AFCEEE66AC0ED026A5DF8044BA1
:1032F000704707EE10CAF8EE476A9FED226A86EE25
:10330000267A1B4B1B6CC3F3080306EE903AF8EECB
:10331000666A9FED196A67EE867A76EEA77AF7EE0F
:10332000006A77EEA67A27EE277AAFE707EE10CA93
:10333000F8EE476A9FED126A86EE267A0C4B1B6CFC
:10334000C3F3080306EE903AF8EE666A9FED0A6A48
:1033500067EE867A76EEA77AF7EE006A77EEA67ABF
:1033600027EE277A92E70023036043608360BDE77E
:10337000004402580090D003000000390024744C2F
:103380000024744A0024F44A10B4794B9A6A9C6A67
:10339000C4F3051CD96A01F001015B6BC3F3CC03D4
:1033A00001FB03F314F47C7F00F0DD8002F00302E4
:1033B00007EE903AF8EE677A012A4BD0022A00F025
:1033C0009880002A40F0B280694B1B6813F0200FF0
:1033D00023D067490A68C2F3C102664BD34007EEA7
:1033E000103AF8EE476A07EE10CAB8EE476A86EE62
:1033F000867A0B6BC3F3080306EE903AF8EE666A22
:103400009FED5D6A67EE867A76EEA77AF7EE006A40
:1034100077EEA67A27EE277A38E007EE10CAF8EEA4
:10342000476A9FED566A86EE267A514B1B6BC3F3B3
:10343000080306EE903AF8EE666A9FED4F6A67EE73
:10344000867A76EEA77AF7EE006A77EEA67A27EE0E
:10345000277A1BE007EE10CAF8EE476A9FED486A2C
:1034600086EE267A424B1B6BC3F3080306EE903AB6
:10347000F8EE666A9FED406A67EE867A76EEA77A86
:10348000F7EE006A77EEA67A27EE277A384A136BB2
:10349000C3F3462307EE903AF8EE677AF7EE006A38
:1034A00077EEA67A87EE276ABCEEC66A80ED006AE0
:1034B000136BC3F3064307EE903AF8EE677A77EEA4
:1034C000A67A87EE276ABCEEC66A80ED016A136BA6
:1034D000C3F3066307EE903AF8EE677A77EEA67AC2
:1034E000C7EE276AFCEEE66AC0ED026A5DF8044B9F
:1034F000704707EE10CAF8EE476A9FED226A86EE23
:10350000267A1B4B1B6BC3F3080306EE903AF8EECA
:10351000666A9FED196A67EE867A76EEA77AF7EE0D
:10352000006A77EEA67A27EE277AAFE707EE10CA91
:10353000F8EE476A9FED116A86EE267A0C4B1B6BFC
:10354000C3F3080306EE903AF8EE666A9FED0A6A46
:1035500067EE867A76EEA77AF7EE006A77EEA67ABD
:1035600027EE277A92E70023036043608360BDE77C
:10357000004402580090D003000000390024744C2D
:103580000024744A0024F44A00B58BB0A0F580737F
:103590000B432DD0A0F500730B437CD0A0F58063C6
:1035A0000B4300F0D080A0F500630B4300F02881AE
:1035B000A0F580530B4300F08781A0F500530B4327
:1035C00000F0DF81A0F500230B4300F02882A0F576
:1035D00080330B4300F06B82A0F580430B4300F077
:1035E0008D82A0F50040084300F0D68200200CE058
:1035F000934B1B6D03F00703042B00F2F782DFE807
:1036000003F007111B0325008E480BB05DF804FB87
:103610008B4B186810F00070F7D007A8FFF7B4FEC6
:103620000898F2E7864B186810F00060EDD004A807
:10363000FFF7AAFC0498E8E7814B186810F00050E7
:10364000E3D001A8FFF7A0FD0198DEE77C4AD36C28
:1036500003F04053126812F0040F07D033B9784BCF
:103660001B68C3F3C1037848D840CEE7744A126898
:1036700012F4807F03D0B3F1805F00F0B982704A0A
:10368000126812F4003F00F0B582B3F1005F00F061
:10369000B3820020B9E76A4B1B6D03F4E073802B03
:1036A00031D015D9C02B00F0A982B3F5807F1ED18F
:1036B000634AD36C03F04053126812F0040F2DD00C
:1036C00063BB5F4B1B68C3F3C1035F48D8409CE7F3
:1036D0007BB1402B09D15A4B186810F0006094D090
:1036E00004A8FFF751FC04988FE700208DE7002025
:1036F0008BE7534B186810F0007086D007A8FFF7CF
:1037000043FE089881E74E4B186810F000503FF4D4
:103710007CAF01A8FFF738FD019876E7484A1268A8
:1037200012F4807F03D0B3F1805F00F06982444AD5
:10373000126812F4003F00F06582B3F1005F00F000
:103740006382002061E73E4B9B6D03F46003B3F599
:10375000800F35D016D9B3F5C00F00F05782B3F5FE
:10376000000F20D1364AD36C03F04053126812F098
:10377000040F30D07BBB324B1B68C3F3C10332480C
:10378000D84042E78BB1B3F5001F0AD12C4B186823
:1037900010F000603FF439AF04A8FFF7F5FB049880
:1037A00033E7002031E700202FE7254B186810F0A1
:1037B00000703FF42AAF07A8FFF7E6FD089824E75A
:1037C0001F4B186810F000503FF41FAF01A8FFF71F
:1037D000DBFC019819E71A4A126812F4807F03D0C3
:1037E000B3F1805F00F01482154A126812F4003FB2
:1037F00000F01082B3F1005F00F00E82002004E7B9
:103800000F4B9B6D03F0E063B3F1007F3CD01DD9FB
:10381000B3F1407F00F00282B3F1806F27D1084AF4
:10382000D36C03F04053126812F0040F37D0002B12
:1038300035D1034B1B68C3F3C1030348D840E4E60A
:10384000004402580080BB000090D0038BB1B3F15C
:10385000807F0AD19A4B186810F000603FF4D5AE13
:1038600004A8FFF791FB0498CFE60020CDE60020E6
:10387000CBE6934B186810F000703FF4C6AE07A873
:10388000FFF782FD0898C0E68D4B186810F00050D5
:103890003FF4BBAE01A8FFF777FC0198B5E6884A74
:1038A000126812F4807F03D0B3F1805F00F0B8811A
:1038B000834A126812F4003F00F0B481B3F1005F54
:1038C00000F0B2810020A0E67D4B1B6D03F4E043C5
:1038D000B3F5005F35D016D9B3F5405F00F0A6818F
:1038E000B3F5804F20D1764AD36C03F04053126871
:1038F00012F0040F30D07BBB714B1B68C3F3C103C4
:103900007048D84081E68BB1B3F5805F0AD16C4B2B
:10391000186810F000603FF478AE04A8FFF734FB9D
:10392000049872E6002070E600206EE6644B18688A
:1039300010F000703FF469AE07A8FFF725FD089866
:1039400063E65F4B186810F000503FF45EAE01A8CC
:10395000FFF71AFC019858E6594A126812F4807F62
:1039600003D0B3F1805F00F06381554A126812F40E
:10397000003F00F05F81B3F1005F00F05D81002047
:1039800043E64F4B1B6D03F4E023B3F5403F32D0C9
:103990000BD8B3F5803F18D0B3F5003F20D013B952
:1039A000FEF758FC31E600202FE6B3F5802F2ED02D
:1039B000B3F5A02F07D1424B186810F400303FF444
:1039C00024AE414821E600201FE63D4B186810F068
:1039D00000603FF41AAE04A8FFF7D6FA059814E683
:1039E000374B186810F000503FF40FAE01A8FFF7F6
:1039F000CBFB029809E6324B186810F004003FF444
:103A000004AE1B68C3F3C1032E48D840FDE52C4B20
:103A1000186810F480703FF4F8AD2C48F5E5284B99
:103A20009B6D03F44033B3F5803F10D0B3F5003FF6
:103A300018D0002B40F00281214B186810F0006074
:103A40003FF4E3AD04A8FFF79FFA0498DDE51C4BB3
:103A5000186810F000503FF4D8AD01A8FFF794FBB0
:103A60000398D2E5164AD36C03F04053126812F063
:103A7000040F07D033B9124B1B68C3F3C1031148BD
:103A8000D840C2E50E4A126812F4807F03D0B3F129
:103A9000805F00F0D5800A4A126812F4003F00F0FF
:103AA000D180B3F1005F00F0CF800020ADE5044B82
:103AB000DB6C13F480330BD0ABB90020A5E500BF5D
:103AC000004402580090D00300127A0000093D0023
:103AD0005F4B186810F000703FF497AD07A8FFF730
:103AE00053FC089891E55A4B186810F000603FF4B9
:103AF0008CAD04A8FFF748FA069886E5544B9B6DF9
:103B000003F0E043B3F1405F32D00BD8B3F1805FF4
:103B100018D0B3F1005F20D013B9FFF723FA74E592
:103B2000002072E5B3F1804F2ED0B3F1A04F07D142
:103B3000474B186810F400303FF467AD454864E522
:103B4000002062E5424B186810F000603FF45DAD64
:103B500004A8FFF719FA059857E53D4B186810F0CF
:103B600000503FF452AD01A8FFF70EFB02984CE560
:103B7000374B186810F004003FF447AD1B68C3F3DF
:103B8000C1033548D84040E5314B186810F48070C7
:103B90003FF43BAD314838E52D4B1B6D03F04053EE
:103BA000B3F1805F0CD0B3F1005F14D0002B4DD186
:103BB000274B186810F400303FF427AD254824E562
:103BC000234B186810F000703FF41FAD07A8FFF7F3
:103BD000DBFB089819E51E4B186810F000603FF4F5
:103BE00014AD04A8FFF7D0F905980EE500200CE508
:103BF0001A480AE5002008E5164806E5184804E5D5
:103C0000164802E5002000E51248FEE41448FCE4F2
:103C10001248FAE40020F8E40E48F6E41048F4E410
:103C20000E48F2E40020F0E40A48EEE40C48ECE42C
:103C30000A48EAE40020E8E40648E6E40020E4E478
:103C40000648E2E40020E0E40248DEE40020DCE490
:103C50000044025800127A000090D00300093D0091
:103C60000080BB00F0B583B000236FE085685E0084
:103C70000324B44025EA0405CC68B4402C43846096
:103C8000456825EA0C054C68C4F300149C402C439D
:103C900044606EE08C68012C70D17EE0DD08083550
:103CA00050F8254003F0070C4FEA8C0C4FF00F0E34
:103CB0000EFA0CFE24EA0E0E0C6904FA0CF444EA27
:103CC0000E0440F825406EE0092400E0002404FAC8
:103CD0000EF42C430CF1020C6A4D45F82C404FF0C9
:103CE000B0442568D44325EA02064F6817F4801FC4
:103CF00001D042EA05064FF0B0452E606D6804EA37
:103D000005064F6817F4001F01D042EA05064FF080
:103D1000B0456E60D5F8845004EA05064F6817F484
:103D2000003F01D042EA05064FF0B045C5F8846077
:103D3000D5F880502C404E6816F4803F01D042EAFE
:103D400005044FF0B042C2F8804001330A6832FAED
:103D500003F400F095804FF0010C0CFA03FC1CEA10
:103D60000202F2D04C6804F00304013C012C7FF6FF
:103D70007DAF4C6804F00304032C8BD0C4684FEA79
:103D8000430E4FF0030C0CFA0EFC24EA0C0C8C686A
:103D900004FA0EF444EA0C04C4604C6804F0030412
:103DA000022C3FF47BAF04684FEA430E4FF0030C44
:103DB0000CFA0EFC24EA0C0C4C6804F0030404FA20
:103DC0000EF444EA0C0404604C6814F4403FBCD088
:103DD0002D4CD4F8F45045F00205C4F8F450D4F852
:103DE000F44004F002040194019C4FEA930C0CF19E
:103DF0000205244C54F8255003F0030E4FEA8E0EB2
:103E00000F2404FA0EF425EA0405204CA0423FF4E6
:103E10005DAF04F58064A04222D004F58064A04226
:103E200020D004F58064A0421ED004F58064A04236
:103E30001CD004F58064A0421AD004F58064A0422E
:103E400018D004F58064A04216D004F58064A04226
:103E500014D004F58064A0423FF436AF0A2436E75C
:103E6000012434E7022432E7032430E704242EE758
:103E700005242CE706242AE7072428E7082426E758
:103E800003B0F0BD0004005800440258000002587E
:103E90000AB181617047090481617047134BDB6887
:103EA00013F0040F07D1114BDB6803F007038342C3
:103EB0001AD00120704710B50C4AD36823F00703CD
:103EC0000343D36000F0F0F80446084B5B6813F43A
:103ED000005F07D100F0E8F8001BB0F57A7FF4D955
:103EE000012000E0002010BD00207047004802586B
:103EF000002807DB00F01F02400901239340024A1B
:103F000042F82030704700BF00E100E0002804DBE9
:103F10000901C9B2044B1954704700F00F000901A0
:103F2000C9B2024B1954704700E400E014ED00E000
:103F300000B500F00700C0F1070CBCF1040F28BF6A
:103F40004FF0040C031D062B0FD9C31E4FF0FF3E8C
:103F50000EFA0CF021EA000199400EFA03FE22EA63
:103F60000E0241EA02005DF804FB0023EEE70000C8
:103F70000649CB6823F4E0631B041B0C000200F429
:103F8000E0600343024A1A43CA60704700ED00E054
:103F90000000FA0510B50446054BD868C0F30220AE
:103FA000FFF7C6FF01462046FFF7B0FF10BD00BF78
:103FB00000ED00E008B5FFF79BFF08BD0138B0F148
:103FC000807F0BD24FF0E0235861054AF02182F840
:103FD00023100020986107221A6170470120704762
:103FE00000ED00E0104B1B780BB90120704710B5B5
:103FF00004464FF47A70B0FBF3F30C4A1068B0FB40
:10400000F3F0FFF7DBFF68B90F2C01D901200AE0BC
:10401000002221464FF0FF30FFF7BCFF044B1C602D
:10402000002000E0012010BD04000020100000204E
:104030000800002010B50320FFF79AFFFDF7A2FE4D
:104040000F498B69C3F303230E4AD35C03F01F03AC
:10405000D8408B6903F00F03D35C03F01F0320FAF1
:1040600003F3094A1360094B18600020FFF7BAFFF9
:1040700010B10124204610BD0446FCF72DFCF9E7E1
:1040800000440258486004080C0000201000002082
:10409000034B1B78034A11680B441360704700BF41
:1040A00004000020FC030020014B1868704700BF8B
:1040B000FC03002038B50446FFF7F6FF0546B4F1CF
:1040C000FF3F02D0044B1B781C44FFF7EDFF401B61
:1040D000A042FAD338BD00BF04000020014B18688D
:1040E000000C70470010005C03689A6912F0020F20
:1040F00001D000229A6203689A6912F0010F03D17D
:104100009A6942F001029A61704710B4019CC1F3B0
:10411000090141EA02411943214321F000410268AB
:104120005368640D04F4806444F07F7444F458349C
:1041300044F47F7444F0030423EA04030B43536004
:104140005DF8044B70472DE9F041044603689E6911
:1041500016F010067ED00D4690461022DA61002639
:1041600037462368986910F0200F32D18FBBB5F124
:10417000FF3FF6D0FFF798FFA0EB0800A84201D858
:10418000002DEED121684A6802F4804294F8423052
:10419000DBB2886910F4004F04D0203B18BF012324
:1041A00002B973B923689B6913F0200FD9D1FFF7C7
:1041B0007BFFA0EB08001928F4D946F02006012760
:1041C000CFE74B6843F480434B60FFF76DFF8046B9
:1041D000E8E70FB92022DA6146F0040601252268DB
:1041E000936913F4807F05D046F001064FF4807187
:1041F000D161012513F4806F06D046F008062268CD
:104200004FF48061D161012513F4007F24D046F082
:10421000020623684FF40072DA6101252046FFF799
:1042200063FF2268536823F0FF7323F48B3323F476
:10423000FF7323F001035360636C334363642023F3
:1042400084F84130002384F8423084F84030284616
:10425000BDE8F0810025C2E7002DF8D0DEE770B59B
:1042600004460D46164623689B6913F0020F22D1BF
:10427000324629462046FFF766FFF0B9B5F1FF3F09
:10428000F1D0FFF711FF801BA84201D8002DEAD121
:1042900023689B6913F0020FE5D1636C43F02003A0
:1042A0006364202384F84130002384F8423084F88A
:1042B0004030012000E0002070BD0120FCE72DE926
:1042C000F8430546884617461E46DDF820902B68C1
:1042D0009C6938EA04040CBF01230023BB4227D1A8
:1042E0004A4631462846FFF72EFF20BBB6F1FF3F76
:1042F000EDD0FFF7D9FEA0EB0900B04201D8002EA7
:10430000E5D12B689B6938EA03030CBF0123002326
:10431000BB42DCD16B6C43F020036B64202385F837
:104320004130002385F8423085F84030012000E01C
:104330000020BDE8F8830120FBE700002DE9F041F3
:1043400082B0044690461D46089E099F194B009373
:104350004FF08073EAB2FFF7D8FE3A463146204666
:10436000FFF77DFFF8B9012D0ED123685FFA88F2BF
:104370009A6200973346002280212046FFF79FFF74
:10438000A8B902B0BDE8F08123684FEA18229A620A
:104390003A4631462046FFF762FF30B923685FFA9C
:1043A00088F29A62E5E70120EBE70120E9E70120C6
:1043B000E7E700BF002000802DE9F04182B004460D
:1043C00090461D46089E099F184B00930023EAB2B1
:1043D000FFF79BFE3A4631462046FFF740FFF8B90B
:1043E000012D0ED123685FFA88F29A620097334656
:1043F000002240212046FFF762FFA8B902B0BDE8C5
:10440000F08123684FEA18229A623A4631462046E4
:10441000FFF725FF30B923685FFA88F29A62E5E773
:104420000120EBE70120E9E70120E7E70020008019
:1044300070B504460D46164604E023689B6913F0E8
:10444000200F12D023689B6913F0200F1BD1324636
:1044500029462046FFF777FEB8B9FFF725FE801BF7
:10446000A842EAD8002DEDD1E7E7636C43F02003C2
:104470006364202384F84130002384F8423084F8B8
:104480004030012000E0002070BD0120FCE700006A
:1044900000285DD010B5044690F84130002B46D07E
:1044A000242384F841302268136823F00103136049
:1044B0006368226823F0706313612268936823F4B1
:1044C00000439360E368012B36D0A368226843F46D
:1044D00004439360E368022B34D02268536823F4CA
:1044E00000635360226851681A4B0B435360226883
:1044F000D36823F40043D360236962691343A1693D
:10450000226843EA0123D360E369216A22680B43EE
:1045100013602268136843F0010313600020606495
:10452000202384F84130206384F8420010BD80F8D5
:104530004030FCF739FAB3E7A368226843F400433C
:104540009360C7E72268536843F400635360C9E788
:1045500001207047008000022DE9F04F83B00D4626
:10456000BDF834A00E9F90F84110202940F0BC8087
:104570000446914698460C9BBAF1000F18BF002BD9
:1045800016D090F84030012B00F0B2804FF0010BB4
:1045900080F840B0FFF788FD0646009019235A4680
:1045A0004FF400412046FFF78AFE30B101209CE025
:1045B0004FF400734364012097E0212384F84130D5
:1045C000402384F84230002363640C9A6262A4F8AA
:1045D0002AA063630196009743464A46294620462F
:1045E000FFF7ACFE70B9638D9BB2FF2B0FD9FF2292
:1045F0002285002300934FF0807329462046FFF761
:1046000084FD21E0002384F8403058466DE0628D3F
:1046100092B22285002300934FF00073D2B2294654
:104620002046FFF772FD0FE0628D92B222850023D3
:1046300000934FF00073D2B229462046FFF765FD84
:10464000638D9BB2002B33D0324639462046FFF7AC
:1046500006FE00284ED1626A236812789A62636A65
:1046600001336362638D9BB2013B9BB26385238DF3
:10467000013B9BB22385628D92B2002AE0D0002BD1
:10468000DED100963B46002280212046FFF717FE30
:1046900090BB638D9BB2FF2BC6D9FF2222850023DE
:1046A00000934FF0807329462046FFF72EFDC7E7A1
:1046B000324639462046FFF7BBFEF8B92368202270
:1046C000DA6121684B6823F0FF7323F48B3323F402
:1046D000FF7323F001034B6084F84120002384F82A
:1046E000423084F8403000E0022003B0BDE8F08F93
:1046F0000220FAE70120F8E70120F6E70120F4E7BD
:104700002DE9F04F83B00D46BDF834A00E9F90F810
:104710004110202940F0BD800446914698460C9BEC
:10472000BAF1000F18BF002B16D090F84030012BC3
:1047300000F0B3804FF0010B80F840B0FFF7B4FCFD
:104740000646009019235A464FF400412046FFF7D1
:10475000B6FD30B101209DE04FF4007343640120A9
:1047600098E0222384F84130402384F8423000232B
:1047700063640C9A6262A4F82AA0636301960097AE
:1047800043464A4629462046FFF716FE70B9638D18
:104790009BB2FF2B0FD9FF222285444B00934FF091
:1047A000807329462046FFF7B0FC21E0002384F8FF
:1047B000403058466EE0628D92B222853B4B0093AA
:1047C0004FF00073D2B229462046FFF79EFC0FE05F
:1047D000628D92B22285002300934FF00073D2B213
:1047E00029462046FFF791FC638D9BB2002B34D005
:1047F00000963B46002204212046FFF760FD00287A
:104800004DD123685A6A636A1A70636A013363621E
:10481000228D013A92B22285638D9BB2013B9BB2FD
:104820006385638D9BB2002BDED0002ADCD100961D
:104830003B4680212046FFF742FD90BB638D9BB233
:10484000FF2BC5D9FF222285002300934FF08073F0
:1048500029462046FFF759FCC6E73246394620462E
:10486000FFF7E6FDF8B923682022DA6121684B687A
:1048700023F0FF7323F48B3323F4FF7323F001033E
:104880004B6084F84120002384F8423084F84030A3
:1048900000E0022003B0BDE8F08F0220FAE701201B
:1048A000F8E70120F6E70120F4E700BF00240080CC
:1048B000034690F84120202A23D190F84020012A75
:1048C00021D0012280F84020242280F84120006875
:1048D000026822F0010202601868026822F4805225
:1048E0000260186802680A43026019680A6842F0A8
:1048F00001020A60202283F84120002083F8400052
:1049000070470220704702207047034690F841200C
:10491000202A21D190F84020012A1FD0012280F8BE
:104920004020242280F841200068026822F0010221
:1049300002601868026822F4706242EA0122026092
:1049400019680A6842F001020A60202283F84120B7
:10495000002083F840007047022070470220704713
:1049600018B121B942600846704701207047012004
:10497000704710B1016000207047012070470000AF
:1049800010B50368C3F3014203F01F0301219940EE
:104990001301044A9C580C4203D09950436803B158
:1049A000984710BD8800005830B4036A046A24F0A8
:1049B00001040462114D124CA04218BFA8420DD050
:1049C00004F58044A04214BF0024012405F580456D
:1049D000A84203D014B90B4CA04203D1046A24F0BE
:1049E00004040462846924F0F00C4CEA021223F0FF
:1049F0000A0319438261016230BC70470000014024
:104A0000000401400048014030B4036A046A24F005
:104A1000100404620B4D0C4CA04218BFA84203D1F5
:104A2000046A24F040040462846924F4704C4CEA63
:104A3000023223F0A00343EA01118261016230BC1B
:104A4000704700BF00000140000401408268034B32
:104A500013400B4343F00703836070478FFFCFFF82
:104A600090F83D30012B35D1022380F83D300368AA
:104A70001A4AB3F1804F18BF93421DD0A2F57C4271
:104A8000934219D002F58062934215D002F58062FC
:104A9000934211D002F5784293420DD0A2F56C42B8
:104AA000934209D002F59432934205D01A6842F03D
:104AB00001021A60002070479968094A0A40062AD4
:104AC00018BFB2F5803F07D01A6842F001021A60A1
:104AD000002070470120704700207047000001400F
:104AE000070001000268116A084B0B4043B9116AC4
:104AF00040F24443194203D1136823F001031360C9
:104B0000012380F83D300020704700BF11111100D3
:104B100070B40368394A904214BF00220122B0F1F8
:104B2000804F14BF144642F00104ACB9344DA84282
:104B300014BF00250125334EB0420DD065B905F1F3
:104B4000804505F58235A84214BF0025012506F5EC
:104B50000066B04200D01DB123F070034D682B43B6
:104B600014BB274CA04214BF00240124254DA842A9
:104B70001AD0CCB904F1804404F58234A04214BFA9
:104B80000024012405F50065A8420DD064B91E4C2F
:104B9000A04214BF0024012405F59A35A84203D091
:104BA00014B91A4CA04203D123F44073CC682343B8
:104BB00023F080034C6923438C68C4620C688462D0
:104BC000134CA04208BF42F0010262B90E4A904263
:104BD00014BF0022012204F57054A04203D012B980
:104BE0000A4A904201D10A690263026842F0040253
:104BF000026001224261036070BC70470000014006
:104C0000000800400004004000440140004801400A
:104C10000004014060B310B5044690F83D3013B372
:104C2000022384F83D30214651F8040BFFF770FF52
:104C3000012384F8483084F83E3084F83F3084F80B
:104C4000403084F8413084F8423084F8433084F8AE
:104C5000443084F8453084F8463084F8473084F88E
:104C60003D30002010BD80F83C30FBF7E9FED7E76F
:104C70000120704710B4846824F47F4C42EA032278
:104C80000A4342EA0C0282605DF8044B7047000060
:104C900090F83C30012B00F08F8010B504460123C2
:104CA00080F83C30022380F83D3002689068434B26
:104CB000034093600B68702B55D031D8502B6CD0CB
:104CC0001FD8402B0AD1CA6849682068FFF76CFEDC
:104CD00040212068FFF7BAFE002029E068D8202B89
:104CE00003D00AD80BB1102B05D119462068FFF765
:104CF000ADFE00201CE001201AE0302BF5D0012091
:104D000016E0602B0AD1CA6849682068FFF77CFE6C
:104D100060212068FFF79AFE002009E0012007E0EB
:104D2000B3F5005F2CD00AD8B3F5805F42D10020E4
:104D3000012384F83D30002384F83C3010BD204A24
:104D40009342D2D007D8B3F5801FCED0B3F1101F55
:104D5000CBD00120ECE71B4A9342C6D010329342DD
:104D6000C3D00120E4E7CB684A6889682068FFF770
:104D700081FF2268936843F0770393600020D7E7B0
:104D8000CB684A6889682068FFF774FF22689368D7
:104D900043F4804393600020CAE7CA6849682068EA
:104DA000FFF702FE50212068FFF750FE0020BFE70A
:104DB0000120BDE70120BBE7022070478800CEFF3D
:104DC000200010003000100090F83C20012A45D04F
:104DD00070B40346012280F83C20022280F83D2076
:104DE0000268506894681E4E1E4DAA4218BFB24217
:104DF00003D120F470004D68284320F070000D6846
:104E0000284350601A681648B2F1804F18BF82429A
:104E100017D0A0F57C40824213D000F5806082421A
:104E20000FD000F5806082420BD000F578408242BE
:104E300007D0A0F56C40824203D000F59430824246
:104E400004D124F08004896821439160012283F811
:104E50003D20002083F83C0070BC70470220704762
:104E60000000014000040140026852E8003F23F4C2
:104E7000907342E800310029F6D1026802F108037C
:104E800053E8001F0D4B0B40083242E80031002967
:104E9000F3D1C36E012B06D02023C0F88C30002341
:104EA000C36643677047026852E8003F23F010036F
:104EB00042E800310029F6D1EEE700BFFEFFFFEF28
:104EC0007047000070B586B00446836802691343DA
:104ED00042691343C269134301680868884A024063
:104EE0001A430A602268536823F44053E1680B4375
:104EF0005360A1692268834B9A4201D0236A194307
:104F00009068814B03400B4393602268D36A23F07F
:104F10000F03616A0B43D36223687C4A934221D01A
:104F20007B4A934200F08C807A4A934200F0A28040
:104F3000794A934200F0B580784A934200F0C880E5
:104F4000774A934200F0F480764A934200F0198148
:104F5000754A934200F02C816A4A934200F03F81E7
:104F600080223BE0714A526D02F03802282A34D880
:104F7000DFE812F029003300330033003300330040
:104F8000330033004D01330033003300330033006E
:104F9000330033002B003300330033003300330081
:104FA000330033002D00330033003300330033006F
:104FB000330033002F00330033003300330033005D
:104FC000330033003100012208E0082206E01022FD
:104FD00004E0202202E0402200E0802249498B4286
:104FE00000F02781E069B0F5004F00F0A781202A8A
:104FF00000F2FF81202A00F24982DFE812F0160257
:105000001C02470247021F024702470247022402CE
:105010004702470247024702470247024702290266
:105020004702470247024702470247024702470238
:10503000470247024702470247024702470235023A
:105040003A4A526D02F00702052A11D8DFE812F041
:105050000600E10008000A000C000E000022BDE777
:105060000822BBE71022B9E72022B7E74022B5E7C4
:105070008022B3E72D4A526D02F00702052A0ED8AE
:10508000DFE802F003C90507090B0022A6E70822A2
:10509000A4E71022A2E72022A0E740229EE7802278
:1050A0009CE7224A526D02F00702052A0ED8DFE87B
:1050B00002F003B40507090B00228FE708228DE7F1
:1050C00010228BE7202289E7402287E7802285E7AC
:1050D000164A526D02F00702052A0ED8DFE802F0E8
:1050E000039F0507090B002278E7082276E71022C4
:1050F00074E7202272E7402270E780226EE700BF4B
:10510000F369FFCF000C0058FFF4FF1100100140BD
:105110000044004000480040004C00400050004067
:105120000014014000780040007C00400044025818
:105130007D4A526D02F03802282A20D8DFE802F0BA
:10514000151F1F1F1F1F1F1F711F1F1F1F1F1F1F27
:10515000171F1F1F1F1F1F1F191F1F1F1F1F1F1F6D
:105160001B1F1F1F1F1F1F1F1D00012236E70822C4
:1051700034E7102232E7202230E740222EE7802257
:105180002CE7694A526D02F00702052A0ED8DFE8C3
:1051900002F0034A0507090B00221FE708221DE75A
:1051A00010221BE7202219E7402217E7802215E78B
:1051B0005D4A526D02F00702052A0ED8DFE802F0C0
:1051C00003350507090B002208E7082206E710222D
:1051D00004E7202202E7402200E78022FEE602F5F3
:1051E0000E32926D02F00702052A0ED8DFE802F0B7
:1051F000031F0507090B0222F0E60822EEE6102243
:10520000ECE62022EAE64022E8E68022E6E60422F6
:10521000E4E60422E2E60422E0E60422DEE60422DA
:10522000DCE60422DAE60422D8E60422D6E60422EA
:10523000D4E6202A27D8022AC0F01A81023A1E2A70
:1052400000F21881DFE812F0500016015600160136
:10525000160116015B001601160116011601160152
:10526000160116016000160116011601160116013D
:105270001601160116011601160116011601160176
:10528000160116016C00402A2CD14FF40040626ACE
:10529000264B33F81220B0FBF2F3656805EB4501AD
:1052A000994200F2E980B3EB053F00F2E780002667
:1052B00033463146FBF79CF8090241EA10610002CF
:1052C0006B08C0182A46334641F10001FBF790F8FD
:1052D000A0F54072164B9A4200F2D2802368D86043
:1052E0003046D4E00120D2E0FDF73CFE0028CED1CC
:1052F0000020CCE003A8FDF747FE0498F6E76846D7
:10530000FDF742FF0198F1E7074B1B6813F0200FF0
:1053100008D0054B1B68C3F3C1030648D840B6E765
:105320000548B4E70348B2E7004402583060040877
:10533000FFFC0F000090D00300093D00202A15D883
:10534000202A00F29F80DFE802F031379D9D3A9DD0
:105350009D9D3F9D9D9D9D9D9D9D449D9D9D9D9D34
:105360009D9D9D9D9D9D9D9D9D9D5000402A1BD175
:10537000626A4D4B33F81230B0FBF3F062685308A9
:1053800003EB4003B3FBF2F3A3F110014FF6EF720E
:10539000914279D89AB222F00F02C3F34203134329
:1053A0002268D360002072E0012070E0FCF752FF19
:1053B0000028DDD100206AE0FCF75EFFF8E703A8D3
:1053C000FDF7E2FD0498F3E76846FDF7DDFE01987E
:1053D000EEE7364B1B6813F0200F08D0334B1B68E9
:1053E000C3F3C1033248D840C2E73248C0E730486F
:1053F000BEE7402A17D14FF40040626A2A4B33F8C7
:105400001230B0FBF3F0636800EB5300B0FBF3F035
:10541000A0F110024FF6EF739A4242D8236880B28F
:10542000D860002033E0012031E0FCF713FF0028B2
:10543000E3D100202BE0FCF71FFFF8E703A8FDF7FE
:10544000A3FD0498F3E76846FDF79EFE0198EEE79A
:10545000164B1B6813F0200F08D0144B1B68C3F3C6
:10546000C1031348D840C8E71248C6E71048C4E74C
:1054700001200CE001200AE0012008E0012006E004
:10548000012004E0012002E0012000E001200123CE
:10549000A4F86A30A4F8683000236367A36706B0F5
:1054A00070BD0120F3E700BF3060040800440258DB
:1054B0000090D00300093D00836A13F0080F06D066
:1054C0000268536823F40043816B0B435360836A83
:1054D00013F0010F06D00268536823F40033C16A49
:1054E0000B435360836A13F0020F06D002685368BF
:1054F00023F48033016B0B435360836A13F0040F72
:1055000006D00268536823F48023416B0B43536039
:10551000836A13F0100F06D00268936823F4805357
:10552000C16B0B439360836A13F0200F06D00268AF
:10553000936823F40053016C0B439360836A13F068
:10554000400F0AD00268536823F48013416C0B4368
:105550005360436CB3F5801F0BD0836A13F0800F48
:1055600006D00268536823F40023C16C0B435360D8
:1055700070470268536823F4C003816C0B43536087
:10558000EBE72DE9F84305460E4617469946DDF848
:1055900020802B68DC6936EA04040CBF0124002457
:1055A000BC423AD1B8F1FF3FF3D0FEF77DFDA0EB4E
:1055B0000900404534D8B8F1000F33D02B681A6881
:1055C00012F0040FE5D0B6F1400218BF0122802E80
:1055D000DFD0002ADDD0DA6912F0080F11D1DA69C4
:1055E00012F4006FD5D04FF400621A622846FFF71C
:1055F0003BFC2023C5F89030002385F8843003203D
:105600000CE008241C622846FFF72EFCC5F89040E9
:10561000002385F88430012000E00020BDE8F883F5
:105620000320FBE70320F9E72DE9F04182B01E4695
:10563000D0F88830202B61D104460D469046002AD0
:1056400018BF002901D1012059E00023C0F8903093
:105650002123C0F88830FEF727FD0746A4F85480C0
:10566000A4F85680A368B3F5805F02D04FF000081D
:105670001CE0236973B34FF0000817E02023C4F83F
:10568000883003203BE038F8023B2268C3F308036C
:105690009362D4F8883003F02103212B32D1B4F87F
:1056A000562092B2013A92B2A4F85620B4F856307D
:1056B0009BB293B100963B46002280212046FFF723
:1056C00060FF0028DAD1002DDDD015F8012B23680A
:1056D0009A62DEE7A8460025E8E700963B460022EE
:1056E00040212046FFF74DFF18B92023C4F8883029
:1056F00005E02023C4F88830032000E0022002B037
:10570000BDE8F0810120FAE730B583B004460023FC
:10571000C0F89030FEF7C8FC05462268126812F007
:10572000080F10D123681B6813F0040F28D1202321
:10573000C4F88830C4F88C300020E066206784F814
:10574000840003B030BD6FF07E4300930346002217
:105750004FF400112046FFF714FF0028E2D0226822
:1057600052E8003F23F0800342E800310029F6D1DF
:105770002023C4F88830002384F884300320E0E735
:105780006FF07E4300932B4600224FF480012046A9
:10579000FFF7F7FE0028CAD0226852E8003F23F442
:1057A000907342E800310029F6D1226802F1080323
:1057B00053E8003F23F00103083242E8003100299A
:1057C000F3D12023C4F88C30002384F884300320E4
:1057D000B7E778B310B50446D0F888300BB324236C
:1057E000C4F888302268136823F001031360A36AA9
:1057F000E3B92046FFF766FB012811D02268536801
:1058000023F4904353602268936823F02A03936043
:105810002268136843F0010313602046FFF774FF0A
:1058200010BD80F88430FFF74BFBD8E72046FFF728
:1058300043FEDEE701207047314AD2F8883043F456
:105840007003C2F888302F4B1B6803F00F03062B40
:1058500006D82C4A136823F00F0343F007031360A4
:10586000294B1A6842F001021A6000221A61196875
:10587000264A0A401A60234B1B6813F0080F06D013
:10588000204A136823F00F0343F0070313601E4BF5
:1058900000229A61DA611A621D4999621D49D96232
:1058A0001D4919635A639963DA6319645A64196864
:1058B00021F4802119601A66184B1B686FF30F03DF
:1058C000B3F1005F03D2164B0122C3F808210E4B3F
:1058D000D3F8D43013F4805F10D10B4BD3F8D4201D
:1058E00042F48052C3F8D4200E4A43F2D201116030
:1058F000D3F8D42022F48052C3F8D420704700BFDC
:1059000000ED00E000200052004402587FEDF6EA6E
:10591000000202020000FF01800201010010005C91
:105920000080005100400052044BDA6842F002024D
:10593000DA605A689204FCD5704700BF00480258EC
:1059400010B503460C4A0D490D48006840B10C489B
:1059500000680344521A934206D8094A136010BDE6
:105960000748084C0460F2E73DF02AFF0C2303606F
:105970004FF0FF30F3E700BF0000022000040000FA
:1059800000040020700701200120704708B53DF099
:1059900017FF162303604FF0FF3008BD08B54FF026
:1059A000FF31FFF7F3FFFEE770B50C461646002502
:1059B00006E0AFF30080214601F8010B01350C46EB
:1059C000B542F6DB304670BD70B50C461646002574
:1059D00004E014F8010BFBF769F90135B542F8DB77
:1059E000304670BD4FF0FF3070474FF400534B60AE
:1059F0000020704701207047002070470A4B4FF489
:105A000000029A614FF080729A6140F47F00074A69
:105A100090614FF000729A614FF400729A614FF4F6
:105A200080729A61704700BF00080258000C02584B
:105A3000094B80229A614FF080729A6140F47F0096
:105A4000064A90614FF000729A614FF400729A61B9
:105A50004FF480729A61704700080258000C025897
:105A60002DE9F0410F4615461E46DDF8188000244A
:105A700003E0385DFFF7C2FF0134AC42F9D30024E4
:105A800003E0305DFFF7D4FF01344445F9D3BDE8AE
:105A9000F0812DE9F8430746884616461D46DDF895
:105AA0002090002404E018F80400FFF7A7FF013459
:105AB000B442F8D3002407E0631CE85CFFF7B8FFAA
:105AC000285DFFF7B5FF02344C45F5D338463AF070
:105AD0003FF8BDE8F88392FAA2F3B3FA83F3C380E8
