:020000040800F2
:10000000000002202D670408891000088B100008EA
:100010008D1000088F1000089110000800000000EB
:100020000000000000000000000000009310000825
:1000300095100008000000009710000899100008B3
:1000400081670408816704088167040881670408E0
:1000500081670408816704088167040881670408D0
:1000600081670408816704088167040881670408C0
:1000700081670408816704088167040881670408B0
:1000800081670408816704088167040881670408A0
:100090008167040881670408816704088167040890
:1000A0008167040881670408816704088167040880
:1000B0008167040881670408816704088167040870
:1000C0008167040881670408816704088167040860
:1000D0008167040881670408816704088167040850
:1000E000A11000088167040800000000816704086F
:1000F0008167040881670408816704088167040830
:10010000816704088167040881670408816704081F
:10011000816704088167040881670408816704080F
:1001200081670408816704088167040881670408FF
:1001300081670408816704088167040881670408EF
:1001400000000000000000000000000000000000AF
:1001500081670408816704088167040881670408CF
:1001600081670408816704088167040881670408BF
:1001700081670408816704088167040881670408AF
:10018000816704088167040881670408816704089F
:10019000816704088167040881670408816704088F
:1001A000816704088167040881670408816704087F
:1001B000816704088167040881670408816704086F
:1001C000816704088167040881670408816704085F
:1001D000816704088167040881670408816704084F
:1001E000816704088167040881670408816704083F
:1001F000816704088167040881670408816704082F
:10020000816704088167040881670408816704081E
:10021000816704088167040881670408816704080E
:1002200081670408816704088167040800000000F2
:1002300081670408816704080000000081670408E2
:1002400081670408816704088167040881670408DE
:1002500081670408816704088167040881670408CE
:1002600081670408816704088167040881670408BE
:1002700081670408816704088167040800000000A2
:100280008167040881670408816704080000000092
:08029000000000008167040872
:1002A00001F0FF01102A2BDB10F0070F08D010F827
:1002B000013B013A8B422DD010F0070F42B3F6D12B
:1002C000F0B441EA012141EA014122F007047FF044
:1002D00000070023F0E80256083C85EA010586EA9B
:1002E000010685FA47F5A3FA87F586FA47F6A5FAD7
:1002F00087F68EB9EED1F0BC01F0FF0102F00702E3
:1003000032B110F8013B013A83EA010313B1F8D18D
:100310000020704701387047002D06BF354603386E
:10032000073815F0010F07D1013015F4807F02BFA7
:10033000013015F4C03F0130F0BC0138704700BFF8
:10034000034613F8012B002AFBD1181A0138704715
:100350007BB972B90029BEBF00204FF0004106E012
:1003600008BF00281CBF6FF000414FF0FF3000F0C5
:1003700057B8ADF1080C6DE904CE002909DB002B5C
:100380001ADB49F0BBF8DDF804E0DDE9022304B034
:100390007047404261EB4101002B1BDB49F0AEF896
:1003A000DDF804E0DDE9022304B0404261EB4101E5
:1003B000524263EB43037047524263EB430349F0FD
:1003C0009DF8DDF804E0DDE9022304B0404261EB72
:1003D00041017047524263EB430349F08FF8DDF867
:1003E00004E0DDE9022304B0524263EB43037047AB
:1003F00053B94AB9002908BF00281CBF4FF0FF318C
:100400004FF0FF3000F00CB8ADF1080C6DE904CEF0
:1004100049F074F8DDF804E0DDE9022304B0704728
:10042000704700BF10B5054C237833B9044B13B1A6
:100430000448AFF300800123237010BD4002002068
:1004400000000000B497040808B5034B1BB1034932
:100450000348AFF3008008BD000000004402002004
:10046000B49704082DE9F04F8FB009AD002409942A
:100470000A940B940C940D94634BD3F8E02042F053
:100480000402C3F8E020D3F8E02002F00402019255
:10049000019AD3F8E02042F02002C3F8E020D3F81C
:1004A000E02002F020020292029AD3F8E02042F00B
:1004B0008002C3F8E020D3F8E02002F0800203922B
:1004C000039AD3F8E02042F00102C3F8E020D3F809
:1004D000E02002F001020492049AD3F8E02042F0F6
:1004E0000202C3F8E020D3F8E02002F002020592F5
:1004F000059AD3F8E02042F01002C3F8E020D3F8C8
:10050000E02002F010020692069AD3F8E02042F0B2
:100510000802C3F8E020D3F8E02002F008020792B6
:10052000079AD3F8E02042F04002C3F8E020D3F865
:10053000E03003F040030893089BDFF8D4B0224674
:100540000621584604F0B4FDDFF8C8A0224649F25F
:100550008051504604F0ACFDDFF8BC9022464FF4C9
:100560004061484604F0A4FD284F22460421384645
:1005700004F09EFD22464FF4F051384604F098FDF9
:10058000DFF898802246FF21404604F091FD0623C3
:10059000099301260A960B940C942946584604F0B8
:1005A00067FC49F2805309930A960B940C942946F0
:1005B000504604F05DFC4FF4406309930A960B9497
:1005C0000C942946484604F053FC042309930A96E8
:1005D0000B940C942946384604F04AFC4FF4F0532F
:1005E00009930A960B940C942946384604F040FC73
:1005F000FF2309930A960B940C942946404604F075
:1006000037FC0FB0BDE8F08F0044025800180258C4
:10061000001402580010025800040258000C02583E
:1006200072B6FEE700B58BB00023079308930993D9
:1006300000930193029303930493059306931D483B
:100640001D4A02604FF40022426008228260C360AB
:1006500004220261037543750122826103774362BC
:100660008362C3620363436380F83830C26301F07E
:10067000C9FDC8B9079007A90E4801F0EBFEA8B95B
:100680000E4B009306230193029040F2FF720392F7
:100690000422049205908DF819006946054801F07E
:1006A0001DF928B90BB000BDFFF7BAFFFFF7B8FF7F
:1006B000FFF7B6FF18060020002002400800900C4B
:1006C00008B51348134B0360A3F13E53A3F57D23F4
:1006D000A3F565634360002383600122C260036168
:1006E00043618361C361036204F0D9FF50B90146DD
:1006F000074805F0BDF938B90146054805F0E3F9AA
:1007000020B908BDFFF78CFFFFF78AFFFFF788FFCE
:10071000FC0400200054004000B589B0002304937D
:1007200005930693079301930293039312484FF0A6
:10073000804202607722426083604FF0FF32C260E5
:100740000361836105F0C6FC80B94FF480530493C4
:1007500004A9094805F014FE50B90190039001A9BD
:10076000054805F05BFF28B909B000BDFFF758FF49
:10077000FFF756FFFFF754FF6404002010B59AB04E
:10078000002416941794189419941394149415949F
:100790000C940D940E940F941094119412942C2296
:1007A000214601A846F096FE3448354B036044606C
:1007B000846041F2BF23C36004614461846105F039
:1007C00089FC002849D14FF48053169316A92B4871
:1007D00005F0D6FD002842D1284805F0ABFC0028E2
:1007E0003FD113901490159013A9244805F016FFDB
:1007F000002838D160230C930D900E900F9010902C
:100800001190129004220CA91C4805F011FD60BB48
:1008100008220CA9194805F00BFD40BB0C220CA9BD
:10082000164805F005FD20BB01900290039004904E
:1008300005904FF400520692079008904FF0007216
:1008400009920A900B9001A90C4805F039FF90B964
:100850000A4800F08BFD1AB010BDFFF7E1FEFFF76C
:10086000DFFEFFF7DDFEFFF7DBFEFFF7D9FEFFF748
:10087000D7FEFFF7D5FEFFF7D3FE00BFB004002080
:100880000000014000B589B0002301930293039357
:10089000049305930693079319481A4A02604FF48C
:1008A0000022426008228260C36004220261037554
:1008B000437501228261037743628362C3620363EB
:1008C000436380F83830C26301F09CFCA0B90E4B42
:1008D000019306230293039040F2FF7204920422D4
:1008E000059206908DF81D000DEB0201044800F002
:1008F000F5FF18B909B000BDFFF792FEFFF790FEB3
:10090000B4050020002102400004002A00B589B08F
:100910000023019302930393049305930693079393
:100920001748184A02608360C3600422026103759D
:10093000437501228261037743628362C36203636A
:10094000436380F83830C26301F05CFCA0B90E4B01
:10095000019306230293039040F2FF720492042253
:10096000059206908DF81D000DEB0201044800F081
:10097000B5FF18B909B000BDFFF752FEFFF750FEF2
:1009800050050020006002580200300400B58FB00E
:1009900000230A930B930C930D93079308930993E9
:1009A00000930193029303930493059306932148C4
:1009B000214A02604360836041F2BF22C26003614A
:1009C000836105F087FB40BB4FF480530A930AA96B
:1009D000184805F0D5FC10BB164805F0ABFB00BB72
:1009E0000790099007A9134805F018FED8B96023AD
:1009F0000093024601900290049069460D4805F06C
:100A000017FC90B90C2269460A4805F011FC70B930
:100A1000084800F0ABFC0FB000BDFFF701FEFFF788
:100A2000FFFDFFF7FDFDFFF7FBFDFFF7F9FDFFF70A
:100A3000F7FD00BF180400200004004000B58BB093
:100A40000023079308930993009301930293039360
:100A50000493059306931548154A0260436083602A
:100A600041F2BF22C2600361836105F063FBB0B94C
:100A70000790099007A90D4805F0D0FD88B96023BB
:100A8000009302460190029004906946074805F0E1
:100A9000CFFB40B9054800F069FC0BB000BDFFF783
:100AA000BFFDFFF7BDFDFFF7BBFD00BFCC0300207E
:100AB0000008004000B59DB04C22002109A846F076
:100AC00009FD2022002101A846F004FD022004F0C7
:100AD000F5FA00230093244BDA6A22F00102DA626D
:100AE000DB6A03F001030093204A936923F4404337
:100AF00043F400439361936903F440430093009BE4
:100B00001A4B9B6913F4005FFAD002230993012268
:100B10000C9240220D921293002213920421149100
:100B20000F2015901693179118930C2319931A926E
:100B30001B9209A801F032FD88B93F2301930323DA
:100B4000029303900490059040220692079008902B
:100B5000022101A802F052F918B91DB000BDFFF73B
:100B60005FFDFFF75DFD00BF00040058004802581C
:100B700030B5B1B0C0252A460021684646F0AAFC2F
:100B80004FF400220023CDE90023042302930A231B
:100B90000393022304930593069307952023089358
:100BA000684602F0B9FB08B931B030BDFFF738FD37
:100BB0002DE9F04FCDB004F04FFBFFF77BFFFFF7BF
:100BC000D7FFFFF74FFCFFF72DFDFFF779FDFFF78C
:100BD000A3FDFFF7D3FDFFF755FEFFF797FEFFF7E5
:100BE000D5FEFFF72BFF00234B934A93904E914D78
:100BF00002223146284606F091FC8F4C04223146F1
:100C0000204606F08BFCDFF8988240F2EE2395E850
:100C10000600404606F08AFCDFF8889240F2EE2398
:100C200094E80600484606F081FC844C0C22844976
:100C3000204607F0E9FF834D00228349284607F04C
:100C4000E3FF824B04228249824808F0F3F9DFF87F
:100C500058A24FF480728049504608F055FE7F4EEE
:100C600022AF7F49384607F065FB7022394630468F
:100C700046F0DFFC7B4F0DF1100B7B49584608F026
:100C800031F974225946384646F0D3FC384608F00C
:100C9000F7F9304608F0E0FC744B5C611D61C3F865
:100CA0000080C3F804900021284607F0B2FF2846D0
:100CB00008F0EAF80021204607F0ABFF204608F0D4
:100CC000E3F808F05FFC642008F012FC009733465C
:100CD00052462946204609F041F9002000F00EFC5A
:100CE000012000F00BFC022000F008FC0121002094
:100CF00000F056FC5E494FF4E1330B600020486081
:100D000008814881888100F0B9FC08B1FFF788FCB0
:100D100006F0DEFE06F02AFF4FF0FF33409300237B
:100D2000419341A940A809F029FA78B949AD28466C
:100D300007F022FF4F4C2946204607F02FFF94F87A
:100D400005A00027B946B8463D460DE1409807F09A
:100D50003FFE03460028E9D0474A1060419A02B995
:100D60000122464C2260184608F0EAFE2168424BF8
:100D7000186809F02FF907F035FED7E73F4B1A68DE
:100D800001321A603E493F4B18683DF0C2FE3A4BB3
:100D9000186800283DD007F009FEDFF8E0B0DBF866
:100DA000001009F013FADFF8D0A0DBF80010DAF831
:100DB000000007F0BBF9834600238DF8FF308DF863
:100DC00000318DF8043141AB009340AB0DF1FF02CF
:100DD0000146DAF8000007F0CEF92B4B1B680393AD
:100DE000584607F097F90246284903983DF091FECE
:100DF000DAF8003093F82E209DF8043101939DF825
:100E0000FF3000939DF800312149224800683DF0F1
:100E100080FEB246B9E0DDED4B7AB7EEE77A53ECEF
:100E2000172B1D491D4800683DF073FED1E000BF3F
:100E300000140258BC030020B403002080030020EB
:100E4000B004002074030020180400205005002086
:100E5000001802586402002000100258E40200202A
:100E6000F897040870020020FC970408540300203F
:100E70007C060020C4030020BC070020D00A00200C
:100E800000980408D40A0020E40A00200C98040802
:100E900018980408DC0A00203C980408FC0A00208A
:100EA000A00300208C0300205C020020DDED4A7AC4
:100EB000B7EEE77A53EC172B5E495F4800683DF0C8
:100EC00028FE4FF00109E31BC72B2CD95B4D2846A8
:100ED00007F09EFAD5ED1A7AB7EEE77A53EC172BA6
:100EE0005749584800683DF014FE574D284608F011
:100EF00052F8D5ED1A7AB7EEE77A53EC172B53492F
:100F0000534800683DF005FE524808F09CF805463D
:100F100040F6B733984200F287804F494F4B18682C
:100F20003DF0F7FD27464B9B41934A9B42938DF83A
:100F30000C818DF80D91444B9B6E44933F4B9B6EFF
:100F400045934695464B9A788DF81C215B788DF831
:100F50001D31444B1B68489341A809F08BF826F0DB
:100F6000CDFA022004F0BAF904F0B2F904460DF506
:100F7000927B584607F000FE394E5946304607F03E
:100F80000DFE767956457FF4F9AE4BA9364806F04A
:100F900019FC00B3344B5B7CEBB1344B1B78002B5A
:100FA0003FF439AF9DED4B7AF2EE027A27EE277AC5
:100FB000F1EE046AC7EE267A9FED2D7A77EE877AF6
:100FC000B7EEE77A53EC172B2A492B4800683DF01F
:100FD000A0FD4FF001084AA9284806F0F3FB0028BD
:100FE0003FF471AF254B5B7C002B3FF46CAF1F4B84
:100FF0001B78002B3FF45AAF9DED4A7AF2EE027A4D
:1010000027EE277AF1EE046AC7EE267A9FED187A6A
:1010100077EE877AB7EEE77A53EC172B1849064834
:1010200000683DF076FD4CE716490C4B18683DF022
:1010300070FD77E75C980408F80A0020E4020020BD
:101040006C980408EC0A0020700200207C980408C8
:10105000F00A00206402002088980408F40A0020A6
:10106000C4030020D00A0020A00300209407002021
:10107000000000422C980408FC0A00208C03002089
:101080004C9804089C980408FEE7FEE7FEE7FEE79C
:10109000FEE770477047704708B504F00DF908BDCA
:1010A00008B5002000F0C2FA08BD000082B0074B6E
:1010B000D3F8F42042F00202C3F8F420D3F8F4305D
:1010C00003F002030193019B02B0704700440258F1
:1010D00010B58CB000230793089309930A930B93E0
:1010E0000368494A934207D0484A93422ED0484A5F
:1010F00093426AD00CB010BD464A136801331360A6
:10110000012B15D0444BD3F8E02042F00102C3F884
:10111000E020D3F8E03003F001030193019B40236A
:1011200007930323089307A93C4803F0A1FEE1E7D6
:10113000394BD3F8D82042F02002C3F8D820D3F896
:10114000D83003F020030093009BDBE7314A13689B
:1011500001331360012B2AD02F4BD3F8E02042F04B
:101160000402C3F8E020D3F8E02002F00402039266
:10117000039AD3F8E02042F00102C3F8E020D3F84C
:10118000E03003F001030493049B0123079303243D
:10119000089407A9224803F06BFE082307930894DC
:1011A0000023099307A91D4803F062FEA2E71A4B2A
:1011B000D3F8D82042F02002C3F8D820D3F8D83092
:1011C00003F020030293029BC6E7134BD3F8E02001
:1011D00042F08072C3F8E020D3F8E02002F0807281
:1011E0000592059AD3F8E02042F00402C3F8E0200B
:1011F000D3F8E03003F004030693069B4FF0006140
:10120000084604F085F875E70020024000210240FE
:10121000006002588C06002000440258000002586A
:101220000008025810B5B8B004460021339134913B
:10123000359136913791C02202A846F04BF92268C9
:101240001B4B9A4201D038B010BD08220023CDE9D3
:10125000022302A802F060F838BB164CD4F8E03044
:1012600043F00203C4F8E030D4F8E03003F00203A6
:101270000093009B4FF44073339312233493002365
:10128000359336930423379333A90B4803F0F0FDCD
:10129000D4F8E83043F40013C4F8E830D4F8E83068
:1012A00003F400130193019BCDE7FFF7B9F9D4E7ED
:1012B00000540040004402580004025884B00368FF
:1012C0001A4A934207D0B3F1804F12D0184A934282
:1012D0001DD004B07047174BD3F8F02042F0010244
:1012E000C3F8F020D3F8F03003F001030193019B21
:1012F000EFE7104BD3F8E82042F00102C3F8E820F2
:10130000D3F8E83003F001030293029BE1E7094BB5
:10131000D3F8E82042F00202C3F8E820D3F8E8301E
:1013200003F002030393039BD3E700BF00000140D7
:10133000000400400044025802680A4B9A4200D060
:10134000704782B0084BD3F8E82042F00402C3F89B
:10135000E820D3F8E83003F004030193019B02B0C6
:10136000704700BF000800400044025830B589B003
:101370000023039304930593069307930368354A68
:10138000934207D0344A93422AD0344A934249D0F8
:1013900009B030BD324BD3F8E02042F01002C3F860
:1013A000E020D3F8E03003F010030093009B4FF4EB
:1013B00020530393022404940125079503A9294887
:1013C00003F056FD4FF480430393122304930594D6
:1013D00000230693079503A9224803F049FDD7E7A8
:1013E0001F4BD3F8E02042F00202C3F8E020D3F80C
:1013F000E03003F002030193019B02240394049460
:10140000079403A9184803F033FD10230393122314
:101410000493059400230693079403A9124803F04C
:1014200027FDB5E70E4BD3F8E02042F00802C3F8E1
:10143000E020D3F8E03003F008030293029B4FF45E
:101440008053039302230493079303A9074803F0EF
:101450000FFD9DE70000014000040040000800402F
:10146000004402580010025800040258000C0258B0
:10147000F0B589B01F4BD3F8E02042F00802C3F862
:10148000E020D3F8E02002F008020092009AD3F89E
:10149000E02042F00802C3F8E020D3F8E02002F098
:1014A00008020192019AD3F8E82042F48022C3F89E
:1014B000E820D3F8E83003F480230293029B4FF432
:1014C0008073039302240494069401230593072751
:1014D000079703AE084D3146284603F0C9FC4FF488
:1014E00000730393049407973146284603F0C0FC29
:1014F00009B0F0BD00440258000C0258022846D83A
:1015000070B588B028BB234BD3F8E02042F002022C
:10151000C3F8E020D3F8E03003F002030093009B0F
:101520001D4B33F8106003960123049300240594A7
:1015300003230693194B53F8205003A9284603F0C0
:1015400097FC22463146284603F0B2FD204608B0FB
:1015500070BD01280DD00F4BD3F8E02042F00202FD
:10156000C3F8E020D3F8E03003F002030293029BBB
:10157000D6E7084BD3F8E02042F01002C3F8E02091
:10158000D3F8E03003F010030193019BC8E76FF03C
:10159000010070470044025818A5040820A504085B
:1015A00010B586B01C4BD3F8E02042F00402C3F81B
:1015B000E020D3F8E03003F004030093009B4FF4E5
:1015C0000053019302230393049339B9029101A9B3
:1015D000124803F04DFC002006B010BD04464FF445
:1015E0008813029301A90D4803F042FC0C4B03EB56
:1015F000C4031C460B49184604F095FA0A4A002118
:10160000204604F089FA00220F21282003F0D6FD9D
:10161000282003F0E3FDDEE70044025800080258EA
:10162000280700200D0030164316000808B5034BAC
:1016300003EBC00004F07DFA08BD00BF28070020BE
:10164000704708B50020FFF7FBFF08BD08B50A4A40
:10165000126802600A6842600C2242614A89026193
:101660004A6882600A89C2608A8982614FF40042B6
:10167000C26105F0CEFD08BD0000002070B938B58C
:101680000D469422084C02FB00442046FFF7F0FE72
:1016900029462046FFF7DAFF18B938BD6FF0010080
:1016A00070476FF00300F8E79406002000B583B0A0
:1016B0000190084B93F800C04FF47A73012201A9FE
:1016C0004FF0940E04480EFB0C0005F044FC01980A
:1016D00003B000BD9006002094060020F0B583B052
:1016E0000D4F38780DF1070694250C4C4FF0FF3361
:1016F0000122314605FB004005F099FC38784FF493
:101700007A730122314605FB004005F024FC9DF868
:10171000070003B0F0BD00BF900600209406002033
:1017200000B50B0A9B0003F00C0300F1300E5EF8CD
:10173000030001F01F014FF01F0C0CFA01FC20EA1E
:101740000C0CC2F384628A404CEA02024EF8032079
:1017500000BD00B54B0E9B0003F0040300F1140E16
:101760005EF80300C1F304514FF0070C0CFA01FCC2
:1017700020EA0C0C8A404CEA02024EF8032000BD1D
:10178000C1F313033BB9C1F3846101228A40C369E9
:101790001343C361704791FAA1F131B1B1FA81F1FC
:1017A00001F01F0101228A40F1E72021F8E7000043
:1017B0002DE9F04104460E4603684349434A9342EB
:1017C00018BF8B4233D102F50072976807F01F07EC
:1017D0002569082D0CD0092F31D840F22121F9407C
:1017E00011F0010F2BD0DB6813F0010F21D104257C
:1017F00003F06EFD804623681A682A4228D1B6F1AC
:10180000FF3FF8D003F064FD4346C01AB04201D850
:10181000002EF0D123681B682B42ECD1636D43F09E
:1018200004036365002384F85030032049E0284A0C
:10183000CBE7636D43F020036365012041E09368CB
:1018400013F4404FD3D0636D43F020036365F4E796
:10185000626D42F400726265DA6812F4406F11D171
:10186000627D7AB91A6812F0080F0BD0626D22F40B
:1018700080726265626D12F4805F03D1626D42F026
:1018800001026265114A934213D01A46934207D06F
:10189000092F11D840F22121F94011F0010F0BD08E
:1018A000DA68082D0AD012F4804F09D10C221A6090
:1018B00006E0A2F58072E9E7D268F2E708221A6032
:1018C0000020BDE8F08100BF00200240002102405E
:1018D000006302580368186C7047000070B582B04E
:1018E0000023019390F85030012B00F0F981044659
:1018F0000D46012380F850300268936813F0040FFE
:1019000009D0436D43F0200343650120002384F890
:10191000503002B070BD0B68002B0ADBC3F313011B
:1019200000293DD1C3F3846301219940D3690B435E
:10193000D3612A6869682068FFF7F2FE206883682F
:1019400013F004031E4601D001231E46836813F0E2
:10195000080F00D186B32068816811F001011DD104
:101960002B68D0F8C020C3F3130C22EA0C02EE68F7
:1019700006F0180EDFF8C8C22CFA0EFC03EA0C03BE
:10198000C3F313031343C0F8C030EA68954B9A427F
:1019900000F0A3802B68002BC0F202810020B5E785
:1019A00093FAA3F333B1B3FA83F303F01F030121D6
:1019B0009940BBE72023F8E7AA682968FFF7C9FE2A
:1019C000894B1B6803F07043B3F1805F0BD0226832
:1019D000D36813F0100F3CD16B69D268C2F3820256
:1019E0005200934006E06B692268D268C2F382021B
:1019F00052009340296904293AD02268286802F1EC
:101A0000600C5CF8212002F0004200F0F840034333
:101A100013434CF82130236828696A7E012A20D0BC
:101A20003246603353F8201021F000410A4343F856
:101A30002020206829692B7E012B15D0026922F411
:101A4000F04201F01F03314699400B4613430361F6
:101A500081E76B69D268920802F004025200934059
:101A6000C8E74FF00042DCE74FF400631E46E5E7AD
:101A70002268136E03F0F8432968B3EB816F1DD021
:101A80002268536E03F0F8432968B3EB816F1AD0D4
:101A90002268936E03F0F8432968B3EB816F17D087
:101AA0002268D36E03F0F8432968B3EB816F7FF4AB
:101AB00052AFD36E23F00043D3664CE7136E23F08E
:101AC00000431366DCE7536E23F000435366DFE701
:101AD000936E23F000439366E2E72068434B9842FD
:101AE00005D0434B984233D0FFF74AFE52E72B68AC
:101AF000404A93421CD0404A93421BD03F4A9342F3
:101B00001AD03F4A934219D03E4A934218D03E4AD7
:101B1000934217D03D4A934216D03D4A934215D086
:101B20003C4A93423AD03C4A9342DDD13B49DBE701
:101B30000121D9E73A49D7E73A49D5E73A49D3E706
:101B40003A49D1E73149CFE73149CDE73849CBE7C9
:101B50002B68284A9342EBD0274A9342EAD0274A7F
:101B60009342E9D0264A9342E8D002F186621032CD
:101B70009342E5D0244A9342E4D002F1042202F5D4
:101B800040129342E0D002F1866202F50062934275
:101B9000DCD0214A9342A7D12049A5E72549A3E7F4
:101BA000226812491248824218BF8A420CBF0121A2
:101BB000002115D1204DA86800F0E07E002941D019
:101BC0000A49896801F0010C0949896801F001019D
:101BD00051EA0C013BD0636D43F02003636594E64A
:101BE000164DE8E70000FF470010005C00200240AF
:101BF0000021024002003004040060080800900C3C
:101C00001000C0102000F0140004002A0008302E3C
:101C100000106032000021430000844B0000B84FE8
:101C2000400020198000501D000180210002B025D5
:101C30000020903600005247002302400063025803
:101C4000FFFF0F002749896811F0010FC3D1264912
:101C50008B4216D025498B4233D025498B427FF4E5
:101C60009DAE10F4800F7FF499AE1E4B9A427FF424
:101C700095AE4EF48003AA6822F0E0721343AB6085
:101C80008CE610F4000FE5D1164B9A427FF486AE35
:101C90004EF40003AA6822F0E0721343AB60154BC8
:101CA0001B689B09144AA2FB03239B0901335B00B9
:101CB000019302E0019B013B0193019B002BF9D1B1
:101CC0006CE610F0807FC8D1064B9A427FF466AE76
:101CD0004EF08073AA6822F0E0721343AB605DE6B9
:101CE000022016E600600258000084CB000052C7B4
:101CF0000000B8CF10000020632D3E0570B50446EB
:101D00000268936813F0040300D00123906810F078
:101D1000080F01D1002B6BD0D36813F0007F02D0E5
:101D2000637D012B44D0022912D023689A6812F0F7
:101D3000040F0BD09A6812F0020F07D19A6822F0B4
:101D4000004222F03F0242F010029A60012949D07D
:101D500023689A6812F0080F0BD09A6812F0020FED
:101D600007D19A6822F0004222F03F0242F020029E
:101D70009A60022938D0032938D10C2503F0A8FA3B
:101D8000064623689B682B4232D003F0A1FA801BE1
:101D90000528F6D923689B682B42F2D0636D43F087
:101DA00010036365A36D43F00103A365012020E0E8
:101DB000207D0128B7D10023116811F0400F0DD10B
:101DC0000C498B4201D80133F6E7636D43F01003F1
:101DD0006365A36D43F00103A3650AE0402313602C
:101DE0000121A2E70425C9E70825C7E70425C5E7BF
:101DF000002070BDFFDB0C0038B503689A6812F054
:101E0000010F2CD1044699682A4A114209D0436D2A
:101E100043F010034365836D43F0010383650120A4
:101E20001EE09A6822F0004222F03F0242F00102D6
:101E30009A6003F04DFA054623681F491F4A9342F2
:101E400018BF8B420DD102F50072926802F01F029A
:101E50001A498B4207D01946994207D032B1002067
:101E600038BD174AF1E7A1F58071F5E723681A68D4
:101E700012F0010FF3D19A6812F0010F07D19A689E
:101E800022F0004222F03F0242F001029A6003F089
:101E90001FFA401B0228E9D923681B6813F0010FC1
:101EA000E4D1636D43F010036365A36D43F0010358
:101EB000A365B4E73F0000800020024000210240FB
:101EC0000063025838B5044603683F493F4A9342CD
:101ED00018BF8B4258D102F50072926802F01F02BF
:101EE00015469B6813F0040F50D194F85030012B25
:101EF0004CD0012384F850302046FFF77DFF0028A6
:101F00005ED1636D23F4706323F0010343F48073A7
:101F1000636523682D4A93423AD01A46934200D013
:101F20001DB9626D22F480126265626D12F4805FE9
:101F300031D0A26D22F00602A2651C221A60002395
:101F400084F850302368214A934227D01A4693429E
:101F500007D0092D25D840F22121E94011F0010FC9
:101F60001FD0DA6812F0007F05D0626D22F4405273
:101F700042F4805262659A6822F0004222F03F02E9
:101F800042F004029A6002E0114AA6E7022038BD3E
:101F9000A2F58072C2E70022A265CEE7A2F58072A8
:101FA000D5E7636D43F480136365D36813F0007F56
:101FB000EDD0636D23F4405343F480536365E6E74B
:101FC000002384F85030E2E7002002400021024064
:101FD0000063025838B504460268936813F00203A0
:101FE00000D00123916811F0010F00D00BB1002047
:101FF00038BD936803F00D03012B09D0636D43F0E6
:1020000010036365A36D43F00103A3650120EFE7AF
:10201000936823F0004323F03F0343F002039360EF
:10202000236803221A6003F053F9054623689B686E
:1020300013F0010FDBD003F04BF9401B0228F5D958
:1020400023689B6813F0010FF0D0636D43F0100319
:102050006365A36D43F00103A365D7E790F85030A3
:10206000012B1AD010B50446012380F8503003210B
:10207000FFF744FE18B1002384F8503010BD20460D
:10208000FFF7A8FF0028F6D1636D23F4885323F0EF
:10209000010343F001036365EDE702207047000090
:1020A00038B5054603684F494F4A934218BF8B42E3
:1020B00026D14E4B9B6813F4403F14BF01230023ED
:1020C00043B300F0DBFF04466B68B3F5003F05D077
:1020D000B3F5403F1CD0B3F5803F02D11B0CB4FBDD
:1020E000F3F403F00FF941F20303984253D8404B45
:1020F0009C424AD92A68936843F48073936038BD40
:102100003C4B9B6813F4403F14BF01230023D7E7E7
:102110008408E6E74FF40020002102F045F9044668
:102120006B68B3F5101F2CD021D8B3F5E01F26D073
:1021300004D9B3F5001FD4D14409D2E7B3F5801F09
:1021400010D009D8B3F5002F0CD0B3F5402F09D02B
:10215000B3F5802F06D0C4E7B3F5A01F02D0B3F5C6
:10216000C01FBED19B0C5B00B4FBF3F4B9E7B3F521
:10217000201F08D0B3F5301FB3D1040AB1E704091A
:10218000AFE78409ADE7C409ABE72A68936823F495
:1021900080739360B3E76208174BB3EB540F05D31A
:1021A0002A68936823F440739360A8E7134B9A421C
:1021B00007D82A68936823F4407343F480739360CC
:1021C0009DE70F4B9A4207D82A68936823F440731F
:1021D00043F40073936092E72A68936843F4407372
:1021E00093608CE70020024000210240002302405F
:1021F000002D310100630258105E5F0020BCBE005C
:1022000040787D0130B583B000230193002800F0B1
:102210000A810446436D0BB323689A6812F0005F8D
:1022200005D09A6822F0204222F03F029A6022688C
:10223000936813F0805F1ED1936823F0104323F05E
:102240003F0343F080539360794B1B689B09794AA5
:10225000A2FB03239B090133019309E0FEF738FF3A
:102260000023A36584F85030D6E7019B013B01931E
:10227000019B002BF9D12268936813F0805F40F036
:102280009880636D43F010036365A36D43F0010311
:10229000A36501231D46936813F0040300D00123B6
:1022A000616D11F0100F40F0BA80002B40F0B78044
:1022B000636D23F4817343F002036365936813F045
:1022C000010F1CD15C495D4B9A4218BF8A420CBF7A
:1022D0000122002270D10B46896801F0010103F54B
:1022E00080739B6803F001030B4308D1002A69D077
:1022F000534963688A6822F47C1213438B6003F0AD
:1023000001F841F20303984202D9A368102B5BD075
:10231000627D236B43EA4233A2681343227F43EA80
:102320000243227F012A5AD0626A22B102F47872F3
:10233000A16A0A4313432168C868424A02401A430B
:10234000CA602268936813F0040300D001239168E7
:1023500011F0080F1ED1EBB9217DE36A43EA813108
:10236000D36823F4804323F003030B43D36094F832
:102370003830012B38D02268136923F00103136130
:102380002268136923F07043616B0B43136120468D
:10239000FFF786FEE368012B38D02268136B23F029
:1023A0000F031363636D23F0030343F001036365BD
:1023B0003BE000231D466EE7234B9B6813F0010FA3
:1023C0009DD193E7214994E7617D226B42EA413236
:1023D0001343227F43EA024343F00C03A1E7226A3E
:1023E000013A43EA42439FE720680269184B1340D1
:1023F000E26B511E226C42EA0142616C0A43A16CFD
:102400000A43134343F001030361B9E721680B6BEF
:1024100023F00F03A269013A13430B63C2E7636D14
:1024200043F01003636501231D46284603B030BD09
:1024300010000020632D3E050020024000210240D4
:102440000023024003C0F0FF0060025800630258FE
:102450001EF800FC90F85020012A00F0958010B57D
:102460009AB00346012280F850200022169217925B
:102470000068464A904244D000220192019A002A04
:1024800043D0926812F0040200D00122D0F808C0B4
:102490001CF0040F6ED1002A6CD1DFF8F0C03C4A6A
:1024A000904218BF604539D102F5007208680028D3
:1024B0003CD0906820F440404C68204390601868FD
:1024C000DFF8C8E0DFF8C8C0604518BF704527D105
:1024D000DEF8080000F0010C2D48806800F00100D3
:1024E00050EA0C000BD1906820F4716020F00F00CE
:1024F000D1F800C089684CEA0101084390600020CF
:102500003DE002F580720192B8E75A6D42F0200278
:102510005A65002283F85020012033E01D4AC5E7A8
:102520001D48806810F0010FE9D1DCE7916821F4C3
:10253000404191601968DFF854C01548814218BFC6
:10254000614511D1DCF8080000F001000CF5807144
:10255000896801F001010143D1D1916821F47161D1
:1025600021F00F019160CAE70B49896811F0010F52
:10257000C5D1F2E75A6D42F020025A6501200022CF
:1025800083F850201AB010BD02207047002002408E
:10259000002102400063025800600258002800F049
:1025A0002F8338B50446036813F0010F26D0924AF2
:1025B000136903F03803926A102B17D0182B11D02F
:1025C0006368B3F5803F3FD0002B52D18A4B1A6825
:1025D00022F480321A601A6822F480221A6038E0ED
:1025E00001208BE002F00302022AE9D1824B1B6832
:1025F00013F4003F02D06368002BF1D0236813F07E
:10260000020F00F09D807C4A1369926A13F0380330
:1026100057D0182B52D0E368002B00F0D9807649B0
:102620000A6822F0190213430B6002F051FE0546BE
:10263000714B1B6813F0040F40F0A88002F048FEB5
:10264000401B0228F4D958E06B4A136843F48033E6
:102650001360636823B302F03BFE0546664B1B68BC
:1026600013F4003FCAD102F033FE401B6428F5D9B1
:1026700043E0B3F5A02F09D05F4B1A6822F48032F3
:102680001A601A6822F480221A60E2E75A4B1A682C
:1026900042F480221A601A6842F480321A60D8E745
:1026A00002F016FE0546544B1B6813F4003FA5D0FC
:1026B00002F00EFE401B6428F5D91EE012F0030F55
:1026C000A9D14D4B1B6813F0040F02D0E368002B17
:1026D00086D0494A136823F01903E1680B4313605D
:1026E00002F0F6FD0546444B1B6813F0040F06D1BB
:1026F00002F0EEFD401B0228F5D9032038BD02F0A0
:1027000001FE41F20303984212D82269402A07D001
:1027100039494B6823F47C3343EA02334B600FE0C2
:10272000354A536823F47C3343F40033536007E0A5
:10273000314A536823F0FE43216943EA0163536041
:10274000236813F0100F00F087802B4A136903F001
:102750003803926A082B55D0182B4FD0E369002B11
:1027600000F0B680244A136843F08003136002F03F
:10277000AFFD0546204B1B6813F4807F40F0868038
:1027800002F0A6FD401B0228F4D9B6E702F0BAFD1C
:1027900041F20303984212D82269402A07D0164911
:1027A0004B6823F47C3343EA02334B60C8E7124A98
:1027B000536823F47C3343F400335360C0E70E4A7C
:1027C000536823F0FE43216943EA01635360B7E78E
:1027D000094A136823F00103136002F079FD0546EE
:1027E000054B1B6813F0040FAAD002F071FD401BCB
:1027F0000228F5D981E700BF0044025802F0030225
:10280000012AABD19D4B1B6813F4807F03D0E36991
:10281000802B7FF4E5AE02F075FD41F20303984290
:1028200012D8226A202A07D094494B6823F0F84333
:1028300043EA82634B600FE0904A536823F0F84309
:1028400043F08043536007E08C4AD36823F07C5305
:10285000216A43EA0163D360236813F0080F5DD057
:102860006369002B47D0854A536F43F001035367D8
:1028700002F02EFD0546814B5B6F13F0020F4DD128
:1028800002F026FD401B0228F5D936E702F03AFD9A
:1028900041F20303984212D8226A202A07D07749CE
:1028A0004B6823F0F84343EA82634B60D4E7734AF2
:1028B000536823F0F84343F080435360CCE76F4AFA
:1028C000D36823F07C53216A43EA0163D360C3E7F2
:1028D0006A4A136823F08003136002F0F9FC05468E
:1028E000664B1B6813F4807FB6D002F0F1FC401BEE
:1028F0000228F5D901E7614A536F23F001035367BA
:1029000002F0E6FC05465D4B5B6F13F0020F05D04D
:1029100002F0DEFC401B0228F5D9EEE6236813F036
:10292000200F27D0A36993B1544A136843F480530E
:10293000136002F0CDFC0546504B1B6813F4005F9A
:1029400018D102F0C5FC401B0228F5D9D5E64B4A48
:10295000136823F48053136002F0BAFC0546474B1A
:102960001B6813F4005F05D002F0B2FC401B022884
:10297000F5D9C2E6236813F0040F20D1636A002B57
:1029800000F023813D4A126902F03802182A00F053
:10299000E780022B76D0394A136823F080731360E6
:1029A00002F096FC0446354B1B6813F0007F00F0E4
:1029B0000C8102F08DFC001B0228F4D99DE6304A00
:1029C000136843F48073136002F082FC05462C4BBD
:1029D0001B6813F4807F05D102F07AFC401B642849
:1029E000F5D98AE6A368012B0AD003BB234B1A6FE3
:1029F00022F001021A671A6F22F004021A6704E03B
:102A00001E4A136F43F001031367A3682BB302F050
:102A10005FFC0546194B1B6F13F0020FAED102F09D
:102A200057FC401B41F288339842F3D965E6052BE9
:102A300009D0124B1A6F22F001021A671A6F22F0A6
:102A400004021A67E1E70D4B1A6F42F004021A679D
:102A50001A6F42F001021A67D7E702F039FC054607
:102A6000064B1B6F13F0020F88D002F031FC401BA5
:102A700041F288339842F3D93FE600BF0044025840
:102A8000004802585F4A136823F08073136002F015
:102A90001FFC05465B4B1B6813F0007F05D002F05E
:102AA00017FC401B0228F5D927E6564B9A6A22F4F8
:102AB0007C7222F00302A16AE06A41EA00110A4333
:102AC0009A62226B013AC2F30802616B0139490232
:102AD00089B20A43A16B0139090401F4FE010A43DA
:102AE000E16B0139090601F0FE410A431A63DA6A13
:102AF00022F00102DA625A6B6FF3CF02A16C42EA54
:102B0000C1025A63DA6A22F00C02216C0A43DA62CB
:102B1000DA6A22F00202616C0A43DA62DA6A42F48B
:102B20008032DA62DA6A42F40032DA62DA6A42F455
:102B30008022DA62DA6A42F00102DA621A6842F04E
:102B400080721A6002F0C4FB04462E4B1B6813F01F
:102B5000007F3AD102F0BCFB001B0228F5D9CCE57E
:102B6000284A916A106B012B3FF43AAD01F0030340
:102B7000A26A93427FF434ADC1F30511E36A99422E
:102B80007FF42EADC0F30802236B013B9A427FF421
:102B900027ADC0F34622636B013B9A427FF420AD20
:102BA000C0F30642A36B013B9A427FF419ADC0F318
:102BB0000660E36B013B98427FF412AD114B5B6BF7
:102BC000C3F3CC03A26C9A4201D1002096E50D4AD2
:102BD000D36A23F00103D36202F07AFB054602F0C8
:102BE00077FBA842FBD0074A536B6FF3CF03A16C6E
:102BF00043EAC1035363D36A43F00103D362E4E7BA
:102C00000120704700440258744B1B6903F03803DD
:102C1000102B00F0DD80182B0FD0002B40F0DA8055
:102C20006E4B1B6813F0200F00F0D6806B4B1B68B7
:102C3000C3F3C1036A48D8407047684B9A6A02F0F0
:102C40000302D3F828C0CCF30510D96A01F00101C2
:102C50005B6BC3F3CC0301FB03F307EE903AF8EE92
:102C6000677A1CF47C7F00F0B880012A4AD0022ADF
:102C700074D0002A40F08F80584B1B6813F0200F4F
:102C800023D056490A68C2F3C102554BD34007EE20
:102C9000103AF8EE476A07EE100AB8EE476A86EE79
:102CA000867A0B6BC3F3080306EE903AF8EE666A79
:102CB0009FED4C6A67EE867A76EEA77AF7EE006AA9
:102CC00077EEA67A27EE277A38E007EE100AF8EEBC
:102CD000476A9FED456A86EE267A404B1B6BC3F32D
:102CE000080306EE903AF8EE666A9FED3E6A67EEDC
:102CF000867A76EEA77AF7EE006A77EEA67A27EE66
:102D0000277A1BE007EE100AF8EE476A9FED376A54
:102D100086EE267A314B1B6BC3F3080306EE903A1E
:102D2000F8EE666A9FED2F6A67EE867A76EEA77AEE
:102D3000F7EE006A77EEA67A27EE277A274B1B6B11
:102D4000C3F34623013307EE903AF8EE677AC7EEF5
:102D5000276AFCEEE67A17EE900A704707EE100A33
:102D6000F8EE476A9FED226A86EE267A1B4B1B6BB4
:102D7000C3F3080306EE903AF8EE666A9FED196A0F
:102D800067EE867A76EEA77AF7EE006A77EEA67A95
:102D900027EE277AD2E707EE100AF8EE476A9FED92
:102DA000136A86EE267A0D4B1B6BC3F3080306EEFF
:102DB000903AF8EE666A9FED0B6A67EE867A76EED9
:102DC000A77AF7EE006A77EEA67A27EE277AB5E7BC
:102DD0000848704708487047014870470044025847
:102DE0000090D003000000390024744C0024744A81
:102DF0000024F44A00127A0000093D00002800F087
:102E00002E8170B50D460446964B1B6803F00F03E8
:102E10008B420AD2934A136823F00F030B431360CB
:102E2000136803F00F038B426BD1236813F0040F78
:102E30000CD022698C4B9B6903F070039A4205D930
:102E400089498B6923F070031A438A61236813F060
:102E5000080F0CD06269844BDB6903F070039A425F
:102E600005D98149CB6923F070031A43CA612368ED
:102E700013F0100F0CD0A2697B4BDB6903F4E06305
:102E80009A4205D97849CB6923F4E0631A43CA61B1
:102E9000236813F0200F0CD0E269734B1B6A03F018
:102EA00070039A4205D970490B6A23F070031A43E4
:102EB0000A62236813F0020F0CD0E2686A4B9B6928
:102EC00003F00F039A4205D967498B6923F00F037A
:102ED0001A438A61236813F0010F3ED0624A936956
:102EE00023F47063A1680B4393616368022B0AD0DB
:102EF000032B26D0012B2AD05B4A126812F0040F54
:102F000005D1012070BD126812F4003FF9D0564976
:102F10000A6922F0070213430B6102F0D9F9064651
:102F2000514B1B6903F038036268B3EBC20F14D036
:102F300002F0CEF9801B41F288339842F0D9032089
:102F4000E0E7494A126812F0007FE0D1D9E7464A2B
:102F5000126812F4807FDAD1D3E7236813F0020FEE
:102F60000CD0E268404B9B6903F00F039A4205D2F4
:102F70003D498B6923F00F031A438A61394B1B6863
:102F800003F00F03AB420AD9364A136823F00F034C
:102F90002B431360136803F00F03AB42B1D12368D6
:102FA00013F0040F0CD022692F4B9B6903F07003C0
:102FB0009A4205D22C498B6923F070031A438A6127
:102FC000236813F0080F0CD06269274BDB6903F00C
:102FD00070039A4205D22449CB6923F070031A4347
:102FE000CA61236813F0100F0CD0A2691E4BDB6975
:102FF00003F4E0639A4205D21B49CB6923F4E063F2
:103000001A43CA61236813F0200F0CD0E269164BF3
:103010001B6A03F070039A4205D213490B6A23F02E
:1030200070031A430A62FFF7EFFD0F498B69C3F380
:1030300003230E4AD35C03F01F03D8408B6903F0CF
:103040000F03D35C03F01F0320FA03F3084A136055
:10305000084B1860084B186802F0D8F852E70120B6
:10306000704700BF002000520044025844A50408E5
:103070000C000020100000200800002008B5FFF719
:10308000C3FD0B4A9369C3F303230A49CB5C03F0E6
:103090001F0320FA03F3926902F00F02885C00F02C
:1030A0001F0023FA00F0044A1060044A136008BDB0
:1030B0000044025844A504080C0000201000002021
:1030C00008B5FFF7DBFF054BDB69C3F30213044AC6
:1030D000D35C03F01F03D84008BD00BF0044025872
:1030E00044A5040808B5FFF7C9FF054BDB69C3F326
:1030F0000223044AD35C03F01F03D84008BD00BF7D
:103100000044025844A50408404B9B6A03F00303A3
:10311000032B78D070B505460E463C4A136823F061
:103120008063136002F0D4F80446384B1B6813F038
:10313000006F06D002F0CCF8031B022BF5D9032058
:1031400070BD324B9A6A22F47C32296842EA01321D
:103150009A626A68013AC2F30802A9680139490211
:1031600089B20A43E9680139090401F4FE010A43FE
:1031700029690139090601F0FE410A439A63DA6AB6
:1031800022F0C00269690A43DA62DA6A22F0200298
:10319000A9690A43DA62DA6A22F01002DA62DA6BAB
:1031A0006FF3CF02E96942EAC102DA63DA6A42F0F8
:1031B0001002DA62BEB9154AD36A43F40023D3621F
:1031C000124A136843F08063136002F081F80446EA
:1031D0000E4B1B6813F0006F13D102F079F8001B3F
:1031E0000228F5D9ABE7012E05D0084AD36A43F48B
:1031F0000013D362E4E7054AD36A43F48013D36231
:10320000DEE700209CE70120704700BF0044025821
:10321000404B9B6A03F00303032B78D070B505463F
:103220000E463C4A136823F08053136002F050F8B6
:103230000446384B1B6813F0005F06D002F048F8D4
:10324000031B022BF5D9032070BD324B9A6A22F082
:103250007C72296842EA01529A626A68013AC2F3B2
:103260000802A9680139490289B20A43E9680139AB
:10327000090401F4FE010A4329690139090601F034
:10328000FE410A431A64DA6A22F4406269690A4319
:10329000DA62DA6A22F40072A9690A43DA62DA6A47
:1032A00022F48072DA625A6C6FF3CF02E96942EA63
:1032B000C1025A64DA6A42F48072DA62BEB9154A0F
:1032C000D36A43F48003D362124A136843F08053F5
:1032D000136001F0FDFF04460E4B1B6813F0005F06
:1032E00013D101F0F5FF001B0228F5D9ABE7012E41
:1032F00005D0084AD36A43F08073D362E4E7054AF5
:10330000D36A43F40003D362DEE700209CE7012088
:10331000704700BF00440258F8B50446036813F034
:10332000006F2CD0836EB3F5001F22D00BD8D3B121
:10333000B3F5801F14D102210830FFF7E5FE0546E2
:103340002DB12E461DE0B3F5401F09D10025954A49
:10335000136D23F44013A16E0B431365002610E098
:10336000012635460DE08F4AD36A43F40033D36219
:10337000ECE702212830FFF74BFF0546E0E7002687
:103380003546236813F4807F14D0A36D042B31D805
:10339000DFE803F0032229080800824AD36A43F4D5
:1033A0000033D3624DBB7F4A136D23F00703A16D39
:1033B0000B431365236813F4007F3CD0E36D802B2F
:1033C0002BD01CD81BB3402B1ED1002104F10800C8
:1033D000FFF79AFE054626E0002104F10800FFF7FA
:1033E00093FE0546DEE7002104F12800FFF710FFF9
:1033F0000546D7E701263546DCE72E46DAE7C02B3F
:1034000011D0B3F5807F0ED00126354613E0654A12
:10341000D36A43F40033D36205E0002104F12800AD
:10342000FFF7F6FE0546DDB95E4A136D23F4E0733F
:10343000E16D0B431365236813F4806F30D0D4F82B
:10344000A830B3F5800F1CD00CD8A3B1B3F5001F82
:103450000ED1002104F10800FFF756FE054616E0E4
:103460002E46E8E7B3F5C00F11D0B3F5000F0ED02C
:103470000126354614E04B4AD36A43F40033D36245
:1034800005E0002104F12800FFF7C2FE0546E5B97A
:10349000444A936D23F46003D4F8A8100B4393655A
:1034A000236813F4006F31D0D4F8AC30B3F1007F4F
:1034B0001CD00CD8A3B1B3F1807F0ED1002104F150
:1034C0000800FFF721FE054616E02E46E8E7B3F1B7
:1034D000407F11D0B3F1806F0ED00126354615E044
:1034E000304AD36A43F40033D36205E0002104F18B
:1034F0002800FFF78DFE0546002D33D1294A936D34
:1035000023F0E063D4F8AC100B439365236813F009
:10351000007F13D0E36C202B2BD025D833B1102B98
:1035200024D1204AD36A43F40033D36245BB1D4AF9
:10353000D36C23F03003E16C0B43D364236813F4A2
:10354000805F41D0236EB3F5005F2DD01AD813B33E
:10355000B3F5805F1CD1002104F10800FFF7D4FD12
:10356000054627E02E46D1E7302BDFD00126354631
:10357000E4E7022104F10800FFF7C6FD0546D5E7A0
:103580002E46DBE7B3F5405F14D0B3F5804F11D082
:103590000126354618E0034AD36A43F40033D36268
:1035A00008E000BF00440258002104F12800FFF7A2
:1035B0002FFE05463DB9964A136D23F4E043216E74
:1035C0000B43136500E02E46236813F4005F17D009
:1035D000636EB3F5003F4CD03FD843B1B3F5803FA5
:1035E00044D1012104F10800FFF78EFD0546002DAE
:1035F00046D1874A136D23F4E023616E0B431365B4
:10360000236813F4804F19D0D4F8B030B3F1005FC1
:1036100044D037D843B1B3F1805F3CD1012104F1EC
:103620000800FFF771FD0546002D3ED1784A936DE5
:1036300023F0E043D4F8B0100B439365236813F4F0
:10364000004F41D0236FB3F1805F30D0B3F1005F02
:1036500045D08BB30126354636E0B3F5802FC6D072
:10366000B3F5A02FC3D0B3F5403FC0D001263546F7
:10367000C6E7012104F12800FFF7CAFD0546B6E7B9
:103680002E46BDE7B3F1804FCED0B3F1A04FCBD0E3
:10369000B3F1405FC8D001263546CFE7012104F1E0
:1036A0002800FFF7B5FD0546BEE72E46C6E7584A97
:1036B000D36A43F40033D362C5B9554A136D23F07E
:1036C0004053216F0B431365236813F0807F1DD097
:1036D000A36C032B51D8DFE803F0100B4910012134
:1036E00004F10800FFF710FD0546E5E72E46EBE77D
:1036F000474AD36A43F40033D362002D40D1444A91
:10370000D36C23F00303A16C0B43D364236813F43D
:10371000800F37D1236813F0010F19D0E36F102BFE
:1037200000F0A98000F2988043B1082B40F0A080FF
:10373000012104F10800FFF7E7FC0546002D40F0E9
:10374000A180334A536D23F03803E16F0B43536577
:10375000236813F0020F00F0A580A36F052B00F281
:10376000B980DFE803F09791B0979797022104F1B1
:103770000800FFF7C9FC0546BFE701263546C5E747
:103780002E46C3E7234A136843F48073136001F0A5
:103790009FFD07461F4B1B6813F4807F05D101F086
:1037A00097FDC01B6428F5D90325002D50D1184B77
:1037B0001B6FD4F8B420534013F4407F0CD0144B4B
:1037C0001A6F22F44072196F41F480311967196F32
:1037D00021F4803119671A67D4F8B430B3F5807FCB
:1037E0001AD0002D36D1D4F8B43003F44072B2F5BB
:1037F000407F22D0064A136923F47C5313610449A5
:103800000B6FD4F8B420C2F30B0213430B6781E7AC
:10381000004402580048025801F05AFD0746AC4BDC
:103820001B6F13F0020FDCD101F052FDC01B41F2FF
:1038300088339842F3D90325D3E7A5490A6922F4CE
:103840007C52C3F3171323F0300313430B61D6E705
:103850002E465FE72E465DE7282B09D8172B07D9A0
:10386000183B9C4A22FA03F313F0010F7FF466AF72
:10387000012635466CE7012104F12800FFF7C8FC5A
:1038800005465BE72E4663E7012104F10800FFF7D8
:103890003BFC05460DBB8E4A536D23F00703A16F19
:1038A0000B435365236813F0040F29D0D4F89430E8
:1038B000052B00F20881DFE813F018001200FF006A
:1038C000180018001800012104F12800FFF7A0FCDF
:1038D0000546DFE701263546E4E72E46E2E701210B
:1038E00004F10800FFF710FC0546002D40F0EE80C3
:1038F000774A936D23F00703D4F894100B43936534
:10390000236813F0200F1DD0D4F89030B3F1005F7E
:1039100000F0F18000F2E0804BB1B3F1805F40F045
:10392000E780002104F10800FFF7EEFB0546002DBB
:1039300040F0E880664A536D23F0E043D4F89010DD
:103940000B435365236813F0400F1DD0D4F89C300F
:10395000B3F5006F00F0E78000F2D6804BB1B3F50D
:10396000806F40F0DD80002104F10800FFF7CCFB00
:103970000546002D40F0DE80554A936D23F4E05358
:10398000D4F89C100B439365236813F0800F1DD06F
:10399000D4F8A030B3F5804F00F0DD8000F2CC8089
:1039A0004BB1B3F5005F40F0D380002104F1080073
:1039B000FFF7AAFB0546002D40F0D480444A936DE2
:1039C00023F46043D4F8A0100B439365236813F0ED
:1039D000080F0DD0D4F88430B3F5805F00F0C480B8
:1039E0003B4A536D23F44053D4F884100B43536582
:1039F000236813F0100F0DD0D4F89830B3F5807F02
:103A000000F0BC80324A936D23F44073D4F89810D0
:103A10000B439365236813F4002F1CD0D4F8A43013
:103A2000B3F5803F00F0B480B3F5003F08D0002B21
:103A300040F0B580194604F10800FFF765FB054624
:103A4000002D40F0AF80224A936D23F44033D4F828
:103A5000A4100B439365236813F4802F1CD0D4F873
:103A60008830B3F5001F00F09F80B3F5401F08D0E9
:103A7000B3F5801F40F09F80154AD36A43F40033AA
:103A8000D362002D40F09A80114A536D23F4401305
:103A9000D4F888100B435365236813F4803F00F07B
:103AA000A580236D002B00F08B80B3F5803F00F0E4
:103AB00095800126354699E0012104F12800FFF7A1
:103AC000A7FB054611E70126354619E72E4617E7FD
:103AD0000044025801010100B3F1804F3FF427AFC9
:103AE000B3F1A04F3FF423AFB3F1405F3FF41FAFFA
:103AF0000126354626E7022104F12800FFF788FB5E
:103B0000054614E72E461DE7B3F5805F3FF431AF5D
:103B1000B3F5A05F3FF42DAFB3F5406F3FF429AF8D
:103B20000126354630E7022104F12800FFF770FB3B
:103B300005461EE72E4627E7B3F5004F3FF43BAF9F
:103B4000B3F5204F3FF437AFB3F5C04F3FF433AF79
:103B5000012635463AE7022104F12800FFF758FB19
:103B6000054628E72E4631E7022104F12800FFF739
:103B70004FFB00283FF434AF012631E7022104F166
:103B80002800FFF745FB00283FF43CAF012639E74A
:103B9000022104F12800FFF73BFB054650E7012610
:103BA000354658E72E4656E7012104F12800FFF775
:103BB0002FFB054665E7012635466DE72E466BE788
:103BC0006F4AD36A43F40033D36275B96C4AD36C3D
:103BD00023F48033216D0B43D36407E0022104F109
:103BE0000800FFF791FA0546EFE72E46236813F029
:103BF000005F10D1236813F4003F27D0D4F8803041
:103C0000B3F5807F13D00FD9B3F5007F14D0B3F58F
:103C1000407F0AD110E0022104F12800FFF7F8FAF2
:103C20000028E7D00126E5E733B101260EE0544A2B
:103C3000D36A43F40033D362002D69D1504A536DE7
:103C400023F44073D4F880100B435365236813F4B6
:103C5000801F06D04A4A136D23F00043616F0B4367
:103C60001365236813F0805F07D0454A136923F476
:103C70008043D4F8B8100B431361236813F4001F7A
:103C800006D03F4A136D23F08073E16E0B4313653A
:103C9000236813F0804F09D0394B1A6922F400428F
:103CA0001A611A69D4F8BC100A431A612368002B00
:103CB00006DA334AD36C23F04053616D0B43D3646F
:103CC000236813F4000F07D02D4A536D23F44003EB
:103CD000D4F88C100B435365636813F0010F19D1AE
:103CE000636813F0020F1ED1636813F0040F23D131
:103CF000636813F0080F28D1636813F0100F2DD1FB
:103D0000636813F0200F32D106B101263046F8BDAA
:103D10002E469BE7002104F10800FFF7F5F9002883
:103D2000DED00646DCE7012104F10800FFF7ECF9DC
:103D30000028D9D00646D7E7022104F10800FFF792
:103D4000E3F90028D4D00646D2E7002104F1280088
:103D5000FFF75EFA0028CFD00646CDE7012104F137
:103D60002800FFF755FA0028CAD00646C8E7022106
:103D700004F12800FFF74CFA0028C5D00126C5E75A
:103D80000044025808B5FFF779F9054B1B6AC3F3E5
:103D90000213044AD35C03F01F03D84008BD00BFE0
:103DA0000044025844A5040800B5794B9A6AD3F838
:103DB00028C0CCF3053ED96AC1F30011DB6BC3F315
:103DC000CC0301FB03F31CF47C3F00F0DB8002F02A
:103DD000030207EE903AF8EE677A012A4BD0022AE6
:103DE00000F09680002A40F0B080694B1B6813F009
:103DF000200F23D066490A68C2F3C102654BD34045
:103E000007EE103AF8EE476A07EE10EAB8EE476A96
:103E100086EE867A8B6BC3F3080306EE903AF8EED3
:103E2000666A9FED5D6A67EE867A76EEA77AF7EEB0
:103E3000006A77EEA67A27EE277A38E007EE10EAD6
:103E4000F8EE476A9FED556A86EE267A504B9B6BDB
:103E5000C3F3080306EE903AF8EE666A9FED4E6AE9
:103E600067EE867A76EEA77AF7EE006A77EEA67AA4
:103E700027EE277A1BE007EE10EAF8EE476A9FED7F
:103E8000486A86EE267A424B9B6BC3F3080306EE24
:103E9000903AF8EE666A9FED406A67EE867A76EEB3
:103EA000A77AF7EE006A77EEA67A27EE277A384AE5
:103EB000936BC3F3462307EE903AF8EE677AF7EE7A
:103EC000006A77EEA67A87EE276ABCEEC66A80EDB6
:103ED000006A936BC3F3064307EE903AF8EE677AF5
:103EE00077EEA67A87EE276ABCEEC66A80ED016A95
:103EF000936BC3F3066307EE903AF8EE677A77EEBA
:103F0000A67AC7EE276AFCEEE66AC0ED026A00BD3B
:103F100007EE10EAF8EE476A9FED226A86EE267AEF
:103F20001B4B9B6BC3F3080306EE903AF8EE666AF0
:103F30009FED196A67EE867A76EEA77AF7EE006A49
:103F400077EEA67A27EE277AB1E707EE10EAF8EEC9
:103F5000476A9FED136A86EE267A0D4B9B6BC3F37F
:103F6000080306EE903AF8EE666A9FED0B6A67EE7C
:103F7000867A76EEA77AF7EE006A77EEA67A27EED3
:103F8000277A94E70023036043608360BFE700BFA4
:103F9000004402580090D003000000390024744C03
:103FA0000024744A0024F44A00B5794B9A6AD3F885
:103FB00028C0CCF3055ED96AC1F300215B6CC3F362
:103FC000CC0301FB03F31CF07C7F00F0DB8002F0EC
:103FD000030207EE903AF8EE677A012A4BD0022AE4
:103FE00000F09680002A40F0B080694B1B6813F007
:103FF000200F23D066490A68C2F3C102654BD34043
:1040000007EE103AF8EE476A07EE10EAB8EE476A94
:1040100086EE867A0B6CC3F3080306EE903AF8EE50
:10402000666A9FED5D6A67EE867A76EEA77AF7EEAE
:10403000006A77EEA67A27EE277A38E007EE10EAD4
:10404000F8EE476A9FED556A86EE267A504B1B6C58
:10405000C3F3080306EE903AF8EE666A9FED4E6AE7
:1040600067EE867A76EEA77AF7EE006A77EEA67AA2
:1040700027EE277A1BE007EE10EAF8EE476A9FED7D
:10408000486A86EE267A424B1B6CC3F3080306EEA1
:10409000903AF8EE666A9FED406A67EE867A76EEB1
:1040A000A77AF7EE006A77EEA67A27EE277A384AE3
:1040B000136CC3F3462307EE903AF8EE677AF7EEF7
:1040C000006A77EEA67A87EE276ABCEEC66A80EDB4
:1040D000006A136CC3F3064307EE903AF8EE677A72
:1040E00077EEA67A87EE276ABCEEC66A80ED016A93
:1040F000136CC3F3066307EE903AF8EE677A77EE37
:10410000A67AC7EE276AFCEEE66AC0ED026A00BD39
:1041100007EE10EAF8EE476A9FED226A86EE267AED
:104120001B4B1B6CC3F3080306EE903AF8EE666A6D
:104130009FED196A67EE867A76EEA77AF7EE006A47
:1041400077EEA67A27EE277AB1E707EE10EAF8EEC7
:10415000476A9FED136A86EE267A0D4B1B6CC3F3FC
:10416000080306EE903AF8EE666A9FED0B6A67EE7A
:10417000867A76EEA77AF7EE006A77EEA67A27EED1
:10418000277A94E70023036043608360BFE700BFA2
:10419000004402580090D003000000390024744C01
:1041A0000024744A0024F44A00B5794B9A6AD3F883
:1041B00028C0CCF3051ED96A01F001015B6BC3F383
:1041C000CC0301FB03F31CF47C7F00F0DB8002F0E6
:1041D000030207EE903AF8EE677A012A4BD0022AE2
:1041E00000F09680002A40F0B080694B1B6813F005
:1041F000200F23D066490A68C2F3C102654BD34041
:1042000007EE103AF8EE476A07EE10EAB8EE476A92
:1042100086EE867A0B6BC3F3080306EE903AF8EE4F
:10422000666A9FED5D6A67EE867A76EEA77AF7EEAC
:10423000006A77EEA67A27EE277A38E007EE10EAD2
:10424000F8EE476A9FED556A86EE267A504B1B6B57
:10425000C3F3080306EE903AF8EE666A9FED4E6AE5
:1042600067EE867A76EEA77AF7EE006A77EEA67AA0
:1042700027EE277A1BE007EE10EAF8EE476A9FED7B
:10428000486A86EE267A424B1B6BC3F3080306EEA0
:10429000903AF8EE666A9FED406A67EE867A76EEAF
:1042A000A77AF7EE006A77EEA67A27EE277A384AE1
:1042B000136BC3F3462307EE903AF8EE677AF7EEF6
:1042C000006A77EEA67A87EE276ABCEEC66A80EDB2
:1042D000006A136BC3F3064307EE903AF8EE677A71
:1042E00077EEA67A87EE276ABCEEC66A80ED016A91
:1042F000136BC3F3066307EE903AF8EE677A77EE36
:10430000A67AC7EE276AFCEEE66AC0ED026A00BD37
:1043100007EE10EAF8EE476A9FED226A86EE267AEB
:104320001B4B1B6BC3F3080306EE903AF8EE666A6C
:104330009FED196A67EE867A76EEA77AF7EE006A45
:1043400077EEA67A27EE277AB1E707EE10EAF8EEC5
:10435000476A9FED126A86EE267A0D4B1B6BC3F3FC
:10436000080306EE903AF8EE666A9FED0B6A67EE78
:10437000867A76EEA77AF7EE006A77EEA67A27EECF
:10438000277A94E70023036043608360BFE700BFA0
:10439000004402580090D003000000390024744CFF
:1043A0000024744A0024F44A00B58BB0A0F5807351
:1043B0000B432ED0A0F500730B4378D0A0F580639B
:1043C0000B4300F0C980A0F500630B4300F01E8191
:1043D000A0F580530B4300F07E81A0F500530B4302
:1043E00000F0D481A0F500230B4300F01C82A0F55F
:1043F00080330B4300F05F82A0F580430B4300F055
:104400008082A0F50040084300F0C88200200BB075
:1044100000BD8F4B1B6D03F00703042BF6D8DFE8BC
:1044200003F0030D176F2100894B186810F000701E
:10443000EDD007A8FFF7B8FE0898E8E7844B1868A6
:1044400010F00060E3D004A8FFF7AEFC0498DEE7AC
:104450007F4B186810F00050D9D001A8FFF7A4FDD9
:104460000198D4E77A4AD36C03F04053126812F0F3
:10447000040F07D033B9764B1B68C3F3C1037548EB
:10448000D840C4E7724A126812F4807F02D0B3F1B8
:10449000805F0AD06E4A126812F4003FB6D0B3F1C2
:1044A000005F00F0A6820020B1E76B48AFE7684BE1
:1044B0001B6D03F4E073802B2FD014D9C02B1FD0B9
:1044C000B3F5807FA2D1624AD36C03F040531268E7
:1044D00012F0040F2CD05BBB5D4B1B68C3F3C10310
:1044E0005C48D84093E76BB1402B8FD1584B18688C
:1044F00010F000608BD004A8FFF756FC049886E704
:10450000564884E7524B186810F000703FF47FAFB4
:1045100007A8FFF749FE089879E74D4B186810F097
:1045200000503FF474AF01A8FFF73EFD01986EE71D
:10453000474A126812F4807F02D0B3F1805FB4D092
:10454000434A126812F4003F3FF460AFB3F1005FDA
:1045500000F0518200205AE73D4B9B6D03F460034D
:10456000B3F5800F32D016D9B3F5C00FC8D0B3F56C
:10457000000F7FF44BAF364AD36C03F04053126800
:1045800012F0040F2DD063BB314B1B68C3F3C10382
:104590003048D8403BE773B1B3F5001F7FF436AF26
:1045A0002B4B186810F000603FF431AF04A8FFF700
:1045B000FBFB04982BE7264B186810F000703FF4C3
:1045C00026AF07A8FFF7F0FD089820E7204B1868F2
:1045D00010F000503FF41BAF01A8FFF7E5FC019875
:1045E00015E71B4A126812F4807F03D0B3F1805F95
:1045F0003FF45BAF164A126812F4003F3FF406AF77
:10460000B3F1005F00F0F981002000E7104B9B6DD3
:1046100003F0E063B3F1007F3DD021D9B3F1407FD7
:104620003FF46EAFB3F1806F7FF4F0AE084AD36C05
:1046300003F04053126812F0040F37D0002B35D12D
:10464000034B1B68C3F3C1030248D840DFE600BF39
:10465000004402580090D00300093D000080BB00D8
:1046600073B1B3F1807F7FF4D1AE9C4B186810F02A
:1046700000603FF4CCAE04A8FFF796FB0498C6E6B2
:10468000964B186810F000703FF4C1AE07A8FFF712
:104690008BFD0898BBE6914B186810F000503FF472
:1046A000B6AE01A8FFF780FC0198B0E68B4A12680D
:1046B00012F4807F03D0B3F1805F3FF4F6AE874AF7
:1046C000126812F4003F3FF4A1AEB3F1005F00F0B6
:1046D000968100209BE6814B1B6D03F4E043B3F50C
:1046E000005F33D017D9B3F5405F3FF409AFB3F59E
:1046F000804F7FF48BAE794AD36C03F0405312683D
:1047000012F0040F2DD063BB744B1B68C3F3C103BD
:104710007348D8407BE673B1B3F5805F7FF476AE23
:104720006E4B186810F000603FF471AE04A8FFF7FC
:104730003BFB04986BE6694B186810F000703FF47F
:1047400066AE07A8FFF730FD089860E6634B18686F
:1047500010F000503FF45BAE01A8FFF725FC019874
:1047600055E65E4A126812F4807F03D0B3F1805F91
:104770003FF49BAE594A126812F4003F3FF446AE34
:10478000B3F1005F00F03D81002040E6534B1B6D0C
:1047900003F4E023B3F5403F31D00BD8B3F5803FAD
:1047A00017D0B3F5003F1FD0002B7FF42FAEFEF7DC
:1047B00087FC2CE6B3F5802F2DD0B3F5A02F7FF426
:1047C00025AE464B186810F400303FF420AE454843
:1047D0001DE6424B186810F000603FF418AE04A8C4
:1047E000FFF7E2FA059812E63C4B186810F000500B
:1047F0003FF40DAE01A8FFF7D7FB029807E6374B51
:10480000186810F004003FF402AE1B68C3F3C10344
:104810003348D840FBE5314B186810F480703FF402
:10482000F6AD3148F3E52D4B9B6D03F44033B3F502
:10483000803F10D0B3F5003F18D0002B7FF4E6ADD9
:10484000264B186810F000603FF4E1AD04A8FFF7B4
:10485000ABFA0498DBE5214B186810F000503FF4E8
:10486000D6AD01A8FFF7A0FB0398D0E51B4AD36C97
:1048700003F04053126812F0040F07D033B9174BFE
:104880001B68C3F3C1031648D840C0E5134A126839
:1048900012F4807F03D0B3F1805F3FF406AE0F4A7D
:1048A000126812F4003F3FF4B1ADB3F1005F00F0C5
:1048B000AA800020ABE5094BD86C10F4803015D0ED
:1048C00000283FF4A4AD054B186810F000603FF4D9
:1048D0009EAD04A8FFF768FA069898E500440258D0
:1048E0000090D00300127A0000093D00474B186881
:1048F00010F000703FF48BAD07A8FFF755FC089847
:1049000085E5424B9B6D03F0E043B3F1405F31D04E
:104910000BD8B3F1805F17D0B3F1005F1FD0002B2D
:104920007FF474ADFFF72EFA71E5B3F1804F2DD00F
:10493000B3F1A04F7FF46AAD344B186810F4003027
:104940003FF465AD324862E5304B186810F0006006
:104950003FF45DAD04A8FFF727FA059857E52B4B08
:10496000186810F000503FF452AD01A8FFF71CFB8F
:1049700002984CE5254B186810F004003FF447AD51
:104980001B68C3F3C1032348D84040E51F4B186898
:1049900010F480703FF43BAD1F4838E51B4B1B6D96
:1049A00003F04053B3F1805F0DD0B3F1005F15D039
:1049B000002B7FF42BAD154B186810F400303FF43A
:1049C00026AD134823E5114B186810F000703FF432
:1049D0001EAD07A8FFF7E8FB089818E50B4B186811
:1049E00010F000603FF413AD04A8FFF7DDF905985F
:1049F0000DE507480BE5064809E5054807E50448C5
:104A000005E5034803E5024801E500BF00440258FC
:104A100000127A000090D00300093D00144BDB68BF
:104A200013F0010F09D0124B124A5A6002F188327A
:104A30005A60DB6813F0010F14D10D4BD3F80C3121
:104A400013F0010F10D00A4B0A4AC3F8042102F1F7
:104A50008832C3F80421D3F80C3113F0010F05D1CB
:104A600000207047012070470020704701207047E8
:104A700000200052230167450D4BDA6842F0010225
:104A8000DA60DB6813F0010F0DD0094BD3F80C216D
:104A900042F00102C3F80C21D3F80C3113F0010FDE
:104AA00003D000207047012070470120704700BFED
:104AB00000200052F8B505460E4600F009FC0746F6
:104AC000022E09D0042417E000F002FCC01BA8420B
:104AD00000D88DB9032032E02D4C0DE02D4BD3F8DA
:104AE000103124EA030333F000430CBF01230023F9
:104AF00063B1B5F1FF3FE7D1002CEFDB254B1B691C
:104B000034EA03030CBF01230023F1E7012E17D081
:104B1000204BD3F8103123F0684323F480135B0C4F
:104B20005B0443F0004333F0004112D1012E1ED04C
:104B3000184BD3F8103113F4803F22D10020F8BD78
:104B4000144B1B6923F0684323F480135B0C5B0454
:104B5000E9E7114882691A438261002B03DB0D4AA1
:104B600053610120EBE70B4BC3F81411F9E7094B34
:104B70001B6913F4803FE1D0064B4FF480325A6139
:104B8000DCE7044B4FF48032C3F81421D6E700BFB2
:104B90000400008000200052300700202E4B1B7DB7
:104BA000012B55D070B50D4614462B4B01221A75BA
:104BB00001F17843B3F5801F3BD3A1F10161B1F559
:104BC000801F47D202231E46234B00229A613146A2
:104BD0004CF25030FFF76EFF38BB012E2CD01F4A2D
:104BE000D2F80C3143F00203C2F80C31BFF36F8FDF
:104BF000BFF34F8F082354F8042B45F8042B013BD7
:104C000013F0FF03F7D1BFF36F8FBFF34F8F314620
:104C10004CF25030FFF74EFF012E13D00F4AD2F85E
:104C20000C3123F00203C2F80C310B4B00221A7531
:104C300070BD01231E46C7E7084AD36843F002034C
:104C4000D360D3E7054AD36823F00203D360ECE7CF
:104C5000022070470120EBE73007002000200052BF
:104C600001F00303032B24D011F0010F0BD01D4BD7
:104C7000DA6822F03002DA60DA680243DA60DA6871
:104C800042F08802DA6011F0020F11D0154BD3F810
:104C90000C2122F03002C3F80C21D3F80C2102437E
:104CA000C3F80C21D3F80C2142F08802C3F80C2180
:104CB00070470C4BDA6822F03002DA60D3F80C212E
:104CC00022F03002C3F80C21DA680243DA60D3F82C
:104CD0000C210243C3F80C219A6942F010029A6138
:104CE000704700BF0020005200B511F0010F11D035
:104CF000DFF848C0DCF80C3023F4E663CCF80C3065
:104D0000DCF80C3042EA002E43EA0E0343F0840341
:104D1000CCF80C3011F0020F0FD00849D1F80C314B
:104D200023F4E663C1F80C31D1F80C3142EA0022D9
:104D3000134343F08403C1F80C3100BD002000523E
:104D4000F8B5494B1B7D012B00F08C8004460F46C3
:104D5000454B01221A7500229A61436813F0010F36
:104D60000DD10025636813F0020F12D1CDB923686D
:104D7000012B1BD04FF0FF333B60A6684EE00121B2
:104D80004CF25030FFF796FE05460028EAD0012588
:104D9000E8E702214CF25030FFF78CFE0028E5D006
:104DA0000125314B00221A752846F8BD616820693B
:104DB000FFF756FF636813F0010F12D1636813F019
:104DC000020FEED002214CF25030FFF773FE00B11B
:104DD0000125264AD2F80C3123F00803C2F80C3121
:104DE000DFE701214CF25030FFF764FE00B10125EE
:104DF0001E4AD36823F00803D360DFE701214CF299
:104E00005030FFF757FE0546184AD36823F4E06395
:104E100023F00403D3600FE015BB0136E368A268FA
:104E20001344B342BDD9226961683046FFF75CFF85
:104E3000636813F0010FE1D1636813F0020FEBD048
:104E400002214CF25030FFF735FE0546074AD2F8F2
:104E50000C3123F4E06323F00403C2F80C31DBE7E8
:104E60003E609EE702259FE73007002000200052A9
:104E700070B582B0002376E085684FEA430E0324C4
:104E800004FA0EF425EA0405CC6804FA0EF42C4367
:104E90008460446824EA0C044D68C5F3001C0CFAD5
:104EA00003FC4CEA0404446072E08C68012C75D168
:104EB00082E0DD08083550F8254003F0070C4FEA82
:104EC0008C0C4FF00F0E0EFA0CFE24EA0E0E0C693D
:104ED00004FA0CF444EA0E0440F8254073E0092477
:104EE00000E0002404FA0EF42C430CF1020C6D4D8A
:104EF00045F82C404FF0B04424686FEA020C24EAD5
:104F000002054E6816F4801F01D042EA04054FF0F6
:104F1000B044256064680CEA04054E6816F4001F6E
:104F200001D042EA04054FF0B0446560D4F88440F3
:104F30000CEA04054E6816F4003F01D042EA04056D
:104F40004FF0B044C4F88450D4F880400CEA040513
:104F50004E6816F4803F01D042EA04054FF0B0429B
:104F6000C2F8805001330A6832FA03F400F09780E7
:104F70004FF0010C0CFA03FC1CEA0202F2D04C6860
:104F800004F0030E0EF1FF3EBEF1010F7FF674AF89
:104F90004C6804F0030CBCF1030F86D0C5685C00BC
:104FA0004FF0030C0CFA04FC25EA0C0E8D6805FA90
:104FB00004FC4CEA0E04C4604C6804F0030CBCF121
:104FC000020F3FF476AF05685C004FF0030C0CFA5B
:104FD00004FC25EA0C0E4D6805F0030C0CFA04FCE9
:104FE0004CEA0E0404604C6814F4403FBAD02E4CD6
:104FF000D4F8F45045F00205C4F8F450D4F8F44065
:1050000004F002040194019C4FEA930C0CF1020598
:10501000244C54F8255003F0030E4FEA8E0E0F2453
:1050200004FA0EF425EA0405204CA0423FF459AFDF
:1050300004F58064A04222D004F58064A04220D010
:1050400004F58064A0421ED004F58064A0421CD008
:1050500004F58064A0421AD004F58064A04218D000
:1050600004F58064A04216D004F58064A04214D0F8
:1050700004F58064A0423FF432AF0A2432E70124F1
:1050800030E702242EE703242CE704242AE7052432
:1050900028E7062426E7072424E7082422E702B0AD
:1050A00070BD00BF000400580044025800000258C0
:1050B0000AB181617047090481617047134BDB6855
:1050C00013F0040F07D1114BDB6803F00703834291
:1050D0001AD00120704710B50C4AD36823F007039B
:1050E0000343D36000F0F4F80446084B5B6813F404
:1050F000005F07D100F0ECF8001BB0F57A7FF4D91F
:10510000012000E0002010BD002070470048025838
:10511000002807DB00F01F02400901239340024AE8
:1051200042F82030704700BF00E100E0002807DBB4
:10513000090100F1604000F5614080F800137047FC
:1051400000F00F000901014B1954704714ED00E005
:1051500000B500F00700A0F1030CBCF1040F07D864
:10516000C0F1070E0430062806D84FF0000C03E00B
:105170004FF0040E4FF0000C4FF0FF3303FA0EF027
:1051800021EA000101FA0CF103FA0CF322EA03020E
:1051900041EA020000BD0000074AD36823F4E0633F
:1051A0001B041B0C000200F4E060034343F0BF63E8
:1051B00043F40033D360704700ED00E010B50446BF
:1051C000054BD868C0F30220FFF7C2FF0146204616
:1051D000FFF7ACFF10BD00BF00ED00E008B5FFF722
:1051E00097FF08BD0138B0F1807F0BD24FF0E0236C
:1051F0005861054AF02182F82310002098610722A7
:105200001A6170470120704700ED00E00F4B1B78DA
:105210000BB90120704710B504460D4A10684FF4D1
:105220007A72B2FBF3F3B0FBF3F0FFF7DBFF08B9E0
:105230000F2C01D9012010BD024621464FF0FF304E
:10524000FFF7BCFF034B1C600020F4E704000020C4
:10525000100000200800002010B50320FFF79CFF7D
:10526000FDF7D2FC10498B69C3F303230F4AD35CCB
:1052700003F01F03D8408B6903F00F03D35C03F0E6
:105280001F0320FA03F30A4A13600A4B1860002038
:10529000FFF7BCFF18B101231C46204610BD044691
:1052A000FBF704FFF9E700BF0044025844A50408D7
:1052B0000C00002010000020034B1B78034A1168EB
:1052C0000B441360704700BF040000204C0700200F
:1052D000014B1868704700BF4C07002038B50446E2
:1052E000FFF7F6FF0546B4F1FF3F02D0044B1B78F1
:1052F0001C44FFF7EDFF401BA042FAD338BD00BFAE
:1053000004000020014B1868000C70470010005C7E
:10531000034A536823EA00030B435360704700BFFE
:105320000004005803689A6912F0020F01D00022AD
:105330009A6203689A6912F0010F03D19A6942F0E8
:1053400001029A617047DDF800C0C1F3090141EA2A
:105350000241194341EA0C0121F0004102685368FF
:105360004FEA5C5C0CF4806C4CF07F7C4CF4583C55
:105370004CF47F7C4CF0030C23EA0C030B4353608A
:1053800070472DE9F041044603689E6916F0100647
:105390007DD00D4690461022DA61002637462368FC
:1053A000986910F0200F31D187BBB5F1FF3FF6D0DF
:1053B000FFF78EFF4346C01AA84201D8002DEED158
:1053C0002268536803F4804394F84210906910F403
:1053D000004F04D0203918BF012103B971B92368E7
:1053E0009B6913F0200FDAD1FFF772FF4346C01A12
:1053F0001928F4D946F020060127D0E7536843F472
:1054000080435360FFF764FF8046E8E70FB920222E
:10541000DA6146F0040601252268936913F4807F5F
:1054200005D046F001064FF48071D161012513F4D7
:10543000806F06D046F0080622684FF48061D16183
:10544000012513F4007F24D046F0020623684FF4B0
:105450000072DA6101252046FFF764FF2268536875
:1054600023F0FF7323F48B3323F4FF7323F0010342
:105470005360636C33436364202384F8413000231A
:1054800084F8423084F840302846BDE8F081002599
:10549000C2E7002DF8D0DEE770B504460D4616468B
:1054A00023689B6913F0020F22D132462946204619
:1054B000FFF767FFD0B9B5F1FF3FF1D0FFF708FF65
:1054C000801BA84201D8002DEAD123689B6913F004
:1054D000020FE5D1636C43F020036364202384F85A
:1054E0004130002384F8423084F84030012000E04D
:1054F000002070BD2DE9F04104460F4616461D46BA
:10550000DDF8188023689B6937EA03030CBF012389
:105510000023B34227D1424629462046FFF731FFF8
:10552000F8B9B5F1FF3FEDD0FFF7D2FEA0EB0800D0
:10553000A84201D8002DE5D123689B6937EA03030F
:105540000CBF01230023B342DCD1636C43F0200382
:105550006364202384F84130002384F8423084F8C7
:105560004030012000E00020BDE8F08170B582B03D
:10557000044616461A461D46164B00934FF080739C
:10558000D2B2FFF7E0FE079A06992046FFF784FFA4
:1055900078B9012D10D12368F2B29A62079B00936B
:1055A000069B002280212046FFF7A4FF10B10120B6
:1055B00000E0012002B070BD330A22689362079AAE
:1055C00006992046FFF768FF0028F2D12368F2B25F
:1055D0009A62E3E70020008070B582B00446164668
:1055E0001A461D46164B00930023D2B2FFF7ABFEBE
:1055F000079A06992046FFF74FFF78B9012D10D181
:105600002368F2B29A62079B0093069B0022402116
:105610002046FFF76FFF10B1012000E0012002B02B
:1056200070BD330A22689362079A06992046FFF7F5
:1056300033FF0028F2D12368F2B29A62E3E700BF99
:105640000020008070B504460D46164604E023682D
:105650009B6913F0200F12D023689B6913F0200F71
:105660001BD1324629462046FFF78BFE98B9FFF73B
:105670002FFE801BA842EAD8002DEDD1E7E7636C2E
:1056800043F020036364202384F84130002384F82E
:10569000423084F84030012070BD0020FCE7002833
:1056A0005FD010B5044690F84130002B48D0242339
:1056B00084F841302268136823F0010313606368A3
:1056C000226823F0706313612268936823F4004317
:1056D0009360E368012B38D0A368226843F4044345
:1056E0009360E368022B36D02268536823F400638A
:1056F00053602268536843F0007343F400435360DF
:105700002268D36823F40043D3602369626913439A
:10571000A169226843EA0123D360E369216A226810
:105720000B4313602268136843F0010313600020E9
:105730006064202384F84130206384F8420010BD67
:1057400080F84030FBF76EFDB1E7A368226843F4B0
:1057500000439360C5E72268536843F400635360D5
:10576000C7E7012070472DE9F04383B00E46984605
:10577000BDF82C3090F84110202945D10446174639
:1057800099460A9A002B18BF002A36D090F840306C
:10579000012B39D04FF0010380F84030FFF798FD1E
:1057A00005460090192301224FF400412046FFF7DF
:1057B000A1FE28BB212384F84130402384F84230E5
:1057C00060640A9A6262A4F82A90606301950C9B57
:1057D000009343463A4631462046FFF7C7FEA8B934
:1057E000638DFF2B16D9FF22228500904FF0807326
:1057F00031462046FFF7A7FD26E04FF400734364CF
:10580000012003B0BDE8F0830220FAE7002384F80A
:105810004030F5E7628D2285002300934FF000733E
:10582000D2B231462046FFF78EFD0DE0628D228513
:10583000002300934FF00073D2B231462046FFF7A9
:1058400082FD638D002B2FD02A460C992046FFF74E
:1058500023FE0028D4D1626A236812789A62636AB0
:1058600001336362638D013B6385238D013B9BB2F2
:105870002385628D002AE4D0002BE2D100950C9B99
:10588000024680212046FFF735FE0028B8D1638DFF
:10589000FF2BCBD9FF22228500904FF08073314639
:1058A0002046FFF750FDCCE72A460C992046FFF72B
:1058B000C9FE0028A4D123682022DA6121684B6840
:1058C00023F0FF7323F48B3323F4FF7323F00103DE
:1058D0004B6084F84120002384F8423084F8403043
:1058E0008FE700002DE9F04383B00E469846BDF8DF
:1058F0002C3090F84110202946D10446174699468D
:105900000A9A002B18BF002A37D090F84030012B9C
:105910003AD04FF0010380F84030FFF7D9FC05463C
:105920000090192301224FF400412046FFF7E2FDC9
:1059300030BB222384F84130402384F84230606435
:105940000A9A6262A4F82A90606301950C9B009306
:1059500043463A4631462046FFF73EFEB0B9638DD6
:10596000FF2B17D9FF222285404B00934FF0807305
:1059700031462046FFF7E7FC26E04FF4007343640E
:10598000012003B0BDE8F0830220FAE7002384F889
:105990004030F5E7628D2285344B00934FF0007361
:1059A000D2B231462046FFF7CEFC0DE0628D228553
:1059B000002300934FF00073D2B231462046FFF728
:1059C000C2FC638D002B34D000950C9B0022042177
:1059D0002046FFF78FFD0028D2D123685A6A636AF8
:1059E0001A70636A01336362238D013B9BB2238586
:1059F000B4F82AC00CF1FF3CA4F82AC0628D002A3A
:105A0000DFD0002BDDD100950C9B02468021204683
:105A1000FFF770FD0028B3D1638DFF2BC6D9FF229D
:105A2000228500904FF0807331462046FFF78BFCB3
:105A3000C7E72A460C992046FFF704FE00289FD1AD
:105A400023682022DA6121684B6823F0FF7323F476
:105A50008B3323F4FF7323F001034B6084F8412060
:105A6000002384F8423084F840308AE70024008024
:105A7000034690F84120202A23D190F84020012AA3
:105A80001FD0012280F84020242280F841200068A5
:105A9000026822F0010202601868026822F4805253
:105AA0000260186802680A43026019680A6842F0D6
:105AB00001020A60202283F84120002083F8400080
:105AC000704702207047034690F84120202A21D1D8
:105AD00090F84020012A1DD0012280F84020242285
