:020000040800F2
:1000000000000220BD4E0408110F0008130F000865
:10001000150F0008170F0008190F00080000000056
:100020000000000000000000000000001B0F00089E
:100030001D0F0008000000001F0F0008210F00081E
:10004000114F0408114F0408114F0408114F040800
:10005000114F0408114F0408114F0408114F0408F0
:10006000114F0408114F0408114F0408114F0408E0
:10007000114F0408114F0408114F0408114F0408D0
:10008000114F0408114F0408114F0408114F0408C0
:10009000114F0408114F0408114F0408114F0408B0
:1000A000114F0408114F0408114F0408114F0408A0
:1000B000114F0408114F0408114F0408114F040890
:1000C000114F0408114F0408114F0408114F040880
:1000D000114F0408114F0408114F0408114F040870
:1000E000290F0008114F040800000000114F0408F8
:1000F000114F0408114F0408114F0408114F040850
:10010000114F0408114F0408114F0408114F04083F
:10011000114F0408114F0408114F0408114F04082F
:10012000114F0408114F0408114F0408114F04081F
:10013000114F0408114F0408114F0408114F04080F
:1001400000000000000000000000000000000000AF
:10015000114F0408114F0408114F0408114F0408EF
:10016000114F0408114F0408114F0408114F0408DF
:10017000114F0408114F0408114F0408114F0408CF
:10018000114F0408114F0408114F0408114F0408BF
:10019000114F0408114F0408114F0408114F0408AF
:1001A000114F0408114F0408114F0408114F04089F
:1001B000114F0408114F0408114F0408114F04088F
:1001C000114F0408114F0408114F0408114F04087F
:1001D000114F0408114F0408114F0408114F04086F
:1001E000114F0408114F0408114F0408114F04085F
:1001F000114F0408114F0408114F0408114F04084F
:10020000114F0408114F0408114F0408114F04083E
:10021000114F0408114F0408114F0408114F04082E
:10022000114F0408114F0408114F0408000000008A
:10023000114F0408114F040800000000114F04087A
:10024000114F0408114F0408114F0408114F0408FE
:10025000114F0408114F0408114F0408114F0408EE
:10026000114F0408114F0408114F0408114F0408DE
:10027000114F0408114F0408114F0408000000003A
:10028000114F0408114F0408114F0408000000002A
:0802900000000000114F0408FA
:1002A00001F0FF01102A2BDB10F0070F08D010F827
:1002B000013B013A8B422DD010F0070F42B3F6D12B
:1002C000F0B441EA012141EA014122F007047FF044
:1002D00000070023F0E80256083C85EA010586EA9B
:1002E000010685FA47F5A3FA87F586FA47F6A5FAD7
:1002F00087F68EB9EED1F0BC01F0FF0102F00702E3
:1003000032B110F8013B013A83EA010313B1F8D18D
:100310000020704701387047002D06BF354603386E
:10032000073815F0010F07D1013015F4807F02BFA7
:10033000013015F4C03F0130F0BC0138704700BFF8
:10034000034613F8012B002AFBD1181A0138704715
:100350007BB972B90029BEBF00204FF0004106E012
:1003600008BF00281CBF6FF000414FF0FF3000F0C5
:1003700057B8ADF1080C6DE904CE002909DB002B5C
:100380001ADB47F00DFCDDF804E0DDE9022304B0E0
:100390007047404261EB4101002B1BDB47F000FC42
:1003A000DDF804E0DDE9022304B0404261EB4101E5
:1003B000524263EB43037047524263EB430347F0FF
:1003C000EFFBDDF804E0DDE9022304B0404261EB1D
:1003D00041017047524263EB430347F0E1FBDDF814
:1003E00004E0DDE9022304B0524263EB43037047AB
:1003F00053B94AB9002908BF00281CBF4FF0FF318C
:100400004FF0FF3000F00CB8ADF1080C6DE904CEF0
:1004100047F0C6FBDDF804E0DDE9022304B07047D5
:10042000704700BF10B5054C237833B9044B13B1A6
:100430000448AFF300800123237010BD4002002068
:10044000000000005C7E040808B5034B1BB10349A3
:100450000348AFF3008008BD000000004402002004
:100460005C7E04082DE9F04F8FB009AD002409949B
:100470000A940B940C940D94664BD3F8E02042F050
:100480000402C3F8E020D3F8E02002F00402019255
:10049000019AD3F8E02042F02002C3F8E020D3F81C
:1004A000E02002F020020292029AD3F8E02042F00B
:1004B0008002C3F8E020D3F8E02002F0800203922B
:1004C000039AD3F8E02042F00102C3F8E020D3F809
:1004D000E02002F001020492049AD3F8E02042F0F6
:1004E0000202C3F8E020D3F8E02002F002020592F5
:1004F000059AD3F8E02042F01002C3F8E020D3F8C8
:10050000E02002F010020692069AD3F8E02042F0B2
:100510000802C3F8E020D3F8E02002F008020792B6
:10052000079AD3F8E02042F04002C3F8E020D3F865
:10053000E03003F040030893089BDFF8E4B0224664
:100540000621584604F07AFB334F22464FF4AC5153
:10055000384604F073FB01224FF40041384604F0A2
:100560006DFBDFF8C0A001224FF44061504604F05B
:1005700065FBDFF8B49022460421484604F05EFB98
:10058000DFF8A88022464FF47071404604F056FB15
:100590002246FF21214804F051FB0623099301263E
:1005A0000A960B940C942946584604F031FA49F205
:1005B000805309930A960B940C942946384604F00C
:1005C00027FA4FF4406309930A960B940C9429463A
:1005D000504604F01DFA042309930A960B940C94D8
:1005E0002946484604F014FA4FF4707309930A96AA
:1005F0000B940C942946404604F00AFAFF23099311
:100600000A960B940C942946044804F001FA0FB0A2
:10061000BDE8F08F0044025800100258000C025848
:10062000001402580004025800180258000802582A
:1006300072B6FEE700B58BB00023079308930993C9
:1006400000930193029303930493059306931F4829
:100650001F4A02604FF40022426008228260C36099
:1006600004220261037543750122826103774362AC
:100670008362C3620363436380F83830C26301F06E
:100680002DFDE0B90023079307A9104801F050FEA3
:10069000B8B9104B0093062301930023029340F254
:1006A000FF7203920422049205938DF81930694673
:1006B000064801F053F830B90BB05DF804FBFFF7C2
:1006C000B7FFFFF7B5FFFFF7B3FF00BF1406002029
:1006D000002002400800900C08B51348134B03603B
:1006E000A3F13E53A3F57D23A3F565634360002387
:1006F00083600122C260036143618361C36103625D
:1007000004F0A6FD50B90021074804F0B1FF38B944
:100710000021054804F0D9FF20B908BDFFF788FF84
:10072000FFF786FFFFF784FFF80400200054004025
:1007300000B589B0002304930593069307930193B2
:100740000293039313484FF0804202607722426085
:1007500083604FF0FF32C2600361836105F088FA65
:1007600090B94FF48053049304A90A4805F0D6FBCE
:1007700060B900230193039301A9064805F02AFDFF
:1007800030B909B05DF804FBFFF752FFFFF750FFE7
:10079000FFF74EFF6004002010B59AB000241694B5
:1007A0001794189419941394149415940C940D940C
:1007B0000E940F941094119412942C22214601A8A7
:1007C00045F0FCF93648374B03604460846041F2E1
:1007D000BF23C36004614461846105F049FA0028C5
:1007E0004DD14FF48053169316A92D4805F096FB72
:1007F000002846D12A4805F06BFA002843D100238F
:1008000013931493159313A9254805F0E3FC0028CE
:100810003BD160230C9300230D930E930F93109301
:100820001193129304220CA91D4805F0CDFA00285B
:100830002DD108220CA91A4805F0C6FA48BB0C2293
:100840000CA9174805F0C0FA28BB002301930293B6
:100850000393049305934FF4005206920793089371
:100860004FF0007209920A930B9301A90C4805F00E
:1008700001FD90B90A4800F0BFFC1AB010BDFFF7A7
:10088000D7FEFFF7D5FEFFF7D3FEFFF7D1FEFFF748
:10089000CFFEFFF7CDFEFFF7CBFEFFF7C9FE00BF8F
:1008A000AC0400200000014000B589B00023019392
:1008B0000293039304930593069307931A481B4AE4
:1008C00002604FF40022426008228260C36004226A
:1008D000026103754375012282610377436283627B
:1008E000C3620363436380F83830C26301F0F6FBF0
:1008F000B0B90F4B0193062302930023039340F2F8
:10090000FF7204920422059206938DF81D300DEBC0
:100910000201054800F022FF20B909B05DF804FB90
:10092000FFF786FEFFF784FEB0050020002102409D
:100930000004002A00B589B00023019302930393B9
:1009400004930593069307931848194A026083603D
:10095000C36004220261037543750122826103773B
:1009600043628362C3620363436380F83830C263C7
:1009700001F0B4FBB0B90F4B01930623029300239F
:10098000039340F2FF7204920422059206938DF8BD
:100990001D300DEB0201054800F0E0FE20B909B062
:1009A0005DF804FBFFF744FEFFF742FE4C05002014
:1009B000006002580200300400B58FB000230A9393
:1009C0000B930C930D930793089309930093019352
:1009D000029303930493059306931E481E4A0260F4
:1009E0004360836041F2BF22C2600361836105F00E
:1009F0003FF928BB4FF480530A930AA9154805F024
:100A00008DFAF8B9134805F063F9E8B900230793A4
:100A1000099307A90F4805F0DDFBB8B960230093DF
:100A200000230193029304930C226946094805F0C0
:100A3000CBF968B9074800F0DFFB0FB05DF804FBA5
:100A4000FFF7F6FDFFF7F4FDFFF7F2FDFFF7F0FD0E
:100A5000FFF7EEFD140400200004004000B58BB049
:100A60000023079308930993009301930293039340
:100A70000493059306931648164A02604360836008
:100A800041F2BF22C2600361836105F021F9C0B960
:100A900000230793099307A90D4805F09BFB90B924
:100AA0006023009300220192029204926946084852
:100AB00005F08AF948B9064800F09EFB0BB05DF8D6
:100AC00004FBFFF7B5FDFFF7B3FDFFF7B1FD00BF76
:100AD000C80300200008004000B59DB04C22002152
:100AE00009A845F06BF82022002101A845F066F81E
:100AF000022004F0A9F800230093254BDA6A22F0C3
:100B00000102DA62DB6A03F001030093214A936970
:100B100023F4404343F400439361936903F4404357
:100B20000093009B1B4B9B6913F4005FFAD00223D8
:100B3000099301220C9240220D92129300221392EB
:100B4000042114910F2015901693179118930C23DC
:100B500019931A921B9209A801F092FC98B93F23AD
:100B600001930323029300230393049305934022EC
:100B7000069207930893022101A802F0D5F820B944
:100B80001DB05DF804FBFFF753FDFFF751FD00BFFB
:100B9000000400580048025830B5B1B0C0252A46BC
:100BA0000021684645F00AF84FF400220023CDE901
:100BB0000023042302930A2303930223049305933F
:100BC0000693079520230893684602F045FB08B971
:100BD00031B030BDFFF72CFD2DE9F043BFB004F07C
:100BE000FFF8FFF779FFFFF7D7FFFFF73BFCFFF7B1
:100BF00021FDFFF771FDFFF79BFDFFF7CDFDFFF72F
:100C000053FEFFF797FEFFF7D7FEFFF727FF0023FE
:100C10003D933C93984E994D02223146284606F06A
:100C20003AFA974C04223146204606F034FA954EA3
:100C300040F2EE2395E80600304606F034FA924D75
:100C400040F2EE2394E80600284606F02CFA8F4C7A
:100C50000C228F49204607F011F98E4B04228E4951
:100C60008E4807F0F3FA8E4F4FF4807239468D4864
:100C700007F004FD802239468B4807F002FD8B4FB8
:100C80000DF178088A49404606F08EFD70224146F3
:100C9000384645F040F8DFF84C828649684607F050
:100CA0005BFA74226946404645F035F8404607F045
:100CB000F3FA384607F036FC7F4B5C611E605D60DE
:100CC0000021204607F0DFF8204607F017FA07F06A
:100CD000FDFB002000F04EFB012000F04BFB02204A
:100CE00000F048FB0121002000F096FB73494FF40F
:100CF000E1330B600020486008814881888100F062
:100D0000F9FB08B1FFF794FC06F03EFC06F088FC06
:100D1000002752E06A4B1A6801321A6069496A4B2F
:100D2000186838F066FE2F4656E0DDED3D7AB7EEE6
:100D3000E77A53EC172B65496548006838F059FE8F
:100D40006DE0DDED3C7AB7EEE77A53EC172B6149A5
:100D50006148006838F04DFEC72C29D9534C204615
:100D600006F090FDD4ED1A7AB7EEE77A53EC172B24
:100D70005A495B48006838F03CFE5A4C204607F060
:100D800044FAD4ED1A7AB7EEE77A53EC172B5649AA
:100D90005648006838F02DFE404807F060FA40F6EB
:100DA000B733984261D85249524B186838F021FE47
:100DB00029F012FC022004F053F804F04BF884B23E
:100DC0003BAE304607F010F84B4D3146284607F051
:100DD0001FF86D79BD429DD13DA92A4806F0B0FAB1
:100DE000E8B1284B5B7CD3B1444B1B78002B9CD0E3
:100DF0009DED3D7AF2EE027A27EE277AF1EE046A53
:100E0000C7EE267A9FED3E7A77EE877AB7EEE77ADD
:100E100053EC172B3B492E48006838F0EAFD3CA9FB
:100E2000194806F08DFA002896D0174B5B7C002BF2
:100E300092D0324B1B78002B83D09DED3C7AF2EEA2
:100E4000027A27EE277AF1EE046AC7EE267A9FED42
:100E50002C7A77EE877AB7EEE77A53EC172B2A498C
:100E60001D48006838F0C5FD76E72849214B186811
:100E700038F0BFFD9CE700BF00140258B803002003
:100E8000B00300209C030020880300207C03002086
:100E9000AC0400204C050020001802586C02002011
:100EA000001002585C02002064020020EC020020C6
:100EB000A07E0408A47E04085C03002078060020BD
:100EC000680A0020A87E04086C0A0020C47E04087A
:100ED000940A0020E47E0408900A0020F47E0408AE
:100EE000840A002078020020047F0408880A002079
:100EF000107F04088C0A0020C00300205007002047
:100F000000000042B47E0408D47E0408247F040854
:100F1000FEE7FEE7FEE7FEE7FEE770477047704733
:100F200008B503F08BFF08BD08B5002000F0BAFA41
:100F300008BD000082B0074BD3F8F42042F0020253
:100F4000C3F8F420D3F8F43003F002030193019BBB
:100F500002B070470044025830B58DB000230793AB
:100F6000089309930A930B9303684A4A934207D064
:100F7000494A93422ED0494A93426BD00DB030BDBE
:100F8000474A136801331360012B15D0454BD3F842
:100F9000E02042F00102C3F8E020D3F8E03003F093
:100FA00001030193019B402307930323089307A99F
:100FB0003D4803F02DFDE1E73A4BD3F8D82042F04D
:100FC0002002C3F8D820D3F8D83003F020030093D0
:100FD000009BDBE7324A136801331360012B2BD0EF
:100FE000304BD3F8E02042F00402C3F8E020D3F8FD
:100FF000E02002F004020392039AD3F8E02042F0CA
:101000000102C3F8E020D3F8E03003F001030493B9
:10101000049B012307930325089507AC2146234829
:1010200003F0F6FC08230793089500230993214653
:101030001D4803F0EDFCA1E71A4BD3F8D82042F08D
:101040002002C3F8D820D3F8D83003F0200302934D
:10105000029BC5E7134BD3F8E02042F08072C3F83F
:10106000E020D3F8E02002F080720592059AD3F8D0
:10107000E02042F00402C3F8E020D3F8E03003F0AF
:1010800004030693069B4FF00061084603F002FF3D
:1010900074E700BF002002400021024000600258B7
:1010A0008806002000440258000002580008025838
:1010B00010B5B8B004460021339134913591369182
:1010C0003791C02202A844F079FD22681B4B9A4256
:1010D00001D038B010BD08220023CDE9022302A8B8
:1010E00002F0BAF838BB164CD4F8E03043F00203F3
:1010F000C4F8E030D4F8E03003F002030093009B22
:101100004FF4407333931223349300233593369373
:101110000423379333A90B4803F07AFCD4F8E83062
:1011200043F40013C4F8E830D4F8E83003F40013B3
:101130000193019BCDE7FFF77BFAD4E70054004011
:10114000004402580004025884B003681A4A9342CB
:1011500007D0B3F1804F12D0184A93421DD004B08B
:101160007047174BD3F8F02042F00102C3F8F0208B
:10117000D3F8F03003F001030193019BEFE7104B2C
:10118000D3F8E82042F00102C3F8E820D3F8E830B1
:1011900003F001030293029BE1E7094BD3F8E82037
:1011A00042F00202C3F8E820D3F8E83003F002036B
:1011B0000393039BD3E700BF0000014000040040FD
:1011C0000044025802680A4B9A4200D0704782B02D
:1011D000084BD3F8E82042F00402C3F8E820D3F823
:1011E000E83003F004030193019B02B0704700BF95
:1011F0000008004000440258F0B589B00023039372
:1012000004930593069307930368304A934207D0EB
:101210002F4A93422CD02F4A93423FD009B0F0BDC1
:101220002D4BD3F8E02042F01002C3F8E020D3F8B1
:10123000E03003F010030093009B4FF4205303931E
:10124000022704970126079603AD244C2946204621
:1012500003F0DEFB4FF480430393122304930597BE
:101260000023069307962946204603F0D1FBD5E7D5
:10127000194BD3F8E02042F00202C3F8E020D3F883
:10128000E03003F002030193019B022303930493D4
:10129000079303A9124803F0BBFBBFE70E4BD3F83B
:1012A000E02042F00802C3F8E020D3F8E03003F079
:1012B00008030293029B4FF4805303930223049389
:1012C000079303A9074803F0A3FBA7E70000014029
:1012D000000400400008004000440258001002587A
:1012E00000040258000C0258F0B589B01F4BD3F827
:1012F000E02042F00802C3F8E020D3F8E02002F03A
:1013000008020092009AD3F8E02042F00802C3F8E5
:10131000E020D3F8E02002F008020192019AD3F80D
:10132000E82042F48022C3F8E820D3F8E83003F440
:1013300080230293029B4FF480730393022404944E
:101340000694012305930727079703AE084D3146FE
:10135000284603F05DFB4FF4007303930494079752
:101360003146284603F054FB09B0F0BD0044025852
:10137000000C0258022846D870B588B028BB234B11
:10138000D3F8E02042F00202C3F8E020D3F8E030C6
:1013900003F002030093009B1D4B33F8106003968B
:1013A000012304930024059403230693194B53F857
:1013B000205003A9284603F02BFB2246314628463D
:1013C00003F03CFC204608B070BD01280DD00F4B47
:1013D000D3F8E02042F00202C3F8E020D3F8E03076
:1013E00003F002030293029BD6E7084BD3F8E020F8
:1013F00042F01002C3F8E020D3F8E03003F010030D
:101400000193019BC8E76FF0010070470044025848
:10141000808A0408888A040810B586B01C4BD3F86B
:10142000E02042F00402C3F8E020D3F8E03003F0FB
:1014300004030093009B4FF4005301930223039392
:10144000049341B90023029301A9124803F0E0FA82
:10145000002006B010BD04464FF48813029301A982
:101460000C4803F0D5FA0C4B03EBC4040B4920469F
:1014700004F05FF90A4A0021204604F051F90022E5
:101480000F21282003F05CFC282003F069FCDFE733
:101490000044025800080258240700200D003016AE
:1014A000BB14000808B5034B03EBC00004F048F977
:1014B00008BD00BF24070020704708B50020FFF7D3
:1014C000FBFF08BD08B50A4A126802600A6842605C
:1014D0000C2242614A8902614A6882600A89C260BC
:1014E0008A8982614FF40042C26105F052FC08BD56
:1014F0000000002070B938B50D469422084C02FB5C
:1015000000442046FFF7F0FE29462046FFF7DAFFA9
:1015100018B938BD6FF0010070476FF00300F8E7AD
:101520009006002010B582B00190084B18784FF457
:101530007A73012201A94FF0940C054C0CFB00407A
:1015400005F0C0FA019802B010BD00BF8C06002063
:1015500090060020F0B583B00D4F38780DF10706E6
:1015600094250C4C4FF0FF330122314605FB00401F
:1015700005F018FB38784FF47A730122314605FBE9
:10158000004005F09FFA9DF8070003B0F0BD00BFD2
:101590008C0600209006002010B430300B0A9B000F
:1015A00003F00C03C45801F01F014FF01F0C0CFA9C
:1015B00001FC24EA0C0CC2F384628A404CEA020269
:1015C000C2505DF8044B704710B414304B0E9B00B2
:1015D00003F00403C458C1F304514FF0070C0CFA94
:1015E00001FC24EA0C0C8A404CEA0202C2505DF86D
:1015F000044B7047C1F313033BB9C1F3846101226B
:101600008A40C3691343C361704791FAA1F131B1B4
:10161000B1FA81F101F01F0101228A40F1E7202196
:10162000F8E700002DE9F04104460E4603684649FC
:10163000464A934218BF8B4233D102F50072976835
:1016400007F01F072569082D0CD0092F31D840F26B
:101650002121F94011F0010F2BD0DB6813F0010FAD
:1016600021D1042503F0F6FB804623681A682A423C
:101670002BD1B6F1FF3FF8D003F0ECFBA0EB080054
:10168000B04201D8002EF0D123681B682B42ECD168
:10169000636D43F004036365002384F85030032036
:1016A0004DE02B4ACBE7636D43F0200363650120D7
:1016B00045E0936813F4404F01D10425D2E7636DF0
:1016C00043F020036365012039E0626D42F400724B
:1016D0006265DA6812F4406F11D1627D7AB91A68D6
:1016E00012F0080F0BD0626D22F480726265626D99
:1016F00012F4805F03D1626D42F001026265134A09
:10170000934214D01A46934207D0092F12D840F2C0
:101710002121F94011F0010F0CD0DA68082D0BD00F
:1017200012F4804F0DD10C221A60002007E0A2F5C0
:101730008072E8E7D268F1E708221A600020BDE86D
:10174000F0810020FBE700BF0020024000210240A2
:10175000006302580368186C7047000070B582B0CF
:101760000023019390F85030012B00F014820446BE
:101770000D46012380F850300268936813F0040F7F
:1017800009D0436D43F0200343650120002384F812
:10179000503002B070BD0B68002B0ADBC3F313019D
:1017A00000293AD1C3F3846301219940D3690B43E3
:1017B000D3612A6869682068FFF7EEFE20688668B2
:1017C00016F0040600D00126836813F0080F00D13C
:1017D0007EB32068816811F0010140F0D8812B6848
:1017E000EE68D0F8C020C3F3130C22EA0C0206F016
:1017F000180C954E26FA0CF63340C3F3130313432B
:10180000C0F8C030EA68914B9A4200F0A1802B6882
:10181000002BC0F243810020B8E793FAA3F333B161
:10182000B3FA83F303F01F0301219940BEE720239D
:10183000F8E7AA682968FFF7C7FE854B1B6803F025
:101840007043B3F1805F0BD02268D36813F0100FA0
:101850003BD16B69D268C2F382025200934006E02A
:101860006B692268D268C2F38202520093402969F0
:10187000042938D02268286802F1600C5CF8212025
:1018800002F0004200F0F840034313434CF82130CB
:10189000236828696A7E012A1FD03246603353F8D4
:1018A000201021F000410A4343F8202020682969D4
:1018B0002B7E012B14D0026922F4F04201F01F03A9
:1018C00006FA03F31343036183E76B69D268920856
:1018D00002F0040252009340C9E74FF00042DDE7F6
:1018E0004FF40066E7E72268136E03F0F8432968B7
:1018F000B3EB816F1DD02268536E03F0F843296863
:10190000B3EB816F1AD02268936E03F0F843296815
:10191000B3EB816F17D02268D36E03F0F8432968C8
:10192000B3EB816F7FF455AFD36E23F00043D366E2
:101930004FE7136E23F000431366DCE7536E23F08A
:1019400000435366DFE7936E23F000439366E2E7BC
:101950002068404B984205D03F4B98422BD0FFF770
:1019600049FE54E72B683D4A93424AD03C4A934291
:1019700049D03C4A934248D03B4A934247D002F177
:1019800086621032934244D0384A934243D002F1E7
:10199000042202F5401293423FD002F1866202F522
:1019A000006293423BD0324A93423AD0314A93424A
:1019B000D5D13149D3E72B68284A934233D0284AFE
:1019C000934232D0274A934231D0274A934230D0B3
:1019D00002F18662103293422DD0244A93422CD0D9
:1019E00002F1042202F54012934228D002F18662ED
:1019F00002F50062934224D01E4A9342AFD11E49A1
:101A0000ADE70121ABE71D49A9E71D49A7E71D493E
:101A1000A5E71D49A3E71D49A1E71D499FE71D490A
:101A20009DE71D499BE7012199E7144997E7144970
:101A300095E7144993E7144991E714498FE714494E
:101A40008DE714498BE700BFFFFF0F000000FF4741
:101A50000010005C0020024000210240020030041F
:101A6000040060080800900C1000C0100004002A58
:101A7000000021430000844B0000B84F40002019B3
:101A80008000501D000180210002B0250008302E8A
:101A900000106032002090360000524722683F4913
:101AA0003F48824218BF8A420CBF0121002118D151
:101AB0003C4EB56805F0E07CA9B13849886810F063
:101AC000010000D001203649896811F0010100D0E1
:101AD000012101430CD0636D43F0200363650120B5
:101AE00054E6314EE5E73149896811F0010FF2D132
:101AF0002F498B4207D02F498B4226D02E498B424B
:101B000034D0002042E615F4000FF4D1274B9A425E
:101B100001D000203AE64CF40003B26822F0E072F3
:101B20001343B360254B1B689B09254AA2FB032383
:101B30009B0901335B00019302E0019B013B019390
:101B4000019B002BF9D1002020E615F0807FD5D134
:101B5000164B9A4201D0002018E64CF08073B26810
:101B600022F0E0721343B36000200FE615F4800FFB
:101B70000FD10E4B9A4201D0002007E64CF48003AF
:101B8000B26822F0E0721343B3600020FEE500204B
:101B9000FCE50020FAE50220FBE500BF0020024042
:101BA00000210240002302400063025800600258F6
:101BB000000084CB000052C70000B8CF1000002006
:101BC000632D3E0570B5044603689A6812F004025E
:101BD00000D00122986810F0080F01D1002A69D0C6
:101BE000DA6812F0007F04D0A08A40F2011290421D
:101BF0004AD0022910D023689A6812F0040F09D045
:101C00009A6812F0020F05D198682B4A024042F000
:101C100010029A60012945D023689A6812F0080FD3
:101C200009D09A6812F0020F05D19868224A024042
:101C300042F020029A60022936D0032936D10C25C1
:101C400003F008F9064623689B682B4230D003F066
:101C500001F9801B0528F6D923689B682B42F2D036
:101C6000636D43F010036365A36D43F00103A36547
:101C700001201EE0636D43F010036365A36D43F024
:101C80000103A365012014E00022196811F0400F40
:101C900004D10A498A42EDD80132F6E740221A609F
:101CA0000121A8E70425CBE70825C9E70425C7E7F4
:101CB000002070BD0020FCE7C0FFFF7FFFDB0C00B1
:101CC00038B503689A6812F0010F56D10446996836
:101CD0002B4A114209D0436D43F010034365836DD5
:101CE00043F001038365012048E09968254A0A40D2
:101CF00042F001029A6003F0ADF8054623682249DC
:101D0000224A934218BF8B420DD102F500729268AD
:101D100002F01F021D498B4207D01946994207D095
:101D200032B100202AE01A4AF1E7A1F58071F5E707
:101D300023681A6812F0010F1DD19A6812F0010F82
:101D400005D199680F4A0A4042F001029A6003F0F7
:101D500081F8401B0228EBD923681B6813F0010FA0
:101D6000E6D1636D43F010036365A36D43F0010397
:101D7000A365012002E0002000E0002038BD00BF84
:101D80003F000080C0FFFF7F002002400021024092
:101D90000063025838B5044603683E493E4A934200
:101DA00018BF8B4254D102F50072956805F01F05EB
:101DB0009B6813F0040F69D194F85030012B67D061
:101DC000012384F850302046FFF77AFF002859D1CC
:101DD000626DA0F60273134043F480736365236859
:101DE0002D4A934236D01A46934200D01DB9626DF7
:101DF00022F480126265626D12F4805F2DD0A26DB4
:101E000022F00602A2651C221A60002384F85030DA
:101E10002368214A934223D01A46934207D0092DC2
:101E200021D840F22121E94011F0010F1BD0DA68DE
:101E300012F0007F05D0626D22F4405242F48052CD
:101E400062659968154A0A4042F004029A601EE0F1
:101E5000134AAAE7A2F58072C6E70022A265D2E77C
:101E6000A2F58072D9E7636D43F480136365D3688C
:101E700013F0007F0BD0636D23F4405343F4805381
:101E8000636504E0002384F8503000E0022038BD90
:101E90000220FCE70020024000210240C0FFFF7F3B
:101EA0000063025838B504460268936813F00203D1
:101EB00000D00123916811F0010F37D0002B37D1EA
:101EC000936803F00D03012B09D0636D43F01003F9
:101ED0006365A36D43F00103A365012027E09168CA
:101EE000144B0B4043F002039360236803221A60F3
:101EF00002F0B0FF054623689B6813F0010F13D072
:101F000002F0A8FF401B0228F5D923689B6813F054
:101F1000010FF0D0636D43F010036365A36D43F0D0
:101F20000103A365012002E0002000E0002038BD8D
:101F30000020FCE7C0FFFF7F90F85030012B18D045
:101F400010B50446012380F850300321FFF73AFE14
:101F500018B1002384F8503010BD2046FFF7A2FFCF
:101F60000028F6D1626D044B134043F00103636512
:101F7000EFE70220704700BFFEEEFFFF38B50446D2
:101F800003684E494E4A934218BF8B4226D14D4BAF
:101F90009B6803F44033003B18BF012343B301F0B7
:101FA0000DF805466368B3F5003F05D0B3F5403F33
:101FB0001CD0B3F5803F02D11B0CB5FBF3F502F04A
:101FC00063FF41F20303984253D83F4B9D424AD9E5
:101FD0002268936843F48073936038BD3B4B9B68E1
:101FE00003F44033003B18BF0123D7E78508E6E739
:101FF0004FF40020002102F09DF905466368B3F517
:10200000101F2CD021D8B3F5E01F26D004D9B3F58A
:10201000001FD4D14509D2E7B3F5801F10D009D8ED
:10202000B3F5002F0CD0B3F5402F09D0B3F5802FB6
:1020300006D0C4E7B3F5A01F02D0B3F5C01FBED1D0
:102040009B0C5B00B5FBF3F5B9E7B3F5201F08D097
:10205000B3F5301FB3D1050AB1E70509AFE785092C
:10206000ADE7C509ABE72268936823F480739360FA
:10207000B3E7174B9D4205D82268936823F4407359
:102080009360AAE7134B9D4207D82268936823F414
:10209000407343F4807393609FE70F4B9D4207D8D2
:1020A0002268936823F4407343F40073936094E7C9
:1020B0002268936843F4407393608EE700200240E7
:1020C0000021024000230240002D3101006302582C
:1020D00021BCBE0041787D0181F0FA0230B583B0A9
:1020E00000230193002800F008810446436DEBB102
:1020F00023689A6812F0005F03D09968804A0A400A
:102100009A6023689A6812F0805F1CD199687D4AB2
:102110000A4042F080529A607B4B1B689B097B4AC5
:10212000A2FB03239B090133019309E0FEF714FF8F
:102130000023A36584F85030DAE7019B013B01934B
:10214000019B002BF9D12268936813F0805F40F067
:102150009780636D43F010036365A36D43F0010343
:10216000A3650125936813F0040300D00123616D7A
:1021700011F0100F40F0B980002B40F0B680636D75
:1021800023F4817343F002036365936813F0010F36
:102190001ED15F495F4B9A4218BF8A420CBF012291
:1021A00000226FD1896811F0010100D00121594B43
:1021B0009B6813F0010300D001230B4308D1002AD0
:1021C00066D0554963688A6822F47C1213438B6099
:1021D00002F05AFE41F20303984202D9A368102B81
:1021E00058D0627D236B43EA4233A2681343227FB7
:1021F00043EA0243227F012A57D0626A22B102F4E5
:102200007872A16A0A4313432168C868434A0240AE
:102210001A43CA602268936813F0040300D00123B4
:10222000916811F0080F1CD1DBB9217DE36A43EA04
:102230008131D0683A4B03400B43D36094F8383077
:10224000012B37D02268136923F001031361226840
:10225000136923F07043616B0B4313612046FFF752
:102260008DFEE368012B37D02268136B23F00F0338
:102270001363636D23F0030343F00103636539E0E7
:1022800000256FE7274B9B6813F0010FA0D196E75D
:10229000254997E7617D226B42EA41321343227F51
:1022A00043EA024343F00C03A4E7226A013A43EAFB
:1022B0004243A2E7206802691C4B1340E26B511EA7
:1022C000226C42EA0142616C0A43A16C0A43134347
:1022D00043F001030361BAE721680B6B23F00F039E
:1022E000A269013A13430B63C3E7636D43F0100324
:1022F00063650125284603B030BD0125FAE700BF1C
:10230000C0FFFF5FC0FFFF6F10000020632D3E0580
:1023100000200240002102400023024003C0F0FFE1
:10232000FCBFFFFF00600258006302581EF800FC6B
:1023300090F85020012A00F0968030B49AB00346FD
:10234000012280F850200022169217920068474A16
:10235000904236D000220192019A002A35D092682C
:1023600012F0040200D00122846814F0040F6BD133
:10237000002A69D13D4C3E4A904218BFA0422DD15F
:1023800002F500720868002839D0906820F44040B7
:102390004C68204390601868344D354CA04218BFFB
:1023A000A8421DD1AC6814F0010400D001243048CB
:1023B000806810F0010000D00120204315D00020DB
:1023C00047E002F580720192C6E75A6D42F02002A2
:1023D0005A65002283F8502001203DE0254AD1E7CC
:1023E0002548806810F0010F39D1946823482040B7
:1023F0000C688968214308439060002029E09168B7
:1024000021F4404191601968184C1948814218BF65
:10241000A1420ED1A06810F0010000D001201449A3
:10242000896811F0010100D00121014306D000208C
:102430000FE01149896811F0010F12D190680F491E
:1024400001409160002004E05A6D42F020025A657C
:102450000120002283F850201AB030BC70470020C1
:10246000F7E70020F5E70220704700BF0020024098
:10247000002102400063025800600258E0F0FFFFB4
:10248000002800F0398338B50446036813F0010FC3
:1024900025D0944A136903F03803926A102B15D0A3
:1024A000182B0FD06368B3F5803F3FD0002B53D17A
:1024B0008C4B1A6822F480321A601A6822F4802247
:1024C0001A6038E002F00302022AEBD1854B1B6848
:1024D00013F4003F03D06368002B00F00F832368E0
:1024E00013F0020F00F0A1807E4A1369926A13F084
:1024F00038035AD0182B55D0E368002B00F0DE804B
:1025000078490A6822F0190213430B6002F0A2FC1A
:102510000546744B1B6813F0040F40F0AD8002F0C9
:1025200099FC401B0228F4D90320EEE26D4A13689F
:1025300043F48033136063682BB302F08BFC0546D1
:10254000684B1B6813F4003FC9D102F083FC401BA9
:102550006428F5D90320D8E2B3F5A02F09D0614B48
:102560001A6822F480321A601A6822F480221A60F3
:10257000E1E75C4B1A6842F480221A601A6842F460
:1025800080321A60D7E702F065FC0546554B1B68A0
:1025900013F4003FA3D002F05DFC401B6428F5D982
:1025A0000320B2E212F0030FA6D14E4B1B6813F0CA
:1025B000040F03D0E368002B00F0A282494A13689D
:1025C00023F01903E1680B43136002F043FC054656
:1025D000444B1B6813F0040F06D102F03BFC401B78
:1025E0000228F5D9032090E202F04EFC41F20303E9
:1025F000984212D82269402A07D03A494B6823F4FE
:102600007C3343EA02334B600FE0364A536823F4CD
:102610007C3343F40033536007E0324A536823F0BD
:10262000FE43216943EA01635360236813F0100FEE
:1026300000F088802B4A136903F03803926A082B54
:1026400056D0182B50D0E369002B00F0B880254AF3
:10265000136843F08003136002F0FCFB0546214B36
:102660001B6813F4807F40F0888002F0F3FB401B6E
:102670000228F4D9032048E202F006FC41F20303E9
:10268000984212D82269402A07D016494B6823F491
:102690007C3343EA02334B60C7E7124A536823F4A2
:1026A0007C3343F400335360BFE70E4A536823F092
:1026B000FE43216943EA01635360B6E7094A1368A0
:1026C00023F00103136002F0C5FB0546054B1B68B0
:1026D00013F0040FA9D002F0BDFB401B0228F5D96E
:1026E000032012E20044025802F00302012AAAD198
:1026F000A14B1B6813F4807F03D0E369802B40F06B
:10270000018202F0C1FB41F20303984212D8226A0F
:10271000202A07D098494B6823F0F84343EA8263A4
:102720004B600FE0944A536823F0F84343F0804332
:10273000536007E0904AD36823F07C53216A43EA50
:102740000163D360236813F0080F60D06369002B26
:1027500049D0894A536F43F00103536702F07AFB73
:102760000546854B5B6F13F0020F50D102F072FBF0
:10277000401B0228F5D90320C7E102F085FB41F296
:102780000303984212D8226A202A07D07A494B685C
:1027900023F0F84343EA82634B60D3E7764A5368F9
:1027A00023F0F84343F080435360CBE7724AD36889
:1027B00023F07C53216A43EA0163D360C2E76E4A87
:1027C000136823F08003136002F044FB05466A4B54
:1027D0001B6813F4807FB5D002F03CFB401B02283D
:1027E000F5D9032091E1644A536F23F00103536745
:1027F00002F030FB0546604B5B6F13F0020F06D012
:1028000002F028FB401B0228F5D903207DE1236854
:1028100013F0200F29D0A3699BB1574A136843F4E2
:102820008053136002F016FB0546534B1B6813F4EC
:10283000005F1AD102F00EFB401B0228F5D90320DD
:1028400063E14D4A136823F48053136002F002FBE6
:102850000546494B1B6813F4005F06D002F0FAFAF4
:10286000401B0228F5D903204FE1236813F0040F21
:1028700021D1636A002B00F047813F4A126902F0C0
:102880003802182A00F0EE80022B79D03A4A1368F9
:1028900023F08073136002F0DDFA0446364B1B68A8
:1028A00013F0007F00F0DC8002F0D4FA001B022855
:1028B000F4D9032029E1314A136843F4807313608B
:1028C00002F0C8FA05462D4B1B6813F4807F06D131
:1028D00002F0C0FA401B6428F5D9032015E1A36873
:1028E000012B0AD00BBB244B1A6F22F001021A678E
:1028F0001A6F22F004021A6704E01F4A136F43F0B4
:1029000001031367A36833B302F0A4FA05461A4B18
:102910001B6F13F0020FACD102F09CFA401B41F286
:1029200088339842F3D90320EFE0052B09D0124BEE
:102930001A6F22F001021A671A6F22F004021A6756
:10294000E0E70D4B1A6F42F004021A671A6F42F06B
:1029500001021A67D6E702F07DFA0546064B1B6FA7
:1029600013F0020F85D002F075FA401B41F2883354
:102970009842F3D90320C8E00044025800480258A6
:10298000694A136823F08073136002F063FA054606
:10299000654B1B6813F0007F06D002F05BFA401B0A
:1029A0000228F5D90320B0E05F4B996A5F4A0A40DC
:1029B000A16AE06A41EA00110A439A62226B013A75
:1029C000C2F30802616B0139490289B20A43A16B63
:1029D0000139090401F4FE010A43E16B01390906DA
:1029E00001F0FE410A431A63DA6A22F00102DA6258
:1029F0005A6B6FF3CF02A16C42EAC1025A63DA6AE2
:102A000022F00C02216C0A43DA62DA6A22F0020236
:102A1000616C0A43DA62DA6A42F48032DA62DA6AB4
:102A200042F40032DA62DA6A42F48022DA62DA6A66
:102A300042F00102DA621A6842F080721A6002F013
:102A400009FA0446384B1B6813F0007F06D102F0E8
:102A500001FA001B0228F5D9032056E0002054E0BB
:102A6000002052E0304A916A106B012B4ED001F0E9
:102A70000303A26A93424BD1C1F30511E36A994261
:102A800048D1C0F30802236B013B9A4244D1C0F302
:102A90004622636B013B9A4240D1C0F30642A36BCE
:102AA000013B9A423CD1C0F30660E36B013B984284
:102AB00038D11D4B5B6BC3F3CC03A26C9A4201D19E
:102AC000002022E0184AD36A23F00103D36202F007
:102AD000C1F9054602F0BEF9A842FBD0124A536B79
:102AE0006FF3CF03A16C43EAC1035363D36A43F08E
:102AF0000103D362002008E001207047012004E0B8
:102B0000012002E0012000E0002038BD0120FCE7A8
:102B10000120FAE70120F8E70120F6E70120F4E7B9
:102B20000120F2E70120F0E7004402580CFCFFFF0F
:102B3000754B1B6903F03803102B00F0DE80182B57
:102B40000FD0002B40F0DB806F4B1B6813F0200F81
:102B500000F0D7806C4B1B68C3F3C1036B48D840AF
:102B6000704710B4684B9A6A02F003029C6AC4F37F
:102B70000510D96A01F001015B6BC3F3CC0301FBC3
:102B800003F307EE903AF8EE677A14F47C7F77D07F
:102B9000012A4AD0022A76D0002A40F091805A4B6E
:102BA0001B6813F0200F23D057490A68C2F3C102F3
:102BB000564BD34007EE103AF8EE476A07EE100A7C
:102BC000B8EE476A86EE867A0B6BC3F3080306EE0F
:102BD000903AF8EE666A9FED4E6A67EE867A76EE78
:102BE000A77AF7EE006A77EEA67A27EE277A38E022
:102BF00007EE100AF8EE476A9FED466A86EE267ADF
:102C0000414B1B6BC3F3080306EE903AF8EE666A7D
:102C10009FED3F6A67EE867A76EEA77AF7EE006A56
:102C200077EEA67A27EE277A1BE007EE100AF8EE79
:102C3000476A9FED396A86EE267A334B1B6BC3F3E6
:102C4000080306EE903AF8EE666A9FED316A67EE89
:102C5000867A76EEA77AF7EE006A77EEA67A27EE06
:102C6000277A294B1B6BC3F34623013307EE903AB7
:102C7000F8EE677AC7EE276AFCEEE67A17EE900A5E
:102C80005DF8044B704707EE100AF8EE476A9FEDB7
:102C9000236A86EE267A1C4B1B6BC3F3080306EEF1
:102CA000903AF8EE666A9FED1A6A67EE867A76EEDB
:102CB000A77AF7EE006A77EEA67A27EE277AD0E7B2
:102CC00007EE100AF8EE476A9FED136A86EE267A41
:102CD0000D4B1B6BC3F3080306EE903AF8EE666AE1
:102CE0009FED0B6A67EE867A76EEA77AF7EE006ABA
:102CF00077EEA67A27EE277AB3E7094870470948A6
:102D000070470248704700BF004402580090D0034B
:102D1000000000390024744C0024744A0024F44A52
:102D200000127A0000093D00002800F0328170B5E1
:102D30000D4604469B4B1B6803F00F038B420BD2DE
:102D4000984A136823F00F030B431360136803F0D2
:102D50000F038B4240F01F81236813F0040F0CD047
:102D60002269914B9B6903F070039A4205D98E4901
:102D70008B6923F070031A438A61236813F0080FEC
:102D80000CD06269884BDB6903F070039A4205D965
:102D90008549CB6923F070031A43CA61236813F095
:102DA000100F0CD0A269804BDB6903F4E0639A42F8
:102DB00005D97D49CB6923F4E0631A43CA612368CE
:102DC00013F0200F0CD0E269774B1B6A03F07003FD
:102DD0009A4205D974490B6A23F070031A430A62B8
:102DE000236813F0020F0CD0E2686F4B9B6903F06D
:102DF0000F039A4205D96C498B6923F00F031A43DC
:102E00008A61236813F0010F41D0674A936923F464
:102E10007063A1680B4393616368022B0AD0032B94
:102E200027D0012B2CD0604A126812F0040F06D173
:102E30000120ADE0126812F4003F00F0AE805A4964
:102E40000A6922F0070213430B6102F003F80646F9
:102E5000554B1B6903F038036268B3EBC20F16D001
:102E600001F0F8FF801B41F288339842F0D903202B
:102E70008EE04D4A126812F0007FE0D1012087E019
:102E8000494A126812F4807FD9D1012080E023687A
:102E900013F0020F0CD0E268434B9B6903F00F0361
:102EA0009A4205D240498B6923F00F031A438A6185
:102EB0003C4B1B6803F00F03AB420AD9394A136835
:102EC00023F00F032B431360136803F00F03AB428F
:102ED00065D1236813F0040F0CD02269324B9B6933
:102EE00003F070039A4205D22F498B6923F07003D7
:102EF0001A438A61236813F0080F0CD062692A4BC9
:102F0000DB6903F070039A4205D22749CB6923F0AD
:102F100070031A43CA61236813F0100F0CD0A26922
:102F2000214BDB6903F4E0639A4205D21E49CB6969
:102F300023F4E0631A43CA61236813F0200F0CD016
:102F4000E269194B1B6A03F070039A4205D21649D5
:102F50000B6A23F070031A430A62FFF7E9FD124976
:102F60008B69C3F30323114AD35C03F01F03D840DA
:102F70008B6903F00F03D35C03F01F0320FA03F304
:102F80000B4A13600B4B18600B4B186801F000FFE5
:102F900070BD012070470120FAE70120F8E7012009
:102FA000F6E700BF0020005200440258AC8A040833
:102FB0000C000020100000200800002008B5FFF7DA
:102FC000B7FD0B4A9369C3F303230A49CB5C03F0B3
:102FD0001F0320FA03F3926902F00F02885C00F0ED
:102FE0001F0023FA00F0044A1060044A136008BD71
:102FF00000440258AC8A04080C0000201000002095
:1030000008B5FFF7DBFF054BDB69C3F30213044A86
:10301000D35C03F01F03D84008BD00BF0044025832
:10302000AC8A040808B5FFF7C9FF054BDB69C3F399
:103030000223044AD35C03F01F03D84008BD00BF3D
:1030400000440258AC8A0408404B9B6A03F0030317
:10305000032B79D070B505460E463C4A136823F021
:103060008063136001F0F6FE0446384B1B6813F0D2
:10307000006F06D001F0EEFE031B022BF5D90320F2
:1030800070BD324B9A6A22F47C32296842EA0132DE
:103090009A626A68013AC2F30802A96801394902D2
:1030A00089B20A43E9680139090401F4FE010A43BF
:1030B00029690139090601F0FE410A439A63DA6A77
:1030C00022F0C00269690A43DA62DA6A22F0200259
:1030D000A9690A43DA62DA6A22F01002DA62DA6B6C
:1030E0006FF3CF02E96942EAC102DA63DA6A42F0B9
:1030F0001002DA62C6B91A46DB6A43F40023D362CF
:10310000124A136843F08063136001F0A3FE044683
:103110000E4B1B6813F0006F14D101F09BFE001BD7
:103120000228F5D90320ABE7012E05D0074AD36A60
:1031300043F40013D362E3E7044AD36A43F48013F1
:10314000D362DDE700209BE701207047004402586E
:10315000404B9B6A03F00303032B79D070B50546FF
:103160000E463C4A136823F08053136001F072FE50
:103170000446384B1B6813F0005F06D001F06AFE6E
:10318000031B022BF5D9032070BD324B9A6A22F043
:103190007C72296842EA01529A626A68013AC2F373
:1031A0000802A9680139490289B20A43E96801396C
:1031B000090401F4FE010A4329690139090601F0F5
:1031C000FE410A431A64DA6A22F4406269690A43DA
:1031D000DA62DA6A22F40072A9690A43DA62DA6A08
:1031E00022F48072DA625A6C6FF3CF02E96942EA24
:1031F000C1025A64DA6A42F48072DA62C6B91A46C7
:10320000DB6A43F48003D362124A136843F08053AD
:10321000136001F01FFE04460E4B1B6813F0005FA5
:1032200014D101F017FE001B0228F5D90320ABE7EB
:10323000012E05D0074AD36A43F08073D362E3E7D7
:10324000044AD36A43F40003D362DDE700209BE71E
:103250000120704700440258F8B50446036813F093
:10326000006F30D0836EB3F5001F26D00ED8ABB1FF
:10327000B3F5801F07D102210830FFF7E5FE0546B0
:1032800095B12E4621E0012635461EE0B3F5401FDC
:1032900001D1002508E00126354616E09A4AD36A96
:1032A00043F40033D3620025974A136D23F440138F
:1032B000A16E0B431365002607E002212830FFF7BB
:1032C00047FF0546DCE700263546236813F4807F78
:1032D00014D0A36D042B31D8DFE803F003222908B2
:1032E0000800894AD36A43F40033D3624DBB864A4F
:1032F000136D23F00703A16D0B431365236813F4CB
:10330000007F3FD0E36D802B2ED01FD833B3402BEE
:1033100019D1002104F10800FFF796FE054629E0C7
:10332000002104F10800FFF78FFE0546DEE70021CB
:1033300004F12800FFF70CFF0546D7E701263546C4
:10334000DCE72E46DAE7012635461BE0C02B11D01C
:10335000B3F5807F0ED00126354613E06A4AD36A62
:1033600043F40033D36205E0002104F12800FFF7A5
:10337000EFFE0546DDB9644A136D23F4E073E16D99
:103380000B431365236813F4806F33D0D4F8A8304F
:10339000B3F5800F1FD00FD8BBB1B3F5001F08D114
:1033A000002104F10800FFF74FFE054619E02E4604
:1033B000E8E7012635461DE0B3F5C00F11D0B3F59F
:1033C000000F0ED00126354614E04F4AD36A43F46D
:1033D0000033D36205E0002104F12800FFF7B8FEB6
:1033E0000546E5B9484A936D23F46003D4F8A81064
:1033F0000B439365236813F4006F34D0D4F8AC30DA
:10340000B3F1007F1FD00FD8BBB1B3F1807F08D1DB
:10341000002104F10800FFF717FE054619E02E46CB
:10342000E8E7012635461EE0B3F1407F11D0B3F145
:10343000806F0ED00126354615E0334AD36A43F437
:103440000033D36205E0002104F12800FFF780FE7D
:103450000546002D33D12C4A936D23F0E063D4F858
:10346000AC100B439365236813F0007F13D0E36C1B
:10347000202B2ED028D833B1102B22D1224AD36A48
:1034800043F40033D3625DBB1F4AD36C23F0300397
:10349000E16C0B43D364236813F4805F46D0236E42
:1034A000B3F5005F32D020D843B3B3F5805F19D1B4
:1034B000002104F10800FFF7C7FD05462CE02E4669
:1034C000D1E701263546E6E7302BDCD0012635462C
:1034D000E1E7022104F10800FFF7B6FD0546D2E757
:1034E0002E46D8E70126354620E0B3F5405F13D0DD
:1034F000B3F5804F10D00126354617E0024AD36A53
:1035000043F40033D36207E000440258002104F181
:103510002800FFF71DFE05463DB9704A136D23F4E0
:10352000E043216E0B43136500E02E46236813F43D
:10353000005F17D0636EB3F5003F4FD042D843B160
:10354000B3F5803F3BD1012104F10800FFF77CFD7A
:103550000546002D49D1614A136D23F4E023616EC5
:103560000B431365236813F4804F19D0D4F8B0309F
:10357000B3F1005F4AD03DD843B1B3F1805F36D19B
:10358000012104F10800FFF75FFD0546002D44D13D
:10359000524A936D23F0E043D4F8B0100B43936587
:1035A000236813F4004F47D0236FB3F1805F36D008
:1035B000B3F1005F4BD0BBB3012635463CE001269A
:1035C0003546CFE7B3F5802FC3D0B3F5A02FC0D0D9
:1035D000B3F5403FBDD001263546C3E7012104F1D4
:1035E0002800FFF7B5FD0546B3E72E46BAE70126EA
:1035F0003546D5E7B3F1804FC8D0B3F1A04FC5D061
:10360000B3F1405FC2D001263546C9E7012104F17C
:103610002800FFF79DFD0546B8E72E46C0E72F4A74
:10362000D36A43F40033D362C5B92C4A136D23F037
:103630004053216F0B431365236813F0807F1CD028
:10364000A36C032B44D8DFE803F0100B3C100121DE
:1036500004F10800FFF7F8FC0546E5E72E46EBE726
:103660001E4AD36A43F40033D362A5BB1B4AD36C12
:1036700023F00303A16C0B43D364236813F4800F7E
:103680002ED1236813F0010F00F0A680E36F282BE2
:1036900000F2A080DFE803F08E9E9E9E9E9E9E9E7E
:1036A000889E9E9E9E9E9E9E979E9E9E9E9E9E9E57
:1036B0008E9E9E9E9E9E9E9E8E9E9E9E9E9E9E9E4A
:1036C0008E00022104F10800FFF7BEFC0546CCE79E
:1036D00001263546D1E72E46CFE700BF0044025809
:1036E0005A4A136843F48073136001F0B3FB074632
:1036F000564B1B6813F4807F05D101F0ABFBC01B58
:103700006428F5D90325002D4AD1514B1B6FD4F8FD
:10371000B420534013F4407F0CD04D4B1A6F22F469
:103720004072196F41F480311967196F21F48031AB
:1037300019671A67D4F8B430B3F5807F15D08DBB04
:10374000D4F8B43003F44072B2F5407F1ED0404A42
:10375000136923F47C5313613D490B6FD4F8B420F3
:10376000C2F30B0213430B678BE701F073FB0746B1
:10377000374B1B6F13F0020FE1D101F06BFBC01B45
:1037800041F288339842F3D90325D8E730480269DB
:1037900022F47C522F4901EA131313430361DBE740
:1037A0002E466EE72E466CE7012104F10800FFF774
:1037B0004BFC0546E5B9264A536D23F03803E16F0B
:1037C0000B43536508E0012104F12800FFF7C0FC1A
:1037D0000546EFE701263546236813F0020F17D0A0
:1037E000A36F052B2CD8DFE803F00B05240B0B0B84
:1037F0002E46F1E7012104F10800FFF725FC0546FC
:103800000DBB134A536D23F00703A16F0B435365A0
:10381000236813F0040F30D0D4F89430052B00F255
:103820000F81DFE813F01F00190006011F001F00C1
:103830001F00012104F12800FFF78AFC0546DFE79D
:1038400001263546E4E72E46E2E700BF004802586D
:1038500000440258CFFFFF00012104F10800FFF7E8
:10386000F3FB0546002D40F0EE80B64A936D23F041
:103870000703D4F894100B439365236813F0200FCB
:103880001DD0D4F89030B3F1005F00F0F08000F26A
:10389000DF804BB1B3F1805F40F0D780002104F1AD
:1038A0000800FFF7D1FB0546002D40F0E780A54A50
:1038B000536D23F0E043D4F890100B435365236815
:1038C00013F0400F1DD0D4F89C30B3F5006F00F01A
:1038D000E98000F2D8804BB1B3F5806F40F0D08022
:1038E000002104F10800FFF7AFFB0546002D40F072
:1038F000E080944A936D23F4E053D4F89C100B437A
:103900009365236813F0800F1DD0D4F8A030B3F571
:10391000804F00F0E28000F2D1804BB1B3F5005F40
:1039200040F0C980002104F10800FFF78DFB054637
:10393000002D40F0D980834A936D23F46043D4F87E
:10394000A0100B439365236813F0080F0DD0D4F833
:103950008430B3F5805F00F0C9807A4A536D23F458
:103960004053D4F884100B435365236813F0100FB1
:103970000DD0D4F89830B3F5807F00F0C180714A43
:10398000936D23F44073D4F898100B439365236828
:1039900013F4002F1CD0D4F8A430B3F5803F00F00E
:1039A000B980B3F5003F08D0002B40F0BA80002169
:1039B00004F10800FFF748FB0546002D40F0B480F5
:1039C000604A936D23F44033D4F8A4100B439365FD
:1039D000236813F4802F1CD0D4F88830B3F5001F6F
:1039E00000F0A480B3F5401F08D0B3F5801F40F06D
:1039F000A480544AD36A43F40033D362002D40F0CC
:103A00009F80504A536D23F44013D4F888100B4321
:103A10005365236813F4803F00F0AC80236D002BC6
:103A200000F09280B3F5803F00F09C80012635467F
:103A3000A0E0012104F12800FFF78AFB054611E709
:103A40000126354619E72E4617E70126354636E7A3
:103A5000B3F1804F3FF428AFB3F1A04F3FF424AF50
:103A6000B3F1405F3FF420AF0126354627E702213E
:103A700004F12800FFF76CFB054615E72E461EE70C
:103A8000012635463DE7B3F5805F3FF42FAFB3F530
:103A9000A05F3FF42BAFB3F5406F3FF427AF012693
:103AA00035462EE7022104F12800FFF751FB0546B9
:103AB0001CE72E4625E70126354644E7B3F5004FBF
:103AC0003FF436AFB3F5204F3FF432AFB3F5C04FFC
:103AD0003FF42EAF0126354635E7022104F12800D8
:103AE000FFF736FB054623E72E462CE7022104F1BB
:103AF0002800FFF72DFB00283FF42FAF01262CE70D
:103B0000022104F12800FFF723FB00283FF437AF20
:103B1000012634E7022104F12800FFF719FB0546CE
:103B20004BE70126354653E72E4651E7012104F1C4
:103B30002800FFF70DFB054660E70126354668E7DC
:103B40002E4666E700440258704AD36A43F40033B5
:103B5000D36275B96D4AD36C23F48033216D0B4366
:103B6000D36407E0022104F10800FFF76DFA05466F
:103B7000EFE72E46236813F0005F11D1236813F49A
:103B8000003F28D0D4F88030B3F5807F14D010D90E
:103B9000B3F5007F15D0B3F5407F12D001261AE0AF
:103BA000022104F12800FFF7D3FA0028E6D001260D
:103BB000E4E733B101260EE0544AD36A43F40033FC
:103BC000D362002D69D1514A536D23F44073D4F868
:103BD00080100B435365236813F4801F06D04B4AB3
:103BE000136D23F00043616F0B431365236813F0DB
:103BF000805F07D0454A136923F48043D4F8B81096
:103C00000B431361236813F4001F06D03F4A136D62
:103C100023F08073E16E0B431365236813F0804F2C
:103C200009D03A4B1A6922F400421A611A69D4F891
:103C3000BC100A431A612368002B06DA334AD36C9E
:103C400023F04053616D0B43D364236813F4000FDA
:103C500007D02E4A536D23F44003D4F88C100B4345
:103C60005365636813F0010F19D1636813F0020FF5
:103C70001ED1636813F0040F23D1636813F0080F9B
:103C800028D1636813F0100F2DD1636813F0200F53
:103C900032D106B101263046F8BD2E469BE7002101
:103CA00004F10800FFF7D0F90028DED00646DCE773
:103CB000012104F10800FFF7C7F90028D9D0064612
:103CC000D7E7022104F10800FFF7BEF90028D4D09D
:103CD0000646D2E7002104F12800FFF739FA002850
:103CE000CFD00646CDE7012104F12800FFF730FAD6
:103CF0000028CAD00646C8E7022104F12800FFF7D1
:103D000027FA0028C5D00126C5E700BF00440258A5
:103D100008B5FFF753F9054B1B6AC3F30213044AB6
:103D2000D35C03F01F03D84008BD00BF0044025815
:103D3000AC8A040810B4794B9A6A9C6AC4F3053CB7
:103D4000D96AC1F30011DB6BC3F3CC0301FB03F3AE
:103D500014F47C3F00F0DD8002F0030207EE903A9D
:103D6000F8EE677A012A4BD0022A00F09880002AE8
:103D700040F0B280694B1B6813F0200F23D06749D5
:103D80000A68C2F3C102664BD34007EE103AF8EE60
:103D9000476A07EE10CAB8EE476A86EE867A8B6BE2
:103DA000C3F3080306EE903AF8EE666A9FED5D6A8B
:103DB00067EE867A76EEA77AF7EE006A77EEA67A55
:103DC00027EE277A38E007EE10CAF8EE476A9FED33
:103DD000566A86EE267A514B9B6BC3F3080306EEB8
:103DE000903AF8EE666A9FED4F6A67EE867A76EE55
:103DF000A77AF7EE006A77EEA67A27EE277A1BE01D
:103E000007EE10CAF8EE476A9FED486A86EE267AFA
:103E1000424B9B6BC3F3080306EE903AF8EE666ADA
:103E20009FED406A67EE867A76EEA77AF7EE006A33
:103E300077EEA67A27EE277A384A936BC3F34623A8
:103E400007EE903AF8EE677AF7EE006A77EEA67A18
:103E500087EE276ABCEEC66A80ED006A936BC3F3F7
:103E6000064307EE903AF8EE677A77EEA67A87EE89
:103E7000276ABCEEC66A80ED016A936BC3F30663E2
:103E800007EE903AF8EE677A77EEA67AC7EE276AE1
:103E9000FCEEE66AC0ED026A5DF8044B704707EE7F
:103EA00010CAF8EE476A9FED226A86EE267A1B4B0F
:103EB0009B6BC3F3080306EE903AF8EE666A9FED3B
:103EC000196A67EE867A76EEA77AF7EE006A77EEE1
:103ED000A67A27EE277AAFE707EE10CAF8EE476A10
:103EE0009FED126A86EE267A0C4B9B6BC3F3080398
:103EF00006EE903AF8EE666A9FED0A6A67EE867AF9
:103F000076EEA77AF7EE006A77EEA67A27EE277AA2
:103F100092E70023036043608360BDE700440258DA
:103F20000090D003000000390024744C0024744A2F
:103F30000024F44A10B4794B9A6A9C6AC4F3055C75
:103F4000D96AC1F300215B6CC3F3CC0301FB03F31B
:103F500014F07C7F00F0DD8002F0030207EE903A5F
:103F6000F8EE677A012A4BD0022A00F09880002AE6
:103F700040F0B280694B1B6813F0200F23D06749D3
:103F80000A68C2F3C102664BD34007EE103AF8EE5E
:103F9000476A07EE10CAB8EE476A86EE867A0B6C5F
:103FA000C3F3080306EE903AF8EE666A9FED5D6A89
:103FB00067EE867A76EEA77AF7EE006A77EEA67A53
:103FC00027EE277A38E007EE10CAF8EE476A9FED31
:103FD000566A86EE267A514B1B6CC3F3080306EE35
:103FE000903AF8EE666A9FED4F6A67EE867A76EE53
:103FF000A77AF7EE006A77EEA67A27EE277A1BE01B
:1040000007EE10CAF8EE476A9FED486A86EE267AF8
:10401000424B1B6CC3F3080306EE903AF8EE666A57
:104020009FED406A67EE867A76EEA77AF7EE006A31
:1040300077EEA67A27EE277A384A136CC3F3462325
:1040400007EE903AF8EE677AF7EE006A77EEA67A16
:1040500087EE276ABCEEC66A80ED006A136CC3F374
:10406000064307EE903AF8EE677A77EEA67A87EE87
:10407000276ABCEEC66A80ED016A136CC3F306635F
:1040800007EE903AF8EE677A77EEA67AC7EE276ADF
:10409000FCEEE66AC0ED026A5DF8044B704707EE7D
:1040A00010CAF8EE476A9FED226A86EE267A1B4B0D
:1040B0001B6CC3F3080306EE903AF8EE666A9FEDB8
:1040C000196A67EE867A76EEA77AF7EE006A77EEDF
:1040D000A67A27EE277AAFE707EE10CAF8EE476A0E
:1040E0009FED126A86EE267A0C4B1B6CC3F3080315
:1040F00006EE903AF8EE666A9FED0A6A67EE867AF7
:1041000076EEA77AF7EE006A77EEA67A27EE277AA0
:1041100092E70023036043608360BDE700440258D8
:104120000090D003000000390024744C0024744A2D
:104130000024F44A10B4794B9A6A9C6AC4F3051CB3
:10414000D96A01F001015B6BC3F3CC0301FB03F3FC
:1041500014F47C7F00F0DD8002F0030207EE903A59
:10416000F8EE677A012A4BD0022A00F09880002AE4
:1041700040F0B280694B1B6813F0200F23D06749D1
:104180000A68C2F3C102664BD34007EE103AF8EE5C
:10419000476A07EE10CAB8EE476A86EE867A0B6B5E
:1041A000C3F3080306EE903AF8EE666A9FED5D6A87
:1041B00067EE867A76EEA77AF7EE006A77EEA67A51
:1041C00027EE277A38E007EE10CAF8EE476A9FED2F
:1041D000566A86EE267A514B1B6BC3F3080306EE34
:1041E000903AF8EE666A9FED4F6A67EE867A76EE51
:1041F000A77AF7EE006A77EEA67A27EE277A1BE019
:1042000007EE10CAF8EE476A9FED486A86EE267AF6
:10421000424B1B6BC3F3080306EE903AF8EE666A56
:104220009FED406A67EE867A76EEA77AF7EE006A2F
:1042300077EEA67A27EE277A384A136BC3F3462324
:1042400007EE903AF8EE677AF7EE006A77EEA67A14
:1042500087EE276ABCEEC66A80ED006A136BC3F373
:10426000064307EE903AF8EE677A77EEA67A87EE85
:10427000276ABCEEC66A80ED016A136BC3F306635E
:1042800007EE903AF8EE677A77EEA67AC7EE276ADD
:10429000FCEEE66AC0ED026A5DF8044B704707EE7B
:1042A00010CAF8EE476A9FED226A86EE267A1B4B0B
:1042B0001B6BC3F3080306EE903AF8EE666A9FEDB7
:1042C000196A67EE867A76EEA77AF7EE006A77EEDD
:1042D000A67A27EE277AAFE707EE10CAF8EE476A0C
:1042E0009FED116A86EE267A0C4B1B6BC3F3080315
:1042F00006EE903AF8EE666A9FED0A6A67EE867AF5
:1043000076EEA77AF7EE006A77EEA67A27EE277A9E
:1043100092E70023036043608360BDE700440258D6
:104320000090D003000000390024744C0024744A2B
:104330000024F44A00B58BB0A0F580730B432DD058
:10434000A0F500730B437CD0A0F580630B4300F015
:10435000D080A0F500630B4300F02881A0F58053C6
:104360000B4300F08781A0F500530B4300F0DF8181
:10437000A0F500230B4300F02882A0F580330B4307
:1043800000F06B82A0F580430B4300F08D82A0F516
:104390000040084300F0D68200200CE0934B1B6DD8
:1043A00003F00703042B00F2F782DFE803F00711A4
:1043B0001B0325008E480BB05DF804FB8B4B18687F
:1043C00010F00070F7D007A8FFF7B4FE0898F2E7E6
:1043D000864B186810F00060EDD004A8FFF7AAFC27
:1043E0000498E8E7814B186810F00050E3D001A86A
:1043F000FFF7A0FD0198DEE77C4AD36C03F0405341
:10440000126812F0040F07D033B9784B1B68C3F35E
:10441000C1037848D840CEE7744A126812F4807F0E
:1044200003D0B3F1805F00F0B982704A126812F4D1
:10443000003F00F0B582B3F1005F00F0B3820020CE
:10444000B9E76A4B1B6D03F4E073802B31D015D9AB
:10445000C02B00F0A982B3F5807F1ED1634AD36CD4
:1044600003F04053126812F0040F2DD063BB5F4B72
:104470001B68C3F3C1035F48D8409CE77BB1402B66
:1044800009D15A4B186810F0006094D004A8FFF7C7
:1044900051FC04988FE700208DE700208BE7534BF9
:1044A000186810F0007086D007A8FFF743FE089840
:1044B00081E74E4B186810F000503FF47CAF01A824
:1044C000FFF738FD019876E7484A126812F4807FBA
:1044D00003D0B3F1805F00F06982444A126812F49D
:1044E000003F00F06582B3F1005F00F063820020BE
:1044F00061E73E4B9B6D03F46003B3F5800F35D04D
:1045000016D9B3F5C00F00F05782B3F5000F20D1D4
:10451000364AD36C03F04053126812F0040F30D0C7
:104520007BBB324B1B68C3F3C1033248D84042E720
:104530008BB1B3F5001F0AD12C4B186810F0006046
:104540003FF439AF04A8FFF7F5FB049833E70020E8
:1045500031E700202FE7254B186810F000703FF47A
:104560002AAF07A8FFF7E6FD089824E71F4B186855
:1045700010F000503FF41FAF01A8FFF7DBFC0198DB
:1045800019E71A4A126812F4807F03D0B3F1805FF2
:1045900000F01482154A126812F4003F00F01082F5
:1045A000B3F1005F00F00E82002004E70F4B9B6D1B
:1045B00003F0E063B3F1007F3CD01DD9B3F1407F3D
:1045C00000F00282B3F1806F27D1084AD36C03F068
:1045D0004053126812F0040F37D0002B35D1034B33
:1045E0001B68C3F3C1030348D840E4E60044025803
:1045F0000080BB000090D0038BB1B3F1807F0AD163
:104600009A4B186810F000603FF4D5AE04A8FFF78D
:1046100091FB0498CFE60020CDE60020CBE6934B3B
:10462000186810F000703FF4C6AE07A8FFF782FDCF
:104630000898C0E68D4B186810F000503FF4BBAEF0
:1046400001A8FFF777FC0198B5E6884A126812F4D2
:10465000807F03D0B3F1805F00F0B881834A126895
:1046600012F4003F00F0B481B3F1005F00F0B281BA
:104670000020A0E67D4B1B6D03F4E043B3F5005F23
:1046800035D016D9B3F5405F00F0A681B3F5804F61
:1046900020D1764AD36C03F04053126812F0040F15
:1046A00030D07BBB714B1B68C3F3C1037048D8404B
:1046B00081E68BB1B3F5805F0AD16C4B186810F0BE
:1046C00000603FF478AE04A8FFF734FB049872E66C
:1046D000002070E600206EE6644B186810F0007051
:1046E0003FF469AE07A8FFF725FD089863E65F4B26
:1046F000186810F000503FF45EAE01A8FFF71AFCF6
:10470000019858E6594A126812F4807F03D0B3F139
:10471000805F00F06381554A126812F4003F00F098
:104720005F81B3F1005F00F05D81002043E64F4BF5
:104730001B6D03F4E023B3F5403F32D00BD8B3F543
:10474000803F18D0B3F5003F20D013B9FEF758FCD6
:1047500031E600202FE6B3F5802F2ED0B3F5A02F41
:1047600007D1424B186810F400303FF424AE4148A2
:1047700021E600201FE63D4B186810F000603FF472
:104780001AAE04A8FFF7D6FA059814E6374B186856
:1047900010F000503FF40FAE01A8FFF7CBFB0298DA
:1047A00009E6324B186810F004003FF404AE1B68B1
:1047B000C3F3C1032E48D840FDE52C4B186810F414
:1047C00080703FF4F8AD2C48F5E5284B9B6D03F461
:1047D0004033B3F5803F10D0B3F5003F18D0002B25
:1047E00040F00281214B186810F000603FF4E3AD07
:1047F00004A8FFF79FFA0498DDE51C4B186810F039
:1048000000503FF4D8AD01A8FFF794FB0398D2E520
:10481000164AD36C03F04053126812F0040F07D00D
:1048200033B9124B1B68C3F3C1031148D840C2E52A
:104830000E4A126812F4807F03D0B3F1805F00F05B
:10484000D5800A4A126812F4003F00F0D180B3F11B
:10485000005F00F0CF800020ADE5044BDB6C13F46B
:1048600080330BD0ABB90020A5E500BF004402584F
:104870000090D00300127A0000093D005F4B1868D9
:1048800010F000703FF497AD07A8FFF753FC0898AD
:1048900091E55A4B186810F000603FF48CAD04A805
:1048A000FFF748FA069886E5544B9B6D03F0E0430A
:1048B000B3F1405F32D00BD8B3F1805F18D0B3F1C1
:1048C000005F20D013B9FFF723FA74E5002072E5EA
:1048D000B3F1804F2ED0B3F1A04F07D1474B1868EA
:1048E00010F400303FF467AD454864E5002062E510
:1048F000424B186810F000603FF45DAD04A8FFF76C
:1049000019FA059857E53D4B186810F000503FF430
:1049100052AD01A8FFF70EFB02984CE5374B186823
:1049200010F004003FF447AD1B68C3F3C1033548E2
:10493000D84040E5314B186810F480703FF43BAD2F
:10494000314838E52D4B1B6D03F04053B3F1805FC8
:104950000CD0B3F1005F14D0002B4DD1274B186859
:1049600010F400303FF427AD254824E5234B1868A8
:1049700010F000703FF41FAD07A8FFF7DBFB0898AD
:1049800019E51E4B186810F000603FF414AD04A840
:10499000FFF7D0F905980EE500200CE51A480AE566
:1049A000002008E5164806E5184804E5164802E523
:1049B000002000E51248FEE41448FCE41248FAE442
:1049C0000020F8E40E48F6E41048F4E40E48F2E45F
:1049D0000020F0E40A48EEE40C48ECE40A48EAE47B
:1049E0000020E8E40648E6E40020E4E40648E2E4C7
:1049F0000020E0E40248DEE40020DCE40044025849
:104A000000127A000090D00300093D000080BB0036
:104A1000F0B583B000236FE085685E000324B440E6
:104A200025EA0405CC68B4402C438460456825EA37
:104A30000C054C68C4F300149C402C4344606EE0A9
:104A40008C68012C70D17EE0DD08083550F82540D7
:104A500003F0070C4FEA8C0C4FF00F0E0EFA0CFE11
:104A600024EA0E0E0C6904FA0CF444EA0E0440F831
:104A700025406EE0092400E0002404FA0EF42C43E3
:104A80000CF1020C6A4D45F82C404FF0B0442568FB
:104A9000D44325EA02064F6817F4801F01D042EA8A
:104AA00005064FF0B0452E606D6804EA05064F68B4
:104AB00017F4001F01D042EA05064FF0B0456E60C2
:104AC000D5F8845004EA05064F6817F4003F01D07A
:104AD00042EA05064FF0B045C5F88460D5F880502D
:104AE0002C404E6816F4803F01D042EA05044FF096
:104AF000B042C2F8804001330A6832FA03F400F091
:104B000095804FF0010C0CFA03FC1CEA0202F2D073
:104B10004C6804F00304013C012C7FF67DAF4C6827
:104B200004F00304032C8BD0C4684FEA430E4FF00B
:104B3000030C0CFA0EFC24EA0C0C8C6804FA0EF43C
:104B400044EA0C04C4604C6804F00304022C3FF4F3
:104B50007BAF04684FEA430E4FF0030C0CFA0EFCD7
:104B600024EA0C0C4C6804F0030404FA0EF444EA42
:104B70000C0404604C6814F4403FBCD02D4CD4F8B5
:104B8000F45045F00205C4F8F450D4F8F44004F0B1
:104B900002040194019C4FEA930C0CF10205244C91
:104BA00054F8255003F0030E4FEA8E0E0F2404FA3A
:104BB0000EF425EA0405204CA0423FF45DAF04F555
:104BC0008064A04222D004F58064A04220D004F585
:104BD0008064A0421ED004F58064A0421CD004F57D
:104BE0008064A0421AD004F58064A04218D004F575
:104BF0008064A04216D004F58064A04214D004F56D
:104C00008064A0423FF436AF0A2436E7012434E73B
:104C1000022432E7032430E704242EE705242CE79E
:104C200006242AE7072428E7082426E703B0F0BD76
:104C30000004005800440258000002580AB1816183
:104C40007047090481617047134BDB6813F0040F50
:104C500007D1114BDB6803F0070383421AD0012010
:104C6000704710B50C4AD36823F007030343D360A1
:104C700000F0F0F80446084B5B6813F4005F07D1BE
:104C800000F0E8F8001BB0F57A7FF4D9012000E0CD
:104C9000002010BD0020704700480258002807DBA4
:104CA00000F01F02400901239340024A42F82030DD
:104CB000704700BF00E100E0002804DB0901C9B231
:104CC000044B1954704700F00F000901C9B2024BA0
:104CD0001954704700E400E014ED00E000B500F066
:104CE0000700C0F1070CBCF1040F28BF4FF0040C03
:104CF000031D062B0FD9C31E4FF0FF3E0EFA0CF01A
:104D000021EA000199400EFA03FE22EA0E0241EA6E
:104D100002005DF804FB0023EEE700000649CB68C3
:104D200023F4E0631B041B0C000200F4E060034367
:104D3000024A1A43CA60704700ED00E00000FA051D
:104D400010B50446054BD868C0F30220FFF7C6FF34
:104D500001462046FFF7B0FF10BD00BF00ED00E0A8
:104D600008B5FFF79BFF08BD0138B0F1807F0BD27B
:104D70004FF0E0235861054AF02182F8231000200B
:104D8000986107221A6170470120704700ED00E02A
:104D9000104B1B780BB90120704710B504464FF437
:104DA0007A70B0FBF3F30C4A1068B0FBF3F0FFF736
:104DB000DBFF68B90F2C01D901200AE0002221464F
:104DC0004FF0FF30FFF7BCFF044B1C60002000E0F9
:104DD000012010BD04000020100000200800002069
:104DE00010B50320FFF79AFFFDF7A2FE0F498B696C
:104DF000C3F303230E4AD35C03F01F03D8408B692F
:104E000003F00F03D35C03F01F0320FA03F3094AF6
:104E10001360094B18600020FFF7BAFF10B101249E
:104E2000204610BD0446FCF785F8F9E70044025817
:104E3000AC8A04080C00002010000020034B1B78F3
:104E4000034A11680B441360704700BF0400002040
:104E50002C070020014B1868704700BF2C0700206A
:104E600038B50446FFF7F6FF0546B4F1FF3F02D020
:104E7000044B1B781C44FFF7EDFF401BA042FAD304
:104E800038BD00BF04000020014B1868000C7047BB
:104E90000010005C034A536823EA00030B4353608D
:104EA000704700BF0004005803689A6912F0020FAF
:104EB00001D000229A6203689A6912F0010F03D1AF
:104EC0009A6942F001029A61704710B4019CC1F3E3
:104ED000090141EA02411943214321F000410268DE
:104EE0005368640D04F4806444F07F7444F45834CF
:104EF00044F47F7444F0030423EA04030B43536037
:104F00005DF8044B70472DE9F041044603689E6943
:104F100016F010067ED00D4690461022DA6100266B
:104F200037462368986910F0200F32D18FBBB5F156
:104F3000FF3FF6D0FFF78EFFA0EB0800A84201D894
:104F4000002DEED121684A6802F4804294F8423084
:104F5000DBB2886910F4004F04D0203B18BF012356
:104F600002B973B923689B6913F0200FD9D1FFF7F9
:104F700071FFA0EB08001928F4D946F0200601279C
:104F8000CFE74B6843F480434B60FFF763FF8046F5
:104F9000E8E70FB92022DA6146F00406012522680D
:104FA000936913F4807F05D046F001064FF48071B9
:104FB000D161012513F4806F06D046F008062268FF
:104FC0004FF48061D161012513F4007F24D046F0B5
:104FD000020623684FF40072DA6101252046FFF7CC
:104FE00063FF2268536823F0FF7323F48B3323F4A9
:104FF000FF7323F001035360636C33436364202326
:1050000084F84130002384F8423084F84030284648
:10501000BDE8F0810025C2E7002DF8D0DEE770B5CD
:1050200004460D46164623689B6913F0020F22D1F1
:10503000324629462046FFF766FFF0B9B5F1FF3F3B
:10504000F1D0FFF707FF801BA84201D8002DEAD15D
:1050500023689B6913F0020FE5D1636C43F02003D2
:105060006364202384F84130002384F8423084F8BC
:105070004030012000E0002070BD0120FCE72DE958
:10508000F8430546884617461E46DDF820902B68F3
:105090009C6938EA04040CBF01230023BB4227D1DA
:1050A0004A4631462846FFF72EFF20BBB6F1FF3FA8
:1050B000EDD0FFF7CFFEA0EB0900B04201D8002EE3
:1050C000E5D12B689B6938EA03030CBF0123002359
:1050D000BB42DCD16B6C43F020036B64202385F86A
:1050E0004130002385F8423085F84030012000E04F
:1050F0000020BDE8F8830120FBE700002DE9F04126
:1051000082B0044690461D46089E099F194B0093A5
:105110004FF08073EAB2FFF7D8FE3A463146204698
:10512000FFF77DFFF8B9012D0ED123685FFA88F2F1
:105130009A6200973346002280212046FFF79FFFA6
:10514000A8B902B0BDE8F08123684FEA18229A623C
:105150003A4631462046FFF762FF30B923685FFACE
:1051600088F29A62E5E70120EBE70120E9E70120F8
:10517000E7E700BF002000802DE9F04182B004463F
:1051800090461D46089E099F184B00930023EAB2E3
:10519000FFF79BFE3A4631462046FFF740FFF8B93D
:1051A000012D0ED123685FFA88F29A620097334688
:1051B000002240212046FFF762FFA8B902B0BDE8F7
:1051C000F08123684FEA18229A623A463146204617
:1051D000FFF725FF30B923685FFA88F29A62E5E7A6
:1051E0000120EBE70120E9E70120E7E7002000804C
:1051F00070B504460D46164604E023689B6913F01B
:10520000200F12D023689B6913F0200F1BD1324668
:1052100029462046FFF777FEB8B9FFF71BFE801B33
:10522000A842EAD8002DEDD1E7E7636C43F02003F4
:105230006364202384F84130002384F8423084F8EA
:105240004030012000E0002070BD0120FCE700009C
:1052500000285DD010B5044690F84130002B46D0B0
:10526000242384F841302268136823F0010313607B
:105270006368226823F0706313612268936823F4E3
:1052800000439360E368012B36D0A368226843F49F
:1052900004439360E368022B34D02268536823F4FC
:1052A00000635360226851681A4B0B4353602268B5
:1052B000D36823F40043D360236962691343A1696F
:1052C000226843EA0123D360E369216A22680B4321
:1052D00013602268136843F00103136000206064C8
:1052E000202384F84130206384F8420010BD80F808
:1052F0004030FBF7DDFEB3E7A368226843F40043C8
:105300009360C7E72268536843F400635360C9E7BA
:1053100001207047008000022DE9F04F83B00D4658
:10532000BDF834A00E9F90F84110202940F0BC80B9
:105330000446914698460C9BBAF1000F18BF002B0B
:1053400016D090F84030012B00F0B2804FF0010BE6
:1053500080F840B0FFF77EFD0646009019235A46BC
:105360004FF400412046FFF78AFE30B101209CE057
:105370004FF400734364012097E0212384F8413007
:10538000402384F84230002363640C9A6262A4F8DC
:105390002AA063630196009743464A462946204661
:1053A000FFF7ACFE70B9638D9BB2FF2B0FD9FF22C4
:1053B0002285002300934FF0807329462046FFF793
:1053C00084FD21E0002384F8403058466DE0628D72
:1053D00092B22285002300934FF00073D2B2294687
:1053E0002046FFF772FD0FE0628D92B22285002306
:1053F00000934FF00073D2B229462046FFF765FDB7
:10540000638D9BB2002B33D0324639462046FFF7DE
:1054100006FE00284ED1626A236812789A62636A97
:1054200001336362638D9BB2013B9BB26385238D25
:10543000013B9BB22385628D92B2002AE0D0002B03
:10544000DED100963B46002280212046FFF717FE62
:1054500090BB638D9BB2FF2BC6D9FF222285002310
:1054600000934FF0807329462046FFF72EFDC7E7D3
:10547000324639462046FFF7BBFEF8B923682022A2
:10548000DA6121684B6823F0FF7323F48B3323F434
:10549000FF7323F001034B6084F84120002384F85C
:1054A000423084F8403000E0022003B0BDE8F08FC5
:1054B0000220FAE70120F8E70120F6E70120F4E7EF
:1054C0002DE9F04F83B00D46BDF834A00E9F90F843
:1054D0004110202940F0BD800446914698460C9B1F
:1054E000BAF1000F18BF002B16D090F84030012BF6
:1054F00000F0B3804FF0010B80F840B0FFF7AAFC3A
:105500000646009019235A464FF400412046FFF703
:10551000B6FD30B101209DE04FF4007343640120DB
:1055200098E0222384F84130402384F8423000235D
:1055300063640C9A6262A4F82AA0636301960097E0
:1055400043464A4629462046FFF716FE70B9638D4A
:105550009BB2FF2B0FD9FF222285444B00934FF0C3
:10556000807329462046FFF7B0FC21E0002384F831
:10557000403058466EE0628D92B222853B4B0093DC
:105580004FF00073D2B229462046FFF79EFC0FE091
:10559000628D92B22285002300934FF00073D2B245
:1055A00029462046FFF791FC638D9BB2002B34D037
:1055B00000963B46002204212046FFF760FD0028AC
:1055C0004DD123685A6A636A1A70636A0133636251
:1055D000228D013A92B22285638D9BB2013B9BB230
:1055E0006385638D9BB2002BDED0002ADCD1009650
:1055F0003B4680212046FFF742FD90BB638D9BB266
:10560000FF2BC5D9FF222285002300934FF0807322
:1056100029462046FFF759FCC6E732463946204660
:10562000FFF7E6FDF8B923682022DA6121684B68AC
:1056300023F0FF7323F48B3323F4FF7323F0010370
:105640004B6084F84120002384F8423084F84030D5
:1056500000E0022003B0BDE8F08F0220FAE701204D
:10566000F8E70120F6E70120F4E700BF00240080FE
:10567000034690F84120202A23D190F84020012AA7
:1056800021D0012280F84020242280F841200068A7
:10569000026822F0010202601868026822F4805257
:1056A0000260186802680A43026019680A6842F0DA
:1056B00001020A60202283F84120002083F8400084
:1056C00070470220704702207047034690F841203F
:1056D000202A21D190F84020012A1FD0012280F8F1
:1056E0004020242280F841200068026822F0010254
:1056F00002601868026822F4706242EA01220260C5
:1057000019680A6842F001020A60202283F84120E9
:10571000002083F840007047022070470220704745
:1057200018B121B942600846704701207047012036
:10573000704710B1016000207047012070470000E1
:1057400010B50368C3F3014203F01F030121994020
:105750001301044A9C580C4203D09950436803B18A
:10576000984710BD88000058F0B4026A036A23F01D
:1057700001030362466884691F4B23400D681D4383
:1057800022F002028B6813431C4A1D4CA04218BF32
:1057900090420CBF012200220CD004F58044A042AC
:1057A00014BF00240124174FB84203D014B9164C7B
:1057B000A04207D1046A24F00404046223F0080321
:1057C000CC6823435AB9114A904214BF00220122E7
:1057D0000C4CA04203D012B90B4A904205D126F4DA
:1057E00040764A6932438E691643466085614A684D
:1057F00042630362F0BC70478CFFFEFF0000014073
:1058000000040140004001400048014000440140C4
:1058100070B4036A026A22F4807202624468C56945
:105820001B4A2A400D68154323F400738A6843EA33
:105830000223184A184EB04218BF90420CBF0122F2
:10584000002208D1066A26F48066066223F400630B
:10585000CE6843EA06235AB9104A904214BF002288
:1058600001220F4EB04203D012B90E4A904207D126
:1058700024F440544A6944EA02148A6944EA02144E
:105880004460C5614A68C263036270BC704700BF70
:105890008CFFFEFF00000140000401400044014075
:1058A000004001400048014070B4036A026A22F4DB
:1058B000805202624468C569144A2A400D6842EA6F
:1058C000052223F400538D6843EA0533104E114D31
:1058D000A84218BFB0420DD005F58045A84214BFBC
:1058E0000025012506F58046B04203D015B90A4DC2
:1058F000A84204D124F480444D6944EA85144460EC
:10590000C2614A680264036270BC7047FF8CFFFE8C
:1059100000000140000401400048014070B4036AE7
:10592000026A22F4803202624268456D144E2E40B3
:105930000D682E4323F400338C6843EA0443114D71
:10594000114CA04218BFA8420DD004F58044A042DB
:1059500014BF0024012405F58045A84203D014B9E2
:105960000A4CA04204D122F480324C6942EA04225B
:10597000426046654A688265036270BC704700BF3A
:105980008FFFFEFF0000014000040140004801407D
:1059900070B4036A026A22F4801202624468456DA0
:1059A000144A2A400D6842EA052223F400138D6848
:1059B00043EA0553104E114DA84218BFB0420DD016
:1059C00005F58045A84214BF0025012506F580464F
:1059D000B04203D015B90A4DA84204D124F4802462
:1059E0004D6944EA8524446042654A68C2650362A1
:1059F00070BC7047FF8FFFFE0000014000040140B3
:105A00000048014030B4036A046A24F001040462CF
:105A1000114D124CA04218BFA8420DD004F580448D
:105A2000A04214BF0024012405F58045A84203D0FC
:105A300014B90B4CA04203D1046A24F0040404629C
:105A4000846924F0F00C4CEA021223F00A03194393
:105A50008261016230BC70470000014000040140D7
:105A60000048014030B4036A046A24F01004046260
:105A70000B4D0C4CA04218BFA84203D1046A24F07D
:105A800040040462846924F4704C4CEA023223F02E
:105A9000A00343EA01118261016230BC704700BF7C
:105AA00000000140000401408268034B13400B4397
:105AB00043F00703836070478FFFCFFF90F83D30BE
:105AC000012B35D1022380F83D3003681A4AB3F127
:105AD000804F18BF93421DD0A2F57C42934219D04B
